:020000040800F2
:100000000008002041E10008054E0008074E0008E6
:1000100095E1000895E1000895E100080000000066
:10002000000000000000000000000000154E000865
:1000300095E1000800000000174E0008194E000866
:1000400095E1000895E100084353000895E1000898
:1000500095E100088D510008595100080951000828
:1000600095E1000895E1000895E1000895E1000898
:100070006FA8000895E1000895E1000895E10008E7
:1000800095E1000895E100080000000095E10008F6
:1000900095E1000895E1000895E1000895E1000868
:1000A00095E1000895E1000895E10008BDA0000871
:1000B00095E100080000000095E100080000000044
:1000C00095E100080000000095E1000895E10008B6
:1000D00095E1000895E1000895E1000800000000A6
:1000E000000000000000000095E100080000000092
:1000F0000000000000000000000000000000000000
:1001000095E10008000000000000000095E10008F3
:100110000000000000FEE0000000FF34000000FFCF
:100120002C000000FF54000000FF5C000000FFF501
:10013000082000FF38000000FF80000000000000E1
:1001400000000000000000FEE80C0000FE3000E2AD
:10015000000000000000000000000000000000009F
:10016000000000000000000000000000000000FF90
:10017000E8072008000006A000FFE000C000FF80A4
:100180000700000000000000FF00000000FEC02289
:1001900000270000000000FEE81E0000FFE801202C
:1001A00000FFD80103000007C60000FF08000000A0
:1001B000FFF4002000FFD8070200FFE8082000003D
:1001C0000000E200FDA5082000000800E200FDADEF
:1001D000082000001000E200FD25082000001800A3
:1001E000E200FD2D082000002000E200FFE80920C9
:1001F00000002800E200000800C000000D082000F8
:10020000006000E200FFD80F0200FFD810120000CB
:100210000FFF2000005000E200005800F2000045EF
:1002200008200000400A224000580A220000350839
:10023000340000300A224000500A2200003800E258
:1002400000004800F200FFD80D0200FFD80E120097
:10025000001000C0000015082000008800E200FF28
:10026000D8160200FFD81712000017FF2000005018
:1002700000E200005800F200007D08200000781124
:1002800022400058112200006D083400006811223D
:10029000400050112200007000E200008000F200D7
:1002A000FFD8140200FFD81512000020182000000B
:1002B0009000E2000018192000009800E200008879
:1002C0001A200000A000E200000000000000601BF7
:1002D000200000A800E2000000000000009800C01C
:1002E00000009D08200000D000E200FFD82102009D
:1002F000FFD8221200009FFF2000005000E2000003
:100300005800F20000C508200000C01C2240005820
:100310001C220000B508340000B01C224000501C14
:10032000220000B800E20000C800F200FFD81F025F
:1003300000FFD8201200009000C0000095082000A7
:1003400000F800E200FFD8280200FFD829120000C0
:1003500097FF2000005000E200005800F20000ED7E
:1003600008200000E8232240005823220000DD0876
:10037000340000D8232240005023220000E000E295
:100380000000F000F200FFD8260200FFD82712007C
:1003900000D02A2000010000E20000000000000060
:1003A000F82B2000010800E2000000000000FFE838
:1003B0002C2000014800E20000AD082000012000D0
:1003C000E20000A5082000013000E200010508203D
:1003D00000012800E200010D082000013800E200C1
:1003E000FFF508200001A000E200014508200001FF
:1003F0004D0822480000000000FFED08202601A063
:1004000000E2000165082000FFED132248014508C5
:1004100020000185082025018800E20001750820E0
:1004200000FFED1322480145082000019508202512
:10043000019800E20001AD0820000000000000016A
:10044000B800F00001BD082000FFED13224801A50F
:10045000082000FFF508202501A000E20001450862
:100460002000014800E2250155082000016508220E
:100470004001B000E200016508200001B51422002F
:10048000016800E200018800C0000007FFA0000131
:100490006800C00000000000000127FF208001105C
:1004A00000E2000137FF4080011800E400FFED0882
:1004B0002000FFEFFF2240017800E200019800C019
:1004C000000007FFA000017800C00000000000004D
:1004D0000127FF20800115082200011000E2000121
:1004E00037FF4080011D084400011800E400015559
:1004F00008200001A508224000000000000158006B
:10050000F000000000000000A82D200000A02D2217
:100510000001D000E20001F831200001F032220099
:1005200001E031340001D832220001D02E22000136
:10053000C82F220001C030220001E800E2000200C2
:1005400000F20001003320000108332200023000D5
:10055000E2000110342000026000E20001183420A3
:100560000002D800E2000210382000020839220000
:1005700001E835220001E036220001D837220002CE
:100580001800E20002403D200002383E2200023006
:100590003A220002283B220002203C2200024800AE
:1005A000E2000288422000028043220002704234AE
:1005B00000026843220002603F22000258402200ED
:1005C0000250412200027800E200029000F2000294
:1005D000B847200002B048220002A0473400029829
:1005E0004822000278442200027045220002684638
:1005F000220002A800E20002C000F2000300422034
:100600000002F843220002E842340002E0432200E4
:1006100002D83F220002D040220002C8412200023C
:10062000F000E200030800F2000330472000032836
:100630004822000318473400031048220002F04407
:10064000220002E845220002E0462200032000E2E8
:1006500000033800F20003484C200003404D220004
:10066000021849220002104A220002084B2200030D
:100670005000E2000360512000035852220002485B
:100680004E220002404F2200023850220003680030
:10069000E20003550820000000000000038000F085
:1006A00000038508400003550820000000000000FA
:1006B000037800F000037D0820080000000000031C
:1006C00085082023038000E2000005082008FFF5CC
:1006D000082000FFED082026038800E200038800C0
:1006E000C00003850840000397FF200800000000B9
:1006F000000385082023039800E2000000000000AA
:10070000038000E200037000E200036D0820000097
:100710000000000003A800F000FFE8553048FFED9E
:1007200004200003B053202703B800E200FFE85480
:100730002248FFF5082000FFED08202703A000E273
:10074000000375082000000000000003C800F0004E
:10075000FFE8583048FFED04200003D0562027035F
:10076000D800E200FFE8572248FFF5082000FFED1F
:1007700008202703C000E20003A5082000FFD85985
:10078000020003E000E2007FC05C20007FC05B3419
:10079000007FC85A2200FFD85B0200FFD85C12001D
:1007A00002A85B200003E800E2007FD05F20007F0A
:1007B000D05E34007FD85D2200FFD85E0200FFD8F3
:1007C0005F120003205E200003F000E20003C50872
:1007D0002000FFD860020003F800E2007FE0632001
:1007E000007FE06234007FE8612200FFD8620200EF
:1007F000FFD863120003E8622000040000E2007FDB
:10080000F06620007FF06534007FF8642200FFD896
:10081000650200FFD866120003F06520000408009E
:10082000E2000405082000040D082200041000E284
:10083000000405082000040D082200041800E2004E
:100840000408672000042000E2000000000000040B
:100850000000C0000405082000044800E200FFD8A2
:100860006D0200FFD86E12000407FF200000500048
:10087000E200005800F200043D082000043868221D
:10088000400058682200042D0834000428682240E3
:100890000050682200043000E200044000F200FF33
:1008A000D86B0200FFD86C120004106F2000048087
:1008B00000E2000000000000041870200004500056
:1008C000E20000000000000448712000045800E22B
:1008D0000000000000000405082000040D082200AC
:1008E000046000E2000405082000040D0822400412
:1008F0006800E20004A875200004A076220004909D
:100900007534000488762200048072220004787313
:1009100022000470742200049800E20004B000F287
:100920000004D87A200004D07B220004C07A34006E
:1009300004B87B22000498772200049078220004F7
:100940008879220004C800E20004E000F2000508F3
:100950007F2000050080220004F07F340004E8803E
:10096000220004C87C220004C07D220004B87E223C
:100970000004F800E200051000F20004508120009D
:10098000051800E200000000000004688220000654
:100990009800E20000000000000460832000068050
:1009A00000E2000000000000FFE8AF400004F80093
:1009B000C00004FFFF2000057800E200058000F27F
:1009C0000004FD0C200005A000E20005A000C0000E
:1009D00005A7FF200005A000E20005AD08200005E6
:1009E000A8AC224005A0AC220805B000E200053505
:1009F0000820000530AC22400580AC220005250807
:100A000034000520AC22400578AC2200052800E225
:100A100000FFF5084200053800F20005B508200087
:100A2000FFF5088200FFF5088423FFED0A2000008F
:100A30000000000005B800F60005BD08220005888A
:100A400000E200058800F623055508200805580037
:100A5000E2000545082000FFE8AE2267054800E2F5
:100A600000058D082248058D082000054800E22772
:100A7000FFE8AD2000055800E227055D082008FFCB
:100A8000FD082240055800E226054D1A2000059079
:100A900000E200059800F200059000C00000000090
:100AA00000000000000000000085A100FFE5082014
:100AB00000000084A100FFE5082240056000E2007C
:100AC000059800C0000567FF2000FFE5082200052B
:100AD0007000E200057000C00004FFFF200005D098
:100AE00000E20005F8B3200005F0B4220005E0B3F1
:100AF000340005D8B4220005D0B0220005C8B122C8
:100B00000005C0B2220005E800E200060000F20085
:100B10000628B820000620B922000610B8340006C6
:100B200008B9220005E8B5220005E0B6220005D884
:100B3000B72200061800E200063000F2000658BD99
:100B400020000650BE22000640BD34000638BE22FA
:100B5000000618BA22000610BB22000608BC2200BC
:100B6000064800E200066000F2000648BF200006CA
:100B70006800E200000000000006C0C3200006B8C4
:100B8000C4220006A8C3340006A0C422000680C008
:100B900022000678C122000670C2220006B000E2E0
:100BA0000006C800F20006F0C3200006E8C42200D8
:100BB00006D8C3340006D0C422000698C02200061E
:100BC00090C122000688C2220006E000E20006F87A
:100BD00000F200FFE8F0400006E000C00006E7FF7A
:100BE0002000075800E200076000F20006E50C2034
:100BF00000078000E200078000C0000787FF200098
:100C0000078000E200078D0820000788ED224007DA
:100C100080ED2208079000E2000715082000071069
:100C2000ED22400760ED220007050834000700EDC3
:100C300022400758ED2200070800E200FFF50842B5
:100C400000071800F2000795082000FFF508820051
:100C5000FFF5088423FFED0A2000000000000007D4
:100C60009800F600079D082200076800E200076868
:100C700000F6230735082008073800E2000725089A
:100C80002000FFE8EF2267072800E200076D082236
:100C900048076D082000072800E227FFE8EE200043
:100CA000073800E227073D082008FFFD082240071B
:100CB0003800E226072D1A2000077000E2000778AE
:100CC00000F200077000C0000000000000000000FB
:100CD00000000000C6A100FFE50820000000C5A13B
:100CE00000FFE5082240074000E200077800C0004E
:100CF0000747FF2000FFE5082200075000E2000739
:100D00005000C00006E7FF2000087800E200FFE97D
:100D10001C400006B000C00006B7FF200007F80026
:100D2000E200080000F20006B50C2000082000E2F6
:100D300000082000C0000827FF2000082000E20073
:100D4000082D082000082919224008211922080826
:100D50003000E20007B508200007B1192240080161
:100D600019220007A508340007A119224007F91924
:100D7000220007A800E200FFF508420007B800F2D1
:100D8000000835082000FFF5088200FFF5088423DD
:100D9000FFED0A20000000000000083800F60008FF
:100DA0003D082200080800E200080800F62307D5E5
:100DB00008200807D800E20007C5082000FFE91B4B
:100DC000226707C800E200080D082248080D082025
:100DD0000007C800E227FFE91A200007D800E22731
:100DE00007DD082008FFFD08224007D800E226079B
:100DF000CD1A2000081000E200081800F2000810C8
:100E000000C000000000000000000000000000F230
:100E1000A100FFE50820000000F1A100FFE5082285
:100E20004007E000E200081800C00007E7FF2000CC
:100E3000FFE508220007F000E20007F000C000060E
:100E4000B7FF200009B000E200066800C000066D90
:100E5000082000086000E200FFD9220200FFD92329
:100E60001200066FFF2000005000E200005800F260
:100E700000085508200008511D224000591D22007D
:100E8000084508340008411D224000511D22000879
:100E90004800E200085800F200FFD9200200FFD904
:100EA00021120008A127200008992822000889277C
:100EB00034000881282200087924220008712522A4
:100EC000000869262200089000E20008A800F2004D
:100ED00008D12C200008C92D220008B92C340008A4
:100EE000B12D2200089129220008892A22000881B8
:100EF0002B220008C000E20008D800F200090131EE
:100F0000200008F932220008E931340008E13222D9
:100F10000008C12E220008B92F220008B13022009B
:100F200008F000E200090800F2000931362000094B
:100F3000293722000919363400091137220008F137
:100F400033220008E934220008E13522000920009C
:100F5000E200093800F20009613B200009593C22F7
:100F60000009493B340009413C2200092138220094
:100F7000091939220009113A2200095000E200093A
:100F80006800F20009914020000989412200097996
:100F9000403400097141220009513D220009493EB7
:100FA000220009413F2200098000E200099800F276
:100FB0000009D945200009D146220009C145340065
:100FC00009B946220009B142220009A943220009B9
:100FD000A144220009C800E20009E000F2000A0969
:100FE0004A20000A014B220009F14A340009E94B6A
:100FF000220009C947220009C148220009B9492233
:101000000009F800E2000A1000F2000A394F20003F
:101010000A315022000A214F34000A1950220009D7
:10102000F94C220009F14D220009E94E22000A285C
:1010300000E2000A4000F2000A695420000A6155EB
:1010400022000A515434000A495522000A2951222B
:10105000000A215222000A195322000A5800E20015
:101060000A7000F2000A995920000A915A22000AD7
:10107000815934000A795A22000A595622000A512D
:101080005722000A495822000A8800E2000AA000FC
:10109000F2000AC95E20000AC15F22000AB15E3474
:1010A000000AA95F22000A895B22000A815C2200F3
:1010B0000A795D22000AB800E2000AD000F2000AB4
:1010C000B96020000AD800E2000000000000098199
:1010D0006120000AE000E20000000000000ADD08D4
:1010E00020000AE50822000AE800E2000ADD0820E4
:1010F000000AE50822400AF000E2000AF16220003E
:101100000AF800E20000000000000AE96320000B7A
:101110000000E200000000000006696420000519DC
:101120006522000B0800E2000861642000051965D3
:1011300022000B1000E2000AF96420000459652225
:10114000000B1800E2000B0164200004216522005E
:101150000B2000E2000B0800C0000B0D0820000B64
:101160004800E200FFD96B0200FFD96C12000B0FA0
:10117000FF2000005000E200005800F2000B3D0884
:1011800020000B3966224000596622000B2D0834DE
:10119000000B2966224000516622000B3000E2005D
:1011A0000B4000F200FFD9690200FFD96A12000B60
:1011B0001000C0000B150820000B7000E200FFD9E2
:1011C000720200FFD97312000B17FF2000005000BD
:1011D000E200005800F2000B650820000B616D2250
:1011E0004000596D22000B550834000B516D224010
:1011F00000516D22000B5800E2000B6800F200FF66
:10120000D9700200FFD97112000B197420000B78FD
:1012100000E2000B217520000B8000E2000B7176CC
:1012200020000B8800E2000B497720000B9000E2C1
:10123000000B7800C0000B7D0820000BB800E20016
:10124000FFD97D0200FFD97E12000B7FFF20000036
:101250005000E200005800F2000BAD0820000BA97E
:1012600078224000597822000B9D0834000B9978B1
:10127000224000517822000BA000E2000BB000F2E7
:1012800000FFD97B0200FFD97C12000B8000C00058
:101290000B850820000BE000E200FFD9840200FF6C
:1012A000D98512000B87FF2000005000E200005893
:1012B00000F2000BD50820000BD17F224000597F9F
:1012C00022000BC50834000BC17F224000517F2251
:1012D000000BC800E2000BD800F200FFD982020028
:1012E000FFD98312000BE18620000BE800E2000B1F
:1012F000B98720000BF000E2000B95082000FDB03C
:1013000000E2000B8D082000FDB800E2000BED08A4
:101310002000FD6800E2000BF5082000FD6000E2FF
:10132000000000000000FE3000000000000000008F
:10133000FEC00F00000000000000000000000FF8D9
:10134000000000000000000000000000000000009D
:10135000000000000000000000000000000000008D
:10136000018CCCCD00004EB0000001E00000071C55
:10137000000000000000000000000000000000006D
:1013800000004EB0000001E00000071C000000005B
:101390000000000000000000000000000F800000BE
:1013A0000F800000020000000200000000004EB0AC
:1013B000000001E00000071C000000000000000029
:1013C000000000000000000000004EB0000001E03E
:1013D0000000071C000000000000000000000000EA
:1013E0000000000000D9999A00D9999A00000001E4
:1013F000004000000016BE7E0FD283600016BE7E45
:1014000000FFCA8D0F80336E004000000000000016
:10141000007E960E0F02D3E5007E960E00FD281C7E
:101420000F82CFE5007E960E0F02D3E5007E960E6A
:1014300000FD281C0F82CFE5008000000F45DB591E
:1014400000497ADC00BA24A70FB68524008000008A
:101450000F04BD12007B58FB00FB42EE0F84A70572
:1014600000007DEF0000FBDD00007DEF00E408825E
:101470000F99FFC30001C80D0003901A0001C80DA9
:1014800000C9FFFD0FAEDFCF007FFE1B000003474A
:101490000000126D007FFE1B0000034700000A5D84
:1014A00000000000000003470000000000000000F2
:1014B00000000347000000000000000000000000E2
:1014C000008000000000000000000000008000001C
:1014D0000000000000000000002CCCCD00004EB049
:1014E000000001E00000071C0000000000000000F8
:1014F000000000000000000000400000004000006C
:10150000002CCCCD0001D8340003B0680001D834E1
:1015100000D127AC0FA777830001D8340003B0684F
:101520000001D83400D127AC0FA7778300808B50FF
:101530000F01E1F3007D984F00FE1E0D0F81DC606E
:10154000002AE1480080000000800000014AF26D9E
:10155000014AF26D0159D08B016959BA017995811F
:10156000018A8C11019C45A101AECB1701B6B0FDDB
:1015700001B404A901B15C8101AEB87E01AC189937
:1015800001A97CCC01A6E51101A4516201A1C1B75A
:10159000018E88420171481A01562D87013D103392
:1015A0000125CAC601103A9900FC3F9600E9BBFE2E
:1015B00000CC948900ACB06B0091C4F9007B0BCDDA
:1015C0000067DD710057AC89004A01C2003E7864B3
:1015D0000034BB6800254986001A5DB40012A4C31C
:1015E000000D2EDA000952610006976D0005723277
:1015F000000000000000013D000051EC007FDB67AF
:101600000F00DC76007F491200FF22F60F80DAF22D
:10161000007DA8BD0F0B38F10077A4C600F4C70FFA
:101620000F8AB27D007DD9270F10CCA000736A9F6E
:1016300000EF33600F8EBC3A008000000074AE7E75
:101640000F16A3050074AE7E00E85C560F95A260ED
:1016500001AA004A01AA004A01FBB0C4025D0B6363
:1016600002D11122035B568B04001F9D04C4820823
:10167000048BBDFA0445FC2C040468AF03C6C37A8E
:10168000038CD03C0356565A0323205202A5071A56
:10169000022CFD4A01CA3BE20178FCF2013625B07A
:1016A00000FF285000D1EAE200ACB2DD008DE81561
:1016B000006B34480050D7DA003CF6D4002DF92CEA
:1016C0000022AB2F001A24D00013B714000EDE0640
:1016D000000B3623000874620005FA7300043A31E7
:1016E0000002FD3A00021D1800017E9D00010E8CD3
:1016F000000572320000000000000316000051ECEB
:10170000014AF26D014AF26D0159D08B016959BA53
:1017100001799581018A8C11019C45A101AECB17FD
:1017200001B6B0FD01B404A901B15C8101AEB87E7F
:1017300001AC189901A97CCC01A6E51101A4516264
:1017400001A1C1B7018E88420171481A01562D8747
:10175000013D10330125CAC601103A9900FC3F969D
:1017600000E9BBFE00CC948900ACB06B0091C4F9D9
:10177000007B0BCD0067DD710057AC89004A01C2C8
:10178000003E78640034BB6800254986001A5DB4C9
:101790000012A4C3000D2EDA000952610006976DF5
:1017A00000057232000000000000013D000051EC15
:1017B00000004EB0000001E00000071C0000000027
:1017C000000000000000000000000000005679BD8D
:1017D0000F530C86005679BD00A9A46B0FCFBD78BE
:1017E000006070160F8A441E002B435E00AAD5AF1E
:1017F0000FBF32BF00A14E0B00000000001BC4B39E
:10180000000000000FC2ED420076BCEF0F9AFC4EC4
:10181000002F3243006503B20FDA10CE007CF27F56
:101820000F55D90D00655DFB00AA26F30F9DAF850E
:1018300000789D8C0F3875F0005F5D4700C78A10F7
:101840000FA8052D00666D8B0F3324EA00666D8BA3
:1018500000C8EFC50FAF399900666D8B0F3324EACE
:1018600000666D8B00C8EFC50FAF399900A14E0B14
:1018700000000000001BC4B3000000000FC2ED42D6
:101880000076BCEF0F9AFC4E002F3243006503B286
:101890000FDA10CE007CF27F0F55D90D00655DFB8D
:1018A00000AA26F30F9DAF85006070160F8A441EB4
:1018B000002B435E00AAD5AF0FBF32BF004000002F
:1018C00000400000004000000059999A008000008C
:1018D0000000000000004EB0000001E00000071C06
:1018E00000000000000000000000000000000000F8
:1018F00000004EB0000001E00000071C00000000E6
:101900000000000000000000000000000080000057
:1019100000800000008000000080000000004EB049
:10192000000001E00000071C0000000000000000B3
:10193000000000000000000000004EB0000001E0C8
:101940000000071C00000000000000000000000074
:101950000000000000800000008000002DE9F14F31
:10196000B0B0924604910DF142013A9A2B919946FA
:101970004A7000200AE01AF8011B0498309A904738
:101980000028049000F0A6860D98401C0D909AF84F
:10199000000050B12528EED10021002207910892C5
:1019A00009910A920B910C9204E00D9800F094BEFC
:1019B00041F001011AF8010F2028F9D023280CD09A
:1019C0002B2804D02D2805D0302809D00BE041F079
:1019D0000201EFE741F00401ECE741F00801E9E71B
:1019E00041F01001E6E72A280FD1D9F8002052F87B
:1019F000040BC9F8002000280F9003D540420F9037
:101A000041F004010AF1010A14E00F92DFF82438D2
:101A10000AE00F98984205DA00EB800402EB4402DA
:101A2000303A0F920AF1010A9AF80020A2F1300030
:101A30000A28EED39AF800002E2803D04FF0FF3288
:101A40000E9229E01AF8010F2A2809D1D9F80000CE
:101A500050F8042BC9F800000E920AF1010A1BE0AD
:101A60002D280CBF0AF1010A002000220E92DFF897
:101A7000C4470BE040B90E9AA24205DA02EB820598
:101A800003EB4503303B0E930AF1010A9AF800304C
:101A9000A3F130020A2AEDD3ADF84010DFF8980721
:101AA000784400F294709AF8001000F047FF08B1F3
:101AB0001AF8010B8DF842009DF84200682805D104
:101AC0009AF8000068280CD1622106E06C2804BF57
:101AD0009AF800006C2804D171218DF842100AF1A7
:101AE000010A12A806901AF801BBBBF125012CD0FF
:101AF0001C3900F0CF81091F022940F2CB81133934
:101B000000F01385093900F0C581891E00F0A88511
:101B1000491E00F05585491E022940F2BB81091F6C
:101B200000F04E85491F00F02881491E00F0FD8419
:101B3000491E00F0D080C91E0DD0891E00F0F5842A
:101B4000C91E00F0F28400F096BD25238DF84830C0
:101B5000012100F09BBDD9F8000050F8044BC9F8F2
:101B60000000002C059440F0A3802B9948780028B1
:101B700000F099804FF0FF340FF6643000F0F6FE6D
:101B8000201A40F0A78500F082BD6D1E40F09985B7
:101B90003096079D12AF75B1309E17F8012B02A940
:101BA000304600F063FE002801D46D1EF5D10028F8
:101BB000309640F08F850A9D3020002D8DF804006E
:101BC0000CDD309E012301AA02A9304600F05EFE22
:101BD000002840F07F856D1EF4D13096059F089D4A
:101BE00075B1309E17F8012B02A9304600F03EFE79
:101BF000002801D46D1EF5D10028309640F06A858A
:101C00000B9D3020002D8DF804000CDD309E01234B
:101C100001AA02A9304600F039FE002840F05A859A
:101C20006D1EF4D1309605980899099D471875B135
:101C3000309E17F8012B02A9304600F017FE00284D
:101C400001D46D1EF5D10028309640F043850C9DDF
:101C50003020002D8DF804000CDD309E012301AAF8
:101C600002A9304600F012FE002840F033856D1EB8
:101C7000F4D130969DF8400041077FF588AE2020D2
:101C8000002C8DF804007FF782AE309D012301AA5D
:101C900002A9284600F0FAFD002840F01B85641ECA
:101CA000F4D1309573E60FF64440059000F0EFBC98
:101CB0000E9D002D04D5204600F078FE044607E076
:101CC0002A46204600F07CFE002814BF041B2C4648
:101CD000089400F0DCBCD9F8001051F8040BC9F8E6
:101CE000001020F00004002121F0FF3512ABCDE9F7
:101CF00002450593DDE9022306993C2413B90AB98C
:101D00000E9898B102F00F053035641EEEB23A2EEF
:101D1000A8BF2735120942EA03721B090D5508BFF7
:101D2000002A03D005980D19A842EBD30819059095
:101D3000C4F13C020E98089282420ADABDF84010C3
:101D4000821A4FF6EF7001400A92ADF8401000F091
:101D50009EBC002840F19B849DF8400000F01400D8
:101D6000102840F094840F9B07990A985B1A1B1A5D
:101D70009A1A002A40F38B84D5E32B99487820B136
:101D80004FF0FF340FF63430F8E69DF84200622839
:101D900061D0682817D06A283FD06C2806D07128F7
:101DA00047D074282CD07A281DD064E0D9F80010D0
:101DB00051F8040BC9F80010002868D14FF0FF3427
:101DC0000FF61030DAE6D9F8001051F8040BC9F814
:101DD000001020B94FF0FF340FF6F820CEE60D9931
:101DE000018000F054BCD9F8001051F8040BC9F878
:101DF000001000284BD14FF0FF340FF6D820BDE67D
:101E0000D9F8001051F8040BC9F8001000283ED191
:101E10004FF0FF340FF6BC20B0E6D9F8001051F8AF
:101E2000040BC9F8001080B94FF0FF340FF6A4205E
:101E3000A4E6D9F8001051F8040BC9F8001020B935
:101E40004FF0FF340FF68C2098E60D9AD317C0E9B7
:101E5000002300F01CBCD9F8001051F8040BC9F89D
:101E6000001020B94FF0FF340FF6682086E60D9978
:101E7000017000F00CBCD9F8001051F8040BC9F83F
:101E8000001020B94FF0FF340FF6482076E60D9988
:101E90000160FCE3D9F80020D21D22F00702C9F846
:101EA0000020D2E900010832C9F80020CDE9020182
:101EB000C80F02D007982D210AE0BDF84000810725
:101EC00002D507982B2103E0C00705D507982021EC
:101ED00012AA1154401C079012A807994BF0200237
:101EE0004318DDE90201CDE92C01612A059321ACFB
:101EF0000BD00E98002802D506200E9005E001BFF9
:101F00004BF02000672801210E91DDE90201480015
:101F10004015401C0A460DD109030BD0ABF16105F9
:101F200003201A2D089002D20FF6C4110DE00FF60F
:101F3000C4110AE070B912030CD1ABF161050320A2
:101F40001A2D08901AD30FF6B4110322184600F088
:101F500063FD9CE3DDE90201CDE92E01DDE92E23DD
:101F600023F00047B7F5801F22F000060DD20022B3
:101F7000002F08BF002E009203D116E00FF6781153
:101F8000E3E76A4600F0A0FD0FE0DFF8C008DFF8E5
:101F9000C01800EB17500090DDE92E234FF0FF3002
:101FA0001940DFF8B07810403943CDE902014BF019
:101FB000200061280DD1059830210170821CBBF1F1
:101FC000610F05920CBF7821582141700798801C41
:101FD0000790DDE9020120F0000231F0004308BF64
:101FE000002A02D10026002568E14BF02008B8F154
:101FF000610F40F0B4800E98002847BF2121019165
:10200000401C0190019FDDE92C017F1C0022002370
:10201000DDE9024500F090FD00998DF8842038BF7D
:1020200085F00045091F002F00910DF1850653DD55
:10203000204629460022002300F096FD4CD248009D
:10204000400D00F11C0312D0002B10DD40F2FF7098
:10205000834206DBDFF8001805F000421143002040
:1020600011E06FF31E5141EA035120460BE024F0CA
:10207000000035F0004108BF00280FBF29461C2290
:10208000294600F089FD04460D4600F023FEFF1F9F
:10209000002F804609DD00F03BFE02460B4620463D
:1020A000294600F047FE04460D46F01D0721B8F111
:1020B000000F0CDD491E5EBF08F00F0200F8012D75
:1020C0004FEA2818F3D502E0002200F8012D491E3E
:1020D000FAD5C61D002FABDC0DF18500361A01982C
:1020E0008642D8BF304600280DF1850430D4B04276
:1020F00006DA0DF185010A5C082AA8BF0F2100DA73
:102100000021024621AB134400E0401E13F80159A0
:10211000521E8D42F9D00F2904D10DF185018B5C3F
:102120005B1C8B54002A04D50099091D21AC401C6E
:102130000091411E0CD46218ABF13A06137830338B
:10214000DDB23A2DA8BFF318491E02F80139F5D5C2
:102150000E99002940F1B080421E0E92ACE0009929
:10216000DFF8F82647F29750414391FBF2F2DDE9A0
:102170002C45009225F00045D2F1070204DD2046EF
:10218000294600F040FB0BE052420020DFF8D01659
:1021900000F039FB02460B462046294600F03CFE83
:1021A0000446B8F1660F0E9806BF009F0A3706274F
:1021B0003F18142FC8BF142730200D468DF8840017
:1021C0000DF18506002F39DD2046294600F048FF35
:1021D00001460A4606F1080304200A26B2FBF6F679
:1021E00006EB860EA2EB4E02303203F8012C0A22D7
:1021F000B6FBF2F202EB820EA6EB4E063036401E24
:1022000003F8026DE9D1083F002F03F10806D9DD7C
:10221000084600F039FF02460B462046294600F0EA
:1022200089FD0022DFF83C3600F03CFF04460D46F5
:10223000CAE700BFCBCCCC0C30BF00000DF185004D
:10224000361A0DF1850404E00098401E761E0090B9
:10225000641C20783028F7D0B8F1660F02D10099BD
:10226000491C04E0B8F1650F0CBF012100210E9854
:1022700008188642B8BF701E00281DD4B04204DA88
:10228000215C3429C8BF392100DC30210246631E9D
:102290009D1800E0401E15F80169521E8E42F9D0CB
:1022A000392902D1A15C491CA154002A04D5009906
:1022B000491C1C46401C00910646009D0E9F30B2F2
:1022C000002802DC01260FF238644BF0200066285B
:1022D00008BF6D1C15D067280FFA85F841D118F199
:1022E000040F44DBB84542DA9DF840006D1C01073D
:1022F00003D430B2B842B8BF074628B23F1A48BF2D
:1023000000270FFA85F8B8F1000F00F3AF800898A6
:10231000411C0891302205990A54002F03DC9DF8D6
:102320004000010705D50898411C08912E22059907
:102330000A5417EB080FB8BF7D4228B2C51932B254
:10234000414295420B91B8BF2E46059B089836B284
:10235000099632462146184400F05EFBAD1B0C95F1
:10236000CCE0BBF1610F15D14FF0700B17E030B22C
:10237000B84204DA9DF840100A0758BF07467F1E8E
:1023800048BF0027BBF1670F14BF4FF0450B4FF05C
:10239000650B04E0BBF1410F08BF4FF0500B0898EC
:1023A000411C0891002F059914F8012B0A5403DCF5
:1023B0009DF84000010719D50898411C08912E226C
:1023C00005990A54002F11DD761E30B28742059818
:1023D000089BB8BF3E4632B22146184400F01CFBB1
:1023E000089836B23018BF1B08900B9705980899CB
:1023F0000844B8F1000F80F800B003D42B224270DB
:10240000821C04E02D2145464170821C6D42002152
:102410002CAB28460AE004460A2094FBF0F000EBBF
:102420008005A4EB450403F8014B491C00B20028C9
:10243000F1DC012906DC4BF02000652804BF3020C8
:1024400002F8010B00292CAB08D1302002F8010B57
:1024500006E0491E585C303002F8010B0029F8DC18
:10246000059908980844121A099247E030B229B237
:1024700088421BDA0598089B32B22146184400F0C6
:10248000CBFA089936B27118A8EB0606002F08910E
:102490000B9603DC9DF84000020705D5059A2E2017
:1024A00050540999491C09910C9727E00598089BFD
:1024B0002AB22146184400F0AFFA0898761B40442F
:1024C000002F089003DC9DF840100A0704D5411C3A
:1024D00008912E2205990A5430B287420598089B2C
:1024E000B8BF3E4632B204EB0801184400F094FA3B
:1024F000089836B23018BE1B08900B969DF8400025
:1025000000F01400102840F0C280079A08990B9838
:102510008A18099982180C988A1882180F98824292
:1025200080F2B580821A0A92B1E09DF842006228DA
:1025300008D068280ED06A2814D06C281FD07128C3
:1025400010D01CE0D9F8001051F8040BC9F80010A5
:10255000C0B21AE0D9F8001051F8040BC9F8001005
:1025600080B212E0D9F80020D21D22F00702C9F88B
:102570000020D2E900010832C9F8002006E0D9F8AD
:10258000001051F8040BC9F800100021CDE9020138
:102590009DF8400001075AD5DDE90223002B08BF52
:1025A000002A54D04BF02000782850D1079812A967
:1025B00030220A54401C431C079301F800B046E047
:1025C0009DF84200622808D068280ED06A2814D0EE
:1025D0006C281FD0712810D01CE0D9F8001051F8D9
:1025E000040BC9F8001040B21AE0D9F8001051F8F5
:1025F000040BC9F8001000B212E0D9F80020D21D77
:1026000022F00702C9F80020D2E900010832C9F817
:10261000002006E0D9F8001051F8040BC9F80010AA
:10262000C117CDE90201002902D507982D210AE042
:10263000BDF84000810702D507982B2103E0C007B1
:1026400005D50798202112AA1154401C079012A802
:1026500007990144059102A8594600F04FF816E089
:1026600001200790D9F8000050F8041BC9F80000B9
:102670008DF848100BE025210122BBF1000F8DF8E9
:102680004810079203D08DF849B0022107910F9AA4
:1026900007980A990C9C121A0898521A0B99121A48
:1026A0000998521A121A9DF84000141B41073FF571
:1026B00070AA2020002C8DF804007FF76AAA309EB3
:1026C0002546012301AA02A9304600F0DFF80028C0
:1026D0003FF45BAA4FF0FF3031B0BDE8F08F00004F
:1026E0007072696E74665F733A206261642025734C
:1026F00020617267756D656E740000002DE9FC4302
:1027000007466F293E6908BF082405D041F0200024
:10271000782814BF0A2410243C25D7E90023642913
:1027200018BF69299046994605D1002B03D5D8F1E9
:10273000000869EB4909B9F1000F08BFB8F1000FB3
:102740000CD1386B50B9082C39D197F838000107F3
:1027500035D530203B2586F83B0030E08DF8001061
:10276000404649462246E31700F06EFD3032D0B2B3
:102770006D1E3A28019504DB9DF80000A0F151017F
:102780008A187255404649462246E31700F05CFD20
:1027900080465FEA010908BFB8F1000F03D0F8686E
:1027A00071198842DCD3082C09D197F83800010749
:1027B00005D5705D302802D06D1E30207055C5F1F2
:1027C0003C02BA617119F960386B824208DA821AE8
:1027D0003A624FF6EF70398F01403987BDE8F383D5
:1027E00000280ED597F8380000F01400102808D102
:1027F0007B6B7969386A5B1A1B1A9A1A002AC8BF60
:102800003A62BDE8F3832DE9D04306460F461446ED
:102810004FF00008DFF8509012E0E00707D542467D
:102820004B463046394600F03DFC06460F464046D2
:10283000494642464B4600F035FC641080468946C6
:10284000002CEAD130463946BDE8D08302FCFFFFB8
:10285000FFFF0F800000E03F0000F07FA086010036
:102860000000F03F84D797410000244010B5034694
:102870000C461146A0689847A06020B1E06A401C51
:10288000E062002010BD4FF0FF3010BDF8B50546E6
:102890000E4617461C4600205CB117F8011BB068B5
:1028A000A847B06030B1F06A401CF0620020641E9E
:1028B000F3D1F2BD4FF0FF30F2BD00007072696ECF
:1028C00074665F733A20256E20646973616C6C6F67
:1028D000776564007072696E74663A206261642084
:1028E000256E20617267756D656E740000000000D2
:1028F0006E616E004E414E00696E6600494E4600A4
:10290000300030B4002513E050F8042BD30744BF47
:10291000A9F101039A18091F042942F8045BFAD2AD
:1029200013468C0744BF15809B1CC90748BF1D7008
:1029300050F8041B0029E7D130BC7047C9B20278B7
:102940008A421AB11CBF10F8012FF9E718BF002006
:1029500070478268521C8260426832B10268531C20
:10296000036011704168491E4160704780B500B92D
:1029700006A005490B681BB122220021984701E0FF
:1029800000F07AFD222002BD081F0020636F6E73E5
:10299000747261696E742068616E646C65723A204D
:1029A000626164206D6573736167650000F1010306
:1029B00010F8011B11B110F8011BFBE7C01A70479A
:1029C000C9B2830706D0521E22D310F8013B9942A8
:1029D000F7D11FE0083A13D302F1040241EA0121C2
:1029E00041EA014150F8043B121F21BF4B40A3F1C3
:1029F000013C2CEA030C1CF0803FF3D0C9B2001F4D
:102A0000083210F8013B521E28BF91EA030FF8D894
:102A100018BF0120401E704762B38B0708D0521EBA
:102A200011F8013B00F8013B00F024808B07F6D140
:102A3000830740F0208000BF103A07D330B4B1E8DC
:102A40003810103AA0E83810F9D230BC530724BF30
:102A5000B1E80810A0E8081044BF51F8043B40F862
:102A6000043BD20724BF31F8022B20F8022B44BFCD
:102A70000B7803707047121F17D35B0009D151F810
:102A8000043B20F8023B1B0C121F20F8023BF6D23D
:102A90000BE051F8043B00F8013B1B0A20F8023B15
:102AA0001B0C121F00F8013BF3D238BF121D521E3F
:102AB00024BF11F8013B00F8013BF8D870470268C9
:102AC000531C03601170704710B5144600F002F8F3
:102AD000226010BDC1F30A5343B14A0012F5001F32
:102AE00028D2A3F2FE32A1EB0251704750EA410C0A
:102AF00020D001F0004C31EA0C01B1FA81F204BFA0
:102B0000B0FA80F3D2180B3AB2F120032CBF00FACE
:102B100003F1914041EA0C013EBFC2F1200C20FAC2
:102B20000CF319439040524240F2FD33D21A01EBAC
:102B300003517047002270474FF4001C1CEB410FFB
:102B400094BF1CEB430F09E041EA030C50EA4C0C24
:102B500052EA0C0C03D2994208BF9042704714BF4E
:102B60008B42824270477F004FF4001C1CEB410FE8
:102B700094BF1CEB430F09E041EA030C50EA4C0CF4
:102B800052EA0C0C03D28B4208BF8242704714BF3A
:102B90009942904270471100124254D440F2FF7C97
:102BA0001CEA11530FD0634531D09B1863453CBFDD
:102BB00001EB0251704701F0004141EA0C51002045
:102BC000AFF30080704750EA410320D001F0004C81
:102BD00091EA0C011CD0B1FA81F30B3B9A420DD95A
:102BE000D21A994051EA0C01C3F1200C20FA0CFCD6
:102BF00061449840531C40F2FF7CD7E7914041EA82
:102C00000C01C2F1200C20FA0CF3194390407047DC
:102C1000B0FA80F31533202BE0D3202AEED3203AEC
:102C2000203B9A4209D9D21A00FA03F141EA0C0179
:102C30000020531C40F2FF7CB8E700FA02F141EAA1
:102C40000C0100207047524240F2FF7C1CEA1153F5
:102C50000DD06345DBD0B2EB030C3CBFA1EB0251BE
:102C600070470CF1010221EA035141F4801150EA4E
:102C7000410CCCD001F0004C352A27DC30B481EA7D
:102C80000C01B2F1200309DAC2F12003044601FA73
:102C900003F5D0402843D1409C400CE0C3F1200212
:102CA000450020FA03F418BF44F0010421FA03F0B0
:102CB00091400C43002174F1004550F1000051EBAC
:102CC0000C01244230BC7FF47BAF7047614600208A
:102CD00076E70E00C1F30A5340F2FE329B1A14DD70
:102CE000D3F120034FEAE17208DDC90241EA5051F5
:102CF00041F00040D84080185040704703F2E13066
:102D000010B1D24382F000407047002070470000AD
:102D1000C11768B14840401AB0FA80F29040D21C06
:102D2000C907C2F5846241EA025202EBD021400594
:102D30007047000070B44FF0004591EA030F40F176
:102D40009F836B40841A71EB030603D2001BB141D1
:102D5000121973414FF4001C1CEB410F34BF7CEB84
:102D6000430442E00C0DA4EB1356352E4FDC45EA2C
:102D7000C323DB0A45EAC121C912B6F120050DDDE6
:102D800063FA05F6EB4086EA0305124218BF45F0E8
:102D90000105C01851F100010CD213E062FA06F5EA
:102DA000F2405540F3415A40B340F3405A40801836
:102DB000594107D349085FEA30005FEA350528BF6B
:102DC00045F0010501F58011420875F1004250F10E
:102DD000000041EB04514E0016F5001F70BC38BFD7
:102DE00070470020090D090570471CEB410F10D2F8
:102DF00052EA43060BD0BCEB410F05D80C0DAB4398
:102E0000661E342EB6DD02E0AB438018594170BC1B
:102E1000704770BC70470000F0B540F2FF7581EA62
:102E2000030C0CF0004C15EA11541DBF15EA1357A2
:102E3000AC42AF42E5E0BC41C1F31301C3F313035D
:102E4000801A994143F4801304D2641E4000494122
:102E500080185941C90241EA5051B1FBF3F603FB16
:102E60001611A2FB0675D7EBC020A94102D2761E2F
:102E700080185941C90241EA5051B1FBF3FE03FBEE
:102E80001E11A2FB0E75D7EBC020A94103D2AEF1F3
:102E9000010E80185941890241EA9051760546EAAF
:102EA0008E2EB1FBF3F603FB1611A2FB0675D7EBD2
:102EB0008020A94102D2761E80185941C90241EAF8
:102EC00050514EEA060EB1FBF3F603FB1611A2FBBE
:102ED0000675D7EBC020A94102D2761E8018594151
:102EE000C90241EA5051B1FBF3F703FB1711A2FBF2
:102EF0000735D3EBC020A94167F100070CBF0042A2
:102F000047F0010766F3D5274FEA1E31B80814F5DC
:102F1000806412DDBD0775F1004250EB0E5051EB9D
:102F2000045111F5801F5CBF41EA0C01F0BD4CF06B
:102F30007F6141F0E0410020F0BDBD076D0840EA2F
:102F40000E5041F48011D4F10104B4F120060ADAE4
:102F5000C4F120060200E04001FA06F3E140184304
:102F6000B24015430EE0342C13DCC6F1200445EAD0
:102F700040056D0820FA06F2154321FA06F0A1403B
:102F80000D43002175F1004250F1000051EB0C019E
:102F9000F0BD00205FEA0C01F0BDCFB992185B4193
:102FA000B3FA83F704BFB2FA82F6BF190B3FB7F149
:102FB00020062FBF02FA06F3BB40C7F1200622FA13
:102FC00006F638BF3343BA401CB1E419641E33E738
:102FD0007F4231F00041B1FA81F404BFB0FA80F6CB
:102FE000A4190B3CB4F120062FBF00FA06F1A14052
:102FF000C4F1200620FA06F638BF3143A0403C1B3E
:103000001AE7AC421ABF05EA1357AF4212E050EA82
:1030100041061CBF52EA4306BFE750EA410730466B
:1030200061461CBF41EA0551F0BD52EA430C08BF9E
:10303000C143F0BD00204FF4001616EB410F98BFBE
:1030400016EB430F08BF16EB410F24BFC14305E049
:1030500016EB430F0CBF61464CEA0551F0BD000072
:10306000400D491840EA81200CD2490DA1F580613C
:10307000491C40F0004005DBD1F11F0154BFC8409E
:10308000C017704700207047014648B1B0FA80F180
:103090008840C91CC1F58461090501EBD0214005B8
:1030A00070470000B0B581EA030C0CF0004C40F210
:1030B000FF7515EA11541DBF15EA1357AC42AF4214
:1030C00039E0E41923EA455343F48013C90241F07F
:1030D000004141EA505EC7021100A7FB020200282E
:1030E0004FF00000EEFB01204FF00001E3FB072151
:1030F00018BF42F00102401800214941E3FB0E01D4
:10310000A4F580640F0302D252004041494154F1BA
:1031100001046CDD470872F1004250F1000051EBF0
:103120000451A1F580115CBF41EA0C01B0BD4CEA2D
:1031300005510020B0BD05EA1357AC4214BFAF42A1
:1031400041E050EA410E1CBF52EA430E02E06146E4
:103150000020B0BD24423C441BD15FEA070EF6D0EC
:10316000090302BF01460020AEF1140EB1FA81F747
:10317000AEEB070401FA07FE0C37C7F1200100FA95
:1031800007F7C8404EEA000E23EA455343F4801384
:10319000A2E733F00043B3FA83F704BFB2FA82FE2A
:1031A00077440B3FE41BB7F1200E2FBF02FA0EF35A
:1031B000BB40C7F1200E22FA0EFE38BF43EA0E03D1
:1031C000BA40641C82E750EA410E14BF52EA430E33
:1031D0006FF000014FF4001717EB430F8ABF194639
:1031E00017EB410FB5E74CEA05510020B0BDD4F113
:1031F0000104B4F120070FDAC4F12007520828BFF8
:1032000042F0010210FA07F501FA07F7E1BF2A437D
:10321000E0403843E1400FE0352C98DCC7F1200452
:1032200052EA400220FA07F218BF42F0010231FAD6
:1032300007F0A1400A43002172F1004250F1000062
:1032400051EB0C01B0BD0000BBBBE1B1B2F5803F5A
:1032500080F07E80022A1ED98C46B1FBF2F102FB7F
:1032600011C31B0443EA1043B3FBF2FC02FB1C3303
:1032700080B240EA0343B3FBF2F002FB103240EAB3
:103280000C4000237047022A05D98446B0FBF2F0B7
:1032900002FB10C270474AB105D100F00102490893
:1032A0005FEA3000704700220023704700F09DB9AC
:1032B0000B000200002100207047904271EB030CCC
:1032C000F6D3B3F5803F2FD2F0B5B3FA83F7B1FA56
:1032D00081F4A7F10F0E3D1B5340CEF1200602FAF8
:1032E0000EF2F3415340B5F10F0746D80F3C2C4482
:1032F0004140C4F12006A040F1414140B1FBF3F64A
:1033000003FB1611A2FB0645001BA94102D2761E43
:103310008018594180EA010221FA0EF362FA0EF296
:1033200000215A403046F0BD30B4B1FBF3FC03FB42
:103330001C11A2FB0C45001BA94103D2ACF1010CEE
:103340008018594130BC02460B4660460021704748
:10335000B2F1807F65D3F0B5B2FA82F7B1FA81F4A9
:10336000C7F10F063D1B22FA06F307F1110EF241D9
:1033700020355A40B5F10F07B8D94140C4F12006B5
:10338000A040F1414140B1FBF3FC03FB1C11A2FB47
:103390000C45001BA94103D2BCF1010C8018594116
:1033A0000F2F12D30F3FC90341EA5041B1FBF3F68F
:1033B00003FB1611A2FB0645D4EBC030A94102D293
:1033C000761E8018594146EACC3C07B34140C7F10C
:1033D0002006B840F1414140B1FBF3F603FB161162
:1033E000A2FB0645001BA94102D2761E8018594156
:1033F00080EA010221FA0EF3C7F1200462FA0EF20C
:103400000CFA07F05A402CFA04F13043F0BD80EA80
:10341000010221FA0EF3002162FA0EF260465A40D0
:10342000F0BD8C46B1FBF2F102FB11C31B0243EA73
:103430001063B3FBF2FC02FB1C331B024CEA0020BE
:1034400043EA1063B3FBF2FC02FB1C331B024CEAA1
:10345000002043EA1063B3FBF2FC02FB1C331B02A7
:103460004CEA002043EA1063B3FBF2FC02FB1C327F
:103470004CEA002000237047012000F0B7B800009C
:10348000841A71EB030604D26E40001BB14112197D
:1034900073414FF4001C1CEB410F34BF7CEB43061F
:1034A00083E00C0DA4EB1356362E00F37C80012E26
:1034B00045EAC32341DC43EA525312BFD2029202CF
:1034C0005B08240545EAC12141EA5051D2EBC020F6
:1034D000994125D407D1B0FA80F610FA06F162D0EE
:1034E0000020203608E0B1FA81F6B140C6F1200292
:1034F00020FA02F21143B0404FEAF474B4EB4654A0
:1035000034F001064FEA74040AD8D6F50016760D99
:1035100004F00044F04061FA06F25040F1404840A7
:10352000C00A40EA415021F0004128BF5FEA50053F
:1035300050F1000044EBD12135E0DB0A45EAC1211E
:10354000C90AB6F120050EDD42EA0242120CC5F1AD
:10355000200603FA06F6EB4042EA06056D42984162
:1035600061F100010DE062FA06F5F240554063FAA0
:1035700006FC82EA0C02F3405A406D42904161EB36
:10358000030111F4801F05D1641E620502D06D0095
:103590004041494121F48011430875F1004350F145
:1035A000000041EB045170BC70471CEB410F15D279
:1035B00023F0004352EA43060BD04FEA4C0CBCEB1D
:1035C000410F04D80C0D661E342EB7DDEBE7801AD0
:1035D000994150EA410608BF0021E4E708BF1CEB0F
:1035E000430F28BF6FF00001DDE7704780B5AFF3F0
:1035F0000080024A11001820ABBEFBE72600020043
:10360000E0B51F21142201910092DFF8E43A0FF295
:103610001101842200F0B3FE07BD00F0CDBE000012
:1036200010B50446162100F0DFFE132100F030F83B
:10363000072100F02DF8152100F02AF8102100F0E4
:1036400027F80F2100F024F8142100F021F80020C1
:10365000DFF8A01A2064A16400F0FAFE606420463E
:1036600001F0DAF8032204F1680104F1580001F0D6
:103670004CFB40F6FF71062001F01AFD01F0CEFE72
:10368000082001F082FE0FF25D00A060042010BD52
:10369000204600F0A9BE38B50446088801281FD08E
:1036A000022817D0752804D0842805D08A280CD089
:1036B00014E001F018FF0FE000F0C3FA054600F037
:1036C000CBFA284602280BD106E00FF29550A060F5
:1036D000042032BD00F003FB012032BD00F06AFB84
:1036E00032BD000038B50D4604462888012808D0B0
:1036F000022866D02B2818D075285FD084281CD0CB
:1037000067E0204601F077F84FF4007100F00BFD00
:10371000616C42F6E060086242F21070616C886091
:10372000C82100F09AFA012032BDA889B0F5007FC7
:10373000F9D10021C4F88010F5E700F08DFA294690
:1037400000F07FFA022846D1D4F880000028EAD1A0
:10375000112002F0ADF90028E5D00E2002F0A8F902
:103760000028E0D0072002F0A3F90028DBD000F009
:1037700016F9DFF8981B006888421CBFDFF8902B11
:10378000904216D000F052FA0078012802D10FF2D0
:1037900089610CE000F0B9FC00780128C3D1072052
:1037A00002F0B1F90078032803DA0FF24951A16061
:1037B00002E00FF22500A060042032BD01F093FE6C
:1037C000B1E700F088FA0862626C906000F087FA56
:1037D000A9E700F0EFFA32BD10B5044608880128C9
:1037E00006D0022853D02B2828D075284CD052E080
:1037F00002F0B2FA002100F079FA0220C4F8800049
:10380000082100F090FC94F8850000F05D0040F085
:10381000400084F8850094F8860000F0FE0084F8EB
:10382000860094F8850000F0FE0084F8850094F886
:10383000860040F0020084F886002AE08889082883
:1038400022D194F8850000F0FB00002184F8850067
:1038500084F8841000F0A3F8DFF8B01A00688842FA
:1038600003D10FF20972A2600CE000F098F8DFF8C3
:10387000A01A0068884202D0606C642202650FF2D0
:103880001D01A160042010BD01F02DFE01E000F03B
:1038900026FA012010BDDFF87C0AB9E238B50446EB
:1038A0000888012806D002286ED0162845D02B287B
:1038B00018D06FE00322C4F880204FF4806100F03C
:1038C00032FC00F0C9F9616C4FF4FA60086000F056
:1038D000B4F994F8850000F0EE0040F0020084F89E
:1038E00085004FE08889B0F5806F26D1052002F071
:1038F0000AF90068E063142806D31220E06304F19B
:103900003C01052002F001F9E06B122804D11A21D4
:1039100000F0ECF9122103E0042100F0E7F90421A2
:1039200000F0F6FB00F03BF8DFF8E419006888428D
:1039300028D10D2100F0DAF924E0042002F0B8F8D3
:1039400000B3042002F0DFF80578284600F0EFFF0E
:10395000C0B10020616CE064086F012804DA606C7B
:103960004FF42F7101670DE0022D0BD100F061F9CA
:1039700040B111208DF800000122694604F1580081
:1039800001F0CCF9012032BD00F0A5F9086000F08B
:10399000A6F9F7E7DFF88009A060002032BD132008
:1039A00002F0B1B82DE9FC410D46044628880227F3
:1039B000012847F230584FF0FF362FD0022800F090
:1039C0000A81072864D0102800F07E80142800F0B7
:1039D000968016286ED02B2840D0752800F0F780EE
:1039E000782803D0842800F0A480852800F0C080C7
:1039F000862800F0A480872800F0B180892800F094
:103A0000C3808B2800F0C5808C2800F0C5808D28ED
:103A100000F0C5808E2800F0CC8051E000F07FFBE4
:103A200000F000F903206067A06700F0FFF800785D
:103A3000002814BF002201220621204602F09EFA2F
:103A400000F08CFA606CC0F8588000F080FC6421B3
:103A5000606CC0F8801000F0FBF841E0A8890128F4
:103A600049D1DFF8B828106828B9111D1160101D60
:103A7000214602F0BDFA00F075FA00F0DAF818B944
:103A800000F05FFC00F058FC002100F075FC27E01E
:103A900000F037FB02D100F03EFB21E0606CC0F883
:103AA0005880204602F074FC0228074623D000F01C
:103AB000CBF807E0204602F0F4FC074600F0C4F81B
:103AC000022F18D0384618E0204601F0C9F848B156
:103AD00000F0ACF80078012804D10D2100F006F9BF
:103AE0000127EFE72946204602F0E9FE02280746B3
:103AF000E6D100F037FA00F05DF9BDE8F68194F800
:103B000085000127C1060BD4E06C012808D0606C49
:103B1000D0F89810012903DA94F88500810602D5BF
:103B200000F022FCCEE76868C1B2204600F0F6FF44
:103B3000BDE700F086F8074600F08EF8C0E7616C3C
:103B40000420C4F88000C1F85880002084F8840064
:103B50002946204600F043FF00F076F8C0E7052034
:103B60000021C4F8800084F8841020462946F1E73B
:103B7000606C06654FF49671606C016601F0B3FCF1
:103B800000F0B3F8012180E70FF2E130A0600427D4
:103B900098E700F0F5FEA3E70FF22520F6E7A86806
:103BA00004280CBF0421122100F0B2FA00F04CF8F6
:103BB000A1E76B692A69297BA86802F0C1FEA868A1
:103BC000002898D105F1100101F09FFF93E701F063
:103BD0008AFC012091E700F082F8606C0663616C5A
:103BE0000E64606C8663616C8E67606C8665616C68
:103BF0000E66606CC0F88060616C8E62606CC0F8AC
:103C00008860616C8E61606CC0F8906000F015F89F
:103C100094F8850000F0EE00002184F88500E1644E
:103C2000E1665DE70321204602F09FBF112001F00D
:103C30006ABF04F1580001F060B804F1580001F0C7
:103C400049B8204600F0B5BD2946204600F04DBFDA
:103C500040F6B831606C81626421204600F0AEBB52
:103C600010B50A88012A044604D0022A21D02B2A42
:103C700017D02FE0102100F070FE0722C4F880203A
:103C8000204600F089FF0A2084F884006421606CDB
:103C90000165192100F02AF800F06DFBFFF7DCFF49
:103CA00016E08889102813D1606C4FF47A71816610
:103CB0000EE000F010F88866626C106500F00FF8F6
:103CC000DFF85846206818B102F0A6F900202060FD
:103CD000012010BD9AE0616C4FF0FF30704704F195
:103CE000280003F0DFB8606C06651E21204600F056
:103CF0000ABE00001CB50A88521E04460BD0521E94
:103D000051D0293A0DD04A3A3AD00F3A4DD04F3AD5
:103D1000022A15D94BE0042100F01FFEFFF7DFFF58
:103D200032E08889042840D10621C4F88010182286
:103D3000002103F0C1F80146022003F0F7F923E067
:103D4000002084F8840094F8851094F87C0001F039
:103D5000FB0184F8851000F0FE0084F87C0000214F
:103D60008DF800100C20694601F0CFFE0E2001F006
:103D7000ACFE0020E0660420DFF8A415A16016BDAB
:103D8000D4F88000062802D001F0ADFB0DE001F070
:103D9000AAFB18220021042003F08EF8014602201D
:103DA00003F0C4F901E0FFF79AFF012016BD00F00F
:103DB00001F816BDDFF85C05A06000207047000028
:103DC00010B50A88012A044604D0022A18D0162AFF
:103DD00019D01AE0122100F085FE0221FFF723FF1F
:103DE00000F0C9FA00F088F90020E0661521FFF71D
:103DF0007DFF616C41F288308867FFF72DFF02E09C
:103E0000FFF769FF8867012010BD00BFDFF80805D4
:103E1000A060002010BD000070B50D4604462A8841
:103E2000012A4FF0FF360CD0022A7CD00F2A55D041
:103E3000102A63D02B2A19D0842A2ED0852A6BD041
:103E400087E04FF4005100F088FD032001226067F5
:103E5000A067C4F8802000F081F8616C4FF4FA602C
:103E600088634FF49671FFF7F8FE70E0A889B0F50B
:103E7000005F6CD1162001F046FE0078012804D1C5
:103E800000F043F90078012833D0204600F0CDFE41
:103E900000F068F800F062F859E000F036F90078B8
:103EA00001280DD1204600F0DBFE18B10D21FFF7EF
:103EB0001DFF1EE01B2001F026FE0078012818D00F
:103EC000FFF7B4FE0078002843D1204600F064FEDE
:103ED000FFF709FFDFF84804A0600DE0162001F0AD
:103EE00012FE0078012832D100F00FF90078012885
:103EF0002DD1DFF83014A160042070BD00F0B0FEB9
:103F000028BB2946204602F0DAFC064600F02AF8D3
:103F10003046022821D11AE0FFF7E5FE616C4FF42C
:103F20009670086613E0606C0666616C0E65606CE6
:103F3000866394F87C0094F8851000F0FE0001F090
:103F4000FB0184F87C0084F88510FFF7C8FE01208F
:103F500070BDDFF8C403A060002070BD00212046C2
:103F600002F01EB82946204600F039BDF8B50446D7
:103F70000E4647F230553088012841F6F8714FF06F
:103F8000FF3713D0022800F0A280072850D00F2856
:103F90007BD02B2821D0862868D087286DD0882810
:103FA00000F080808E2800F083809BE00422C4F81B
:103FB0008020802100F0B7F8606C07654FF4FA604C
:103FC000616C8D65616C88634FF47A70616C086414
:103FD00042F21070616C086362E0B08980285FD1A2
:103FE000022001F090FD0023027801210D2002F053
:103FF000A7FC012001F087FD0023027801210E209B
:1040000002F09EFC0421FFF771FE0D21FFF76EFE0A
:10401000606DC1B200F08DF9042100F079F8002143
:1040200000F0AAF9204600F011FEFFF715FE37E078
:104030007068012713280CD1B068042807D100F05C
:104040005BF800F098F9616C41F28830886038467E
:10405000F2BD00F056F802D100F05DF8F7E7606CB1
:1040600085653146204602F01FF9F0E7626C0420B6
:10407000C4F8800095651A2203E00520C4F880008A
:104080001922204603F0EFF90AE000F03EF800782C
:1040900008B900F04DF900F034F801D100F03BF818
:1040A0000127D4E7FFF77BFC9F48A0600427CEE7F9
:1040B00073693269317BB06802F042FCB068012755
:1040C0000028C4D106F1100101F01FFDBFE7FFF782
:1040D00006FE606C8765616C0F63606C0764616CE1
:1040E0008F63DDE78C4800BFA0600020F2BD0000B8
:1040F000401C0020E0D3000801220421204602F0E9
:1041000008BCD4F88000052870470E2001F0FBBCE5
:10411000204600F0E7BC8621204600F0D5BC0422F2
:10412000C4F880200121204600F017BCF8B50446F1
:1041300002250F4647F230563888012841F6F871BB
:1041400020D0022800F0C480072838D00F284AD099
:10415000142861D0162853D02B281ED0752800F0C3
:10416000B380842871D0862876D0872800F0848098
:104170008C2800F08A808D2800F09A808E2800F02C
:10418000888045E0FFF7CBFFFFF74CFD606C86654C
:1041900000F0DDF8FFF75CFD16E0B889012840F07B
:1041A0009180FFF746FD18B900F0CBF800F0C4F895
:1041B000002100F0E1F8204600F048FD04E0FFF7A0
:1041C000A0FF03D1FFF7A7FF012523E0606C866500
:1041D0003946204602F0DCF80228054672D03946FE
:1041E000FFF733FD16E0FFF790FF0125007808B9CF
:1041F00000F09EF8FFF785FF0CD1FFF78CFF09E078
:104200003946204602F04DF905463946FFF71DFDB7
:10421000022D57D02846F2BD94F885000125C1062D
:104220000AD4E06C012807D0606C816A012903DAA6
:1042300094F88500810602D500F096F8EAE77868E0
:10424000C1B2204600F06AFCC9E73946FFF7F9FC25
:104250000546FFF701FDDBE7626C0420C4F880002F
:104260009665002084F884001A22204603F0FBF8AB
:104270003946FFF7EAFCA7E705200022C4F88000D2
:1042800084F8842020461922F0E72848A0600425FD
:10429000C0E77B693A69397BB86802F051FBB868BE
:1042A00001250028B6D107F1100101F02EFCB1E77D
:1042B000B86804280CBF04211221FFF729FF3946F2
:1042C000FFF7C3FC13480FE701F00DF90120F2BD21
:1042D000FFF705FDFFF7FFFC0863626C1064616C7B
:1042E0008863626C9065616C0866626CC2F88000DD
:1042F000616C8862626CC2F88800FFF79EFC94F8DB
:10430000850000F0EF0084F885005DE71E5A1E5A14
:104310005A151E5A91E1000897360008101D00201A
:10432000E5360008D9370008613C0008C13D0008A7
:104330000021204600F0DCBA9DF80010204600F075
:104340000BBC0122694604F1580000F001BD4FF496
:10435000FA61606C81634FF47A71606C016442F2BF
:104360001071606C0163704794F8850000F0DF0005
:1043700084F8850070470121204600F0FCBA2DE941
:10438000FF41054688461E460A9F0B9C002329468E
:1043900005F1280003F08EF84146284603F0A6F800
:1043A00000200290019000903B463246214628466C
:1043B00003F004F9BDE8FF8103F023B938B50446E2
:1043C0000D4604F1280002F06DFD4FF47A7045436C
:1043D000014604F12800B5FBF1F1BDE838400022A8
:1043E00089B203F041B9000070B50D46047F114950
:1043F0000E5D042D0BDB10490A68954207DA34B1D3
:10440000212C04DA0D4951F82420824203D03721AF
:104410000DA000F037FD72B60948016801EB850375
:1044200001EB8502074D995D285D0143915562B608
:1044300070BD000084DD0008E41E0020881A002002
:10444000E01E0020FCDC000871615F7375620000F3
:10445000C648704790F83810022908DB90F85010D1
:1044600029B90122C24980F85020816004E000216E
:10447000C04A80F8501082600420704780B500F078
:1044800011FD022002BD80B5002100F074FA022067
:1044900002BD10B50446112001F035FB007838B993
:1044A000606CB54981612046182100F055FB03E09E
:1044B000616C4FF0FF308861022010BD80B5012291
:1044C000042101F05BFD022002BDAC4900E0AC49D3
:1044D00081600420704710B50446132001F013FBDF
:1044E0000168A848814207BFA74AA260A148A0600E
:1044F000042010BD80B590F88510CA0603D5426C23
:10450000C821916202E0172001F0DFFA022002BD0B
:104510000220704780B590F87C104A0744BF1921EB
:1045200000F01AFB022002BD10B5044642F21070E2
:10453000616C086300F00BFD10B1204600F0FFF93C
:1045400000F013FD00F00DFDC046C046022010BD76
:1045500010B504464FF4FA60616C88630C2001F0DA
:10456000A7FA40B10C2001F0CEFA007818B114215E
:10457000204600F0C8F9022010BD70B50E46054671
:104580004FF47A70696C0864122001F091FA40B31C
:10459000122001F0B8FA047895F88500C00800F000
:1045A0000100A0421DD06CB11321284600F0ABF9E8
:1045B00001220521284601F0E1FC696C4FF0FF3033
:1045C000086508E03146284600F009FA0022052176
:1045D000284601F0D3FC95F8850064F3C30085F804
:1045E0008500022070BD0220704738B504460320C4
:1045F00001F089FA007800F001FBD4F8803017222E
:104600000821022B18BF032B0DD0042B11D0072B30
:1046100019D194F88400431E99401B225DB2002DED
:1046200055D5002002E000F05CF850DA84F88400F0
:1046300055E094F87C309D0705D400F052F846DA36
:1046400084F884003EE094F87C0083073AD5D4F8DF
:104650008000052814BF0128182294F98400431C07
:104660008140B1F5805F84F884304FF448700CD0FD
:10467000636C64251D6541F20105A94208D3002140
:1046800084F884101B2241F6F071636C186508E011
:10469000092906D2D4F88000052816BF0128062271
:1046A000022294F87C00430716D5D4F88000636C8E
:1046B000012816BF0528052201224FF0FF3041F6E0
:1046C000F87108E00021204600F089F907E084F83D
:1046D00084306420636C1865204602F0C4FE02201A
:1046E00032BD94F984506B1CA9405DB2A84270475A
:1046F00080B5D0F8801004290AD1C16C012904D1F9
:10470000416C47F230528A6502E0872100F0DCF903
:10471000022002BD10B50446002241F6FF7102F0EE
:10472000A2FE1A4AA260042010BD10B504466420FF
:10473000616CC1F880000E2001F0E5F9007878B9CD
:1047400094F88500C1060DD5606C816F012907DAE8
:1047500004F1580000F0BEFA616C40F2DC5088674A
:10476000022010BD0548A060042010BD34150020B3
:10477000D9370008A539000840771B00613C0008C4
:10478000E53600085A151E5A2D410008F53C000870
:104790001CB504460122694604F1580000F0D8FA1D
:1047A0009DF80010204602F0E0F9022016BD02201C
:1047B0007047F8B504460D460026606C00EBC60055
:1047C0000168012912DBA1F16402012A02600DDAFD
:1047D000616C01EBC602506840B1626C02EBC6032B
:1047E00029465F682046B847022803D1761C162E5A
:1047F000E3DB0220F2BD10B50021426CCBB202EB2C
:10480000C3021468012CA4BF4FF0FF331360491C8E
:10481000CAB2162AF1DB10BD1CB5044600F0C9FC73
:104820001220E063002194F88500C4F8801000F0A5
:10483000E10084F8850084F8501084F88410E16663
:10484000062194F8850084F8701000F0FE0084F8CA
:104850008500032194F87C00616700F0F900A167EE
:1048600084F87C00082094F87C1001F0FE0184F8A4
:104870007C1001F02AF9092001F027F900208DF8B9
:1048800000000A200FF2084101F03FF90FF2084141
:10489000142001F03AF90C2001F017F9122001F070
:1048A00014F9032001F011F9072001F00EF969460F
:1048B000162001F02AF969461B2001F026F9694605
:1048C000172001F022F9112001F0FFF8042001F077
:1048D000FCF806208DF800006946102001F015F95B
:1048E000FF208DF8000069461D2001F00EF913BD70
:1048F00002B541650020694601F007F99DF9000005
:1049000001F0F6FF01BD10B5132918BF142903D01B
:1049100090F88520530709D4846C04EBC10354F844
:1049200031105A68BDE8104002F09DBD10BD01462F
:104930000020032986BF133901290120704710B5D3
:104940000446A06CD0F89C20D0F8981000F0B9F87C
:10495000606C41F28832826010BD38B504460D4665
:104960007B2200210C2002F0A7FA44600581BDE8FB
:10497000324002F0F6BB0A46002101F0CABF000037
:10498000F8B58AB00A2001F0BEF804460B2001F009
:10499000BAF80546142001F0B6F80646152001F0D5
:1049A000B2F807464FEA0402BDA1684602F08EFE47
:1049B000684603F0D1F833464FEA0502BDA16846C8
:1049C00002F084FE684603F0C7F83A46BEA1684686
:1049D00002F07CFE684603F0BFF80BB0F0BD2DE995
:1049E000F8430446072001F063F800284FD0204622
:1049F00000F036F94FF0FF3530B1606C05650D21E0
:104A00002046FFF780FF42E0032001F07CF80027FA
:104A1000007800F0F3F88046D4F880001A260528C4
:104A200014BF0128192694F88500410741F6F8794A
:104A300006D5002200F044F8092200F041F809E010
:104A4000122001F035F840B1122001F05CF8007836
:104A5000012802D1606C056519E094F87C004107DB
:104A600003D5324600F02CF811E08107606C016D2F
:104A70000BD501290BDA1B2200F022F8616C4FF4F0
:104A80001670086584F8847001E0012902DB0220B9
:104A9000BDE8F2830565002003E0082181400F4353
:104AA000401CC1B24145F8DB002289EA070100F051
:104AB00008F83246394600F004F884F88480E6E7C6
:104AC0004946204602F0CFBC10B504460A460021F4
:104AD000042002F0F1F9236801462046DC68002238
:104AE000A04710BDC16301F008BFC26C06213AB1F6
:104AF000012A11D0022A18BF032A02D00E2A0AD195
:104B00000821C26B122AD0F8802018BF0421052A80
:104B100008BF491CF7E670470A21F2E7C26B042A76
:104B200010D0122A17D1C90705D590F88520530651
:104B300048BF04210ED490F8851041F0400180F860
:104B4000851070478A0602D5C36C032B01D0C907B4
:104B500001D41221C6E7704738B504460D4694F8D3
:104B60008500810717D5C10608D440F0100284F8EB
:104B700085202946204601F0F8FF31BD04F1580098
:104B800000F0AAF838B18DF800500122694604F10E
:104B9000580000F0C3F831BD1CB50446132000F0E6
:104BA000B2FF1449006888421CBF134A90421FD0CC
:104BB000D4F8800007280BD1052000F0A4FFE16B9A
:104BC0000068814204D004F13C01052000F09DFF03
:104BD000032000F098FF007800901C2000F093FF65
:104BE00000990078814203D069461C2000F08DFFB7
:104BF00013BD00001E5A1E5A5A151E5A10B50A241B
:104C0000024692FBF4F40A2303FB142290FBF3F018
:104C1000D2B202B1401CC0B210BD0146012091F8D1
:104C20007C10CA0748BF0020704710B50446FFF744
:104C3000F4FF50B194F87C0040F0020084F87C004E
:104C400001222046BDE8104007E010BD90F87C101E
:104C500001F0FD0180F87C100022022101F08EB9E4
:104C600080B5192000F04FFF017801290DD11A20DD
:104C700000F049FF0078012807D1182000F043FF19
:104C80000078022801D1012002BD002002BD0000F1
:104C9000372E302E342E3000372E302E34000000C8
:104CA00048656E647269784D204D43553A562573B8
:104CB0002C0000002048573A565F25732C42543A86
:104CC0005625732C000000004453503A562573209B
:104CD0002E0A0D0001681AE010B5044600F004F831
:104CE0006168081A401E10BD0146C8688A68824281
:104CF0003CBF49685218101A70478168C0688142E9
:104D000001D101207047002070470160426081603E
:104D1000C1607047002141600160F8E7F8B50446C2
:104D20000D461646FFF7D8FF0027B0420CD20120EF
:104D3000F2BDA068401C05E0A068E95D017000F0CC
:104D400037F8F6D3A0607F1CB742F5D30020F2BD40
:104D5000F8B504460D461646FFF7C6FF0027B042D9
:104D600010D20120F2BDE0680178E955E2682168BF
:104D7000501C62680A4490423ABFE068401C0846F2
:104D8000E0607F1CB742EED30020F2BD38B5044688
:104D90000D46FFF7A1FF08B9012032BDA0680570DC
:104DA00000F006F83CBFA068401CA060002032BDA7
:104DB000A16820684A1C616801448A42704738B57E
:104DC0000446FFF79AFF002558B9E0682268616839
:104DD00010F8015B114488422EBF1046E068401C69
:104DE000E060284632BD0000002807D5954A00F053
:104DF0000F001044090100F8041C7047924A090191
:104E000011547047FEE780B500210FF2E82000F052
:104E100039F8FEE7FEE7FEE780B5002002F0C4FEA9
:104E20008A480168491C016001BD80B500F0ADF8F9
:104E3000874801684FF47A72B1FBF2F0B0F1807FDD
:104E40001DD220F07F408349401E08600F214FF0A3
:104E5000FF30FFF7C9FF8049804B00200860072220
:104E60001A604FF6FF017E4A7E4813680B400343E9
:104E700013600421BDE804404FF0FF30B4E7FEE7C3
:104E8000D3E7704780B578480168012904D0012232
:104E9000026072B600F006F800F025FBFCE76B48F4
:104EA0000068704772B66E4970480A6802F4E062A2
:104EB00002430A60BFF34F8FFEE770B5634D2E6863
:104EC000044601E000F00FFB2868801BA042F9D3E4
:104ED00070BD704738B5664A664B1068664940F049
:104EE000010010601C6865480C401C601568054096
:104EF00015601468624824F480241460196821F451
:104F00007C11196002685F491209120102600B6886
:104F10005D485E4A03405E480B60016849084900ED
:104F2000016000201060BDE831402EE0EFF3088002
:104F30008038C11000EB1170001100015549564A2C
:104F400001E041F8042B8842FBD20020704780B575
:104F500004225049514802F073FE00B10120C0B252
:104F600002BD4F484B49401A704730B5EFF30881F6
:104F70004B4A484B484D501A00E01B1D8B4203D250
:104F80001C68AC42F9D0D01A30BD1CB5002100918C
:104F900001913749086840F0010008600A6802F092
:104FA000020201920098401C0090019810B900F094
:104FB0007BF8F3D10868400800F0010001900198E7
:104FC00001283AD12B4A106810601368354843F421
:104FD00000531360146844F4806414601368034041
:104FE00013600020146844F4201414600B6843F02C
:104FF00080730B6001E00098401C009008688301FA
:1050000002D400F051F8F6D31168890889001160C4
:105010000021106840F002001060009102E000984A
:10502000401C0090106800F00C00082802D000F02E
:105030003BF8F4D300F038F802D3BDE8134031E771
:1050400013BD000018ED00E000E400E0F41E0020B5
:10505000DC09002014E000E018E000E010E000E0CF
:105060000CED00E00000FA05F81E00200400FA052F
:1050700000100240041002400CB8FFF8FFFFF6FEDB
:105080002C10024030100240ACFEFFFF081002401E
:105090003410024000000020CDAB3412E0090020A3
:1050A00000080020FFFFC2F70098B0F5A06F70471E
:1050B00038B504460D4600F01BFA45F2555000F095
:1050C00009FA204600F009FA284600F009FA012002
:1050D00000F013FA0128FAD0022000F00EFA01289D
:1050E000FAD000F000FABDE8344001214FF48050BE
:1050F00002F0B6BD486172644661756C745F4861C8
:105100006E646C657200000038B54FF4804002F0A8
:10511000EFFD28B14FF4804002F0F8FD02F0EBFE05
:105120004FF4004002F0E4FD28B14FF4004002F0DB
:10513000EDFD02F0E8FE4FF4805002F0D9FD50B1D1
:1051400000F01AF84FF4805002F0E0FDD52200F094
:105150002CF800F015F831BD38B5042002F0C8FD78
:1051600048B100F009F8042002F0D0FDD32200F08D
:105170001CF800F005F831BDA14C012020707047EB
:10518000014660680468E5680022284738B50120B8
:1051900002F0AEFD40B1FFF7EFFF02F0B7FDD42201
:1051A00000F003F8FFF7ECFF31BD0021042001F00F
:1051B00083BE93494860704769464FF090400AF0BB
:1051C0001FBB18B585B000218E488F4C03F00AF83C
:1051D00000218E4803F012F900218D4803F00EF9EA
:1051E00000F037F84FF4404200F02EF84FF48041C1
:1051F00020468161C0464FF4004120468161C0468F
:1052000000F027F84FF4706200926946814C204606
:105210000AF0F6FA00F01DF800F015F8802120469B
:105220008161C046012100F01AF84FF480714FF0FF
:1052300090400185C0464FF480414FF09040018579
:10524000C04606B010BD80220092694620460AF092
:10525000D7BA032202920021019104917047019173
:1052600003220292002104914FF480420092694689
:105270004FF090400AF0C4BA614800787047604926
:10528000002008707047F8B586B00C9C0D9D17463D
:105290001E460AF021FB0020039002970496059514
:1052A00002A802F0E9FC04218DF801108DF80040FD
:1052B000019568460AF02CFB07B0F0BD00B587B039
:1052C00000F03AF800F032F80422029202A9FFF747
:1052D00074FF012006210190009110230422022175
:1052E0000020FFF7D0FF01214FF4802000F00CFDDB
:1052F00000F01CF841F20102029202A945480AF0AE
:105300007FFA05210120009101900823012200214C
:10531000FFF7B9FF072101200091019008234FF406
:1053200080520C21FFF7AFFF07B000BD03220492AB
:10533000002103910691704701214FF4003000F0E5
:10534000E3BC80B5002000904FF4805003F00EFACB
:1053500088B14FF4805003F021FA684603F046F913
:105360006946002003F0FBF87522FFF71EFF014697
:105370001F2001F0DBFE4FF4003002F0B9FC18B141
:105380004FF4003002F0C2FC01BD38B504460022E3
:105390000023002586B002A8002180E82E0000919D
:1053A000684601A90A6003F021F902A803F06DF92B
:1053B00001A803F01BF98DF8024001A9002003F0B9
:1053C000CEF80099144A029103924FF4807102AA18
:1053D000002003F01AF94FF48011002003F089F93E
:1053E00001214FF4805003F099F901214FF48070AE
:1053F00003F056F94FF4807003F0ACF907B030BDFC
:10540000A816002000240140000800480054004075
:1054100000580040000400480080808018B589B022
:1054200006A800210022002380E80E0002A8002424
:1054300080E81E00CDE900124FF08050012100F0FD
:1054400077FC012003F0D4F9012000F051FC00208A
:1054500000F04EFC012000F0B3FB4FF4007000F0B0
:1054600036FC012000F038FC06A803F025F8632183
:1054700040F28F120791089206A802F0F7FF4FF44E
:10548000003002F043FC02A802F02BFC4FF4003184
:1054900002910122082104910592039402A802F0CE
:1054A000EBFB02208DF80000042101228DF8011091
:1054B000019268460AF02CFA0AB010BD4FF47A71D6
:1054C000484301E000BF00BF0146481E0029F9D152
:1054D000704700000D49086070470D49086070472B
:1054E0000C490860704709494AF6AA2008607047CD
:1054F00006494CF6CC4008607047074A13680146DD
:1055000000200B4218BF012070470000003000400F
:1055100004300040083000400C3000403EB5DFF859
:10552000445604466C6005F12002E26300210D2020
:1055300003F082F90146E06B03F0B8F90C20062174
:105540000190009105F1080384220FF21101204619
:10555000FEF715FF37BDFEF72FBF000010B504465C
:1055600000F034FA0FF29930A060042010BDF8B5B5
:105570000E4604463288DFF8F075DFF8E855012A58
:1055800010D0662A6CD0692A1DD06A2A40D06B2AB6
:1055900000F08B80792A08D07A2A0CD0842A00F077
:1055A0008F80B2E04FF47A71A6E07168292300225F
:1055B00001F0FAFD82E07068A063204600F028FA4E
:1055C0000FF23D309EE00020A4F84600B16821644F
:1055D000B068B38907EBC001F0898A88824228BF8E
:1055E000024606F11001204600F0C9F9706801F08A
:1055F000EEFD0146B06800F0BFFAB06800F02EFA88
:1056000000281CBF6868002858D00021298055E078
:105610000020A4F846002E227168A1630021B06822
:105620002064202001F048FC0546B089A881F1895A
:10563000E9811021B068A86005F1100003F03CF981
:10564000B389F28905F11001204600F073F90020BA
:1056500068602946A06B0468E5680022A8472DE031
:1056600071682623002201F09FFDB06807EBC0019E
:105670008A79D00722D57168A1630020A4F846007A
:1056800084F84800B2682264F06830B9308A0FF2BA
:10569000A111A4F84400A16035E007EBC2010FF2AC
:1056A00075008A88A4F844202CE0307A002820462F
:1056B00002D000F0ADF901E000F088F90120F2BD60
:1056C000B5F9000001284FF0FF3604DB2988A1F569
:1056D0007A70288006E010F1010F03D0204600F018
:1056E00097F92E80B5F9020048B16888A0F57A7163
:1056F00069804FF47A716868FEF760FEDEE76E80BD
:10570000DFF86804A0600420F2BDDFF86404A06044
:105710000020F2BD70B504460888DFF85024DFF899
:105720004454012806D027282DD028285ED066288A
:1057300023D066E0B4F8441018290EDA00F073F8AC
:105740000646B4F84420002306F10A01204600F082
:10575000F1F8B4F8440030813DE0672200F064F8CD
:105760000646206C00F07AF90146E06BD0F808C0DC
:10577000182306F10802E0472DE049682723032299
:1057800000F0BAF830E0486840B9B4F84600183084
:105790000021A4F8460084F8481002E000F03AF82E
:1057A00029DA00F031F8182908DB672200F03CF80C
:1057B00006460023182206F1080109E000F033F83C
:1057C000064600F021F831810023328906F10A01F2
:1057D000204600F0AFF8A06B04683146E66800226E
:1057E000B04740F6B8306880012070BD486810B1FD
:1057F00000F010F8E2DB4FF0FF306880A260042078
:1058000070BDA260002070BDB4F84410B4F846002A
:10581000091A704794F84800401C84F8480094F82E
:1058200048000428704768220021202001F044BB72
:105830002DE9F0410F4604463888DFF83083DFF861
:105840002453012840F6B83606D0662818D06728B9
:105850001CD0682828D049E000F08CF808BB00274D
:1058600009E0206C00F0FAF83918E06BC36898473B
:1058700007F58067BFB2B4F84400B842F1DA10E02F
:1058800079682723032200F037F80BE00023182261
:1058900007F10801204600F072F87968272300F02C
:1058A0002AF86E80012024E03A89002307F10A01DA
:1058B000204600F064F87968282300F01CF8786826
:1058C00001F085FC0146206C00F056F9206C00F0D8
:1058D000C5F820B14FF47A712046FEF76FFD4FF006
:1058E000FF306880C4F80880042002E0C4F8088013
:1058F0000020BDE8F0810022204601F055BC0000E8
:1059000010B504460888012802D0792808D00DE097
:10591000A16B2A23FFF7EFFF0022A263012010BD35
:1059200049682923FFF7E7FF90481DE69048A060EB
:10593000002010BD70B504460D46164600F01AF85A
:1059400060B1206C324651F83060B4F84600304403
:10595000C1182846BDE87040FDF75EB8104600F05B
:105960007DF8B4F846100918E06B2A46856833467E
:10597000A84770BD7C49226C51F832007047F8B5D9
:1059800004460F461E46784B216C53F831001546ED
:1059900050B1206C53F83030B4F846001844394602
:1059A0003044FDF739F80BE0084600F057F8B4F83A
:1059B000461008183118E06B3A4647682B46B8473E
:1059C000B4F846002D18A4F84650F1BD2DE9F8436F
:1059D00007460025644C0FF2BC1858F8359054F86F
:1059E000390078B104EBC90102468B8808EBC50089
:1059F0004168F86B8668B04704EBC900C18841F480
:105A00000051C1806D1C032DE7D3BDE8F183000078
:105A1000F8B504460025E16BC86818B1E06B55493C
:105A2000C36898475BA101EBC5025068002811D0FC
:105A300051F835201EBF4C4E56F83200002809D0D0
:105A400006EBC203024601EBC5004168E06B9B8890
:105A50004768B8476D1C032DE4D3F1BD30B501464E
:105A6000002000224BA394B253F834408C4204D05F
:105A7000521C95B2032DF6D330BD92B203EBC20097
:105A8000406830BD10B5002037494DF6FF7401EB7A
:105A9000C002401CD38823401E28D380F7DB10BDF2
:105AA000314901EBC000C088800B00F00100704755
:105AB00010B52D4A014602EBC1030020DC886304C7
:105AC00044BF600B00F0010010BD10B5264A02EB88
:105AD000C0034DF6FF71DC8802EBC0000C40C480AF
