:020000040800F2
:10400000A8060020BB5800085D5400086954000849
:104010009B5700089B5700089B57000800000000B2
:1040200000000000000000000000000075540008BF
:104030009B5700080000000081540008ED4A00086A
:10404000400D1100410E1100240410002303100044
:1040500062021000000000000000000000000000EC
:1040600005000000404000081C00000000000000A7
:10407000000000000000000000000000000000013F
:10408000900100001D000000000000000000000082
:10409000000000000000000000000101900100008D
:1040A00001000000000000003F00000001000000CF
:1040B00018000000020000000500000003000000DE
:1040C00004000000040000008E1301001500000031
:1040D000030000000000000001000000C8400008CC
:1040E000302C0C00092F0C004A260B002B0010006E
:1040F00003000000050000000000000003000000B5
:10410000E440000803000000000000000000000080
:104110000000000000000000760001019001000096
:1041200005001100272E0C00262D0C0016000000A3
:10413000050000000000000003000000204100080E
:10414000040101000C930000494A00001600000021
:1041500003000000000000000300000040410008D0
:104160000C280C000D2B03000E2C0300092F0C0053
:104170004A260B00020000000500000000000000BD
:10418000050000006041000802000000010000007E
:104190000000000000C2010000000000010000005B
:1041A0000200000000000000000000000D00000000
:1041B000080000000000000006000000340100209C
:1041C000C000002094010020500100200B000000DE
:1041D000010000000000000000C20100010000001A
:1041E00000000000000000000000000000000000CF
:1041F000110000000B0000000000000088410008D2
:104200007441000808010020CC4000082C4100083F
:104210004C410008F040000804410008AC4100088F
:10422000F04100086840000884400008CC410008C4
:104230000D000000F2B586B007003960032003903E
:1042400000240726012511E003200290002005909C
:1042500001A944483A681269009BD2585209324079
:10426000D200805800F0C2F8641CE4B20698C0681E
:10427000844255D2A000009001213A483A68126960
:10428000009BD25852093240D2008018406800F09A
:10429000A3F906980069009940180168C904C90E7D
:1042A00001228A4001920168490B314006D002295F
:1042B000CAD014D3042901D0C6D3C9E70021029182
:1042C0000068000C07210140012901D10595BFE7D5
:1042D000304001D10220BAE70229B9D1B6E70295F0
:1042E000002105910168C90C314201D1049504E017
:1042F0003140012901D1002104910068010C3140B5
:10430000032905D1C106C90E380000F00CF89FE75B
:1043100004299DD1C106C90E380000F025F897E7A1
:104320003D7107B0F0BDE0B50022036801E0521C0A
:10433000D2B2D868824213D218699500455901203B
:104340002E0A1F273740B8401F262E40B142EED11B
:1043500081B204482A06520FD20080588161C046BB
:10436000E0BD0000BC43000838B5002204681F23EC
:1043700001E0521CD2B2E068824214D2206995005A
:1043800040591F250540A942F3D100220121040A0A
:104390002340994089B200BF08A30006400FC00027
:1043A000185800F05DF831BD80B5FFF7BCFF01BDC6
:1043B000000080B5FFF7D8FF01BD000000000048F5
:1043C000000002000004004800000400000800484B
:1043D00000000800000C0048000010000000000071
:1043E000000000000014004800004000F2B5002169
:1043F00001228A40009B1B68134093422CD14B0042
:1044000003259D40EC43009D6D68012D01D0022DD8
:1044100012D18668264086608668009FBF689F40EC
:10442000374387608688964386808288009EF66838
:10443000B6B28E401643868002682240026002684F
:104440009D4015430560C2681440C460C268009C6A
:1044500024699C401443C460491C1029C8D3F1BD91
:10446000002A01D0816170470185704710B5CB08E3
:104470009B00C0184907C90E036A0F248C40A34350
:104480000362036A8A401A43026210BD1A48016837
:1044900001220A4302604168184A0A4042600168EA
:1044A000174A0A4002600168164A0A4002604168E1
:1044B000154A0A404260C16A0F229143C162016BF2
:1044C000444A0A400263416B012291434163002147
:1044D000816070471043086070474F490A68102395
:1044E0009A430A600A68F5E74B490A6803239A432E
:1044F0000A600A68EEE70000001002400CB8FFF8FE
:10450000FFFFF6FEFFFFFBFFFFFFC0FFF0B504005B
:10451000404D2968414E42480C220A40042A15D0D9
:10452000082A12D129682A6889020F0FBF1CD103FB
:1045300003D438007108484308E0A96A0907090F45
:10454000491C00F07BF8784300E0300020602A68C6
:10455000344821681206120F825CD14061602A68DB
:104560005205520F805CC140A160E86AC00501D4C9
:104570002D4805E02868400401D4480800E0880878
:10458000E06080200002E96A490601D4274900E082
:1045900001002161E96AC90601D4310000E0216807
:1045A00061610321EA6A0A4001D1A06809E0EA6A70
:1045B0000A40012A01D1206803E0EA6A0A40022A7F
:1045C00001D1A061F0BDE86A0140032900D1A661D4
:1045D000F0BD0000ACFEFFFF154A0029116802D0B3
:1045E000084310607047814311607047114A0029E9
:1045F000116802D008431060704781431160704712
:104600000D4A0029116802D00843106070478143A9
:1046100011607047041002403010024000127A000E
:10462000001BB70078010020809FD5001280000099
:1046300014100240181002401C1002400022030A0D
:104640008B420BD203098B4219D243088B422ED2E4
:10465000411A00D20146524110467047FF2209021A
:104660003FD012068B4205D3121209028B4201D3AE
:104670001212090203098B4219D300E0090AC30987
:104680008B4201D3CB01C01A524183098B4201D323
:104690008B01C01A524143098B4201D34B01C01A0E
:1046A000524103098B4201D30B01C01A5241C30886
:1046B0008B4201D3CB00C01A524183088B4201D3F5
:1046C0008B00C01A524143088B4201D34B00C01AE1
:1046D0005241884200D3401A5241CFD2014610467F
:1046E000704708B5C046C04608BD30B4012100225D
:1046F0000368001D002B0BD00468001D0C4202D083
:104700004D466D1E64192260241D1B1FF0D0FAE770
:1047100030BC704770B5040061600125657248695E
:10472000000C574E01060AD17088401C708030780A
:10473000002811D1200000F011F835700CE0C0B253
:10474000012809D1B088401CB0807078002803D1BE
:10475000200000F003F87570257270BD30B587B089
:10476000050068684069000C010603D100F016F9E5
:10477000444C05E0C0B2012802D100F035F9424CAA
:10478000002003900190029004900590069000BFD5
:104790000CA1C20089186A6892690B889A4202D1FA
:1047A0004868009003E0401CC0B20328EFD369467C
:1047B000200000F045F90121200000F06DF907B05C
:1047C00030BD000090010000080310005E010000F1
:1047D0000905100064000000130F4210F2B582B00A
:1047E0000700CE6878684069000C01060AD1254DA3
:1047F000029801780289802080017B7A002B00904A
:1048000007D107E0C0B2012801D11F4DF0E7012018
:10481000FEBD0303D2B2280000F049F902980089D6
:10482000002807D114220221280000F02FF80028C8
:104830001DD112E000240CE014220221280000F017
:1048400025F8002813D1317828008162C046761CF3
:10485000641C029800898442EED1787A00280DD039
:10486000C8222021280000F011F8002802D00020E2
:10487000C043FEBD20212800C161C0460020FEBD0E
:104880009C0200200054004000580040F8B506008B
:104890000F001500002400F02EF9FA208000454397
:1048A0003900300000F01AF9002803D16D1E012DE7
:1048B000F6DA01242000F2BDF0B585B0032700260A
:1048C00001250224002803D0022840D018D363E039
:1048D00001214804FFF780FE01218803FFF786FECF
:1048E0000020FFF701FE01220921C806FFF7BEFDE7
:1048F00001220A219020C005FFF7B8FD78021DE0D3
:1049000001214804FFF768FE01214804FFF778FE03
:1049100030480068304901402E48016000682D4948
:104920000860012202219020C005FFF79FFD0122AF
:1049300003219020C005FFF799FD0C2000900297FD
:1049400001940396049569469020C00522E0012158
:10495000C804FFF741FE01218804FFF751FE1D48FE
:1049600000681E4901401B48016000681949086041
:1049700001220A211A48FFF779FD01220B2118486C
:10498000FFF774FDB8020090029701940396049516
:1049900069461348FFF72AFD05B0F0BD10B586B093
:1049A0000020FFF79AFD01218804FFF715FE012181
:1049B0004805FFF725FE0B4C012206212000FFF7DA
:1049C00055FD012207212000FFF750FDC02029E0FE
:1049D0000000000030100240FFFFFCFFFFFFF3FF6C
:1049E000000800480004004810B586B00020FFF71A
:1049F00074FD01218804FFF7EFFD01218805FFF711
:104A0000FFFD014C02E000BF0004004801220A2122
:104A10002000FFF72BFD01220B212000FFF726FDD0
:104A2000C020000100900220019001200490032189
:104A30000291039069462000FFF7D8FC06B010BD34
:104A4000026801239A4302600268204B13404A68BF
:104A50001A438B681B02134303600A681C4B134004
:104A60000361026801231343036000228260C26075
:104A70008A690B6913438360826880231B02134396
:104A800083600268CB68134303604268114B134094
:104A900049691943416070470029016803D0012228
:104AA0000A4302607047012291430160704730B5AC
:104AB0004468094D25408905890D294312040A439C
:104AC000134303991943416030BD0000FFE0CF005C
:104AD000FFFFFFF0FF7FFF07009800FCFFE70200E9
:104AE00000209269114000D00120704754480168AD
:104AF000491C0160704752480068704710B50400B7
:104B0000FFF7C4FC4F480021016041608160012033
:104B100080F310886068216881F30888804710BDA1
:104B200070B50E0004000025ED4301214020FFF781
:104B300053FD00F09FF804E0206800F09FF80500A6
:104B4000241DB442F8D300214020FFF745FD280082
:104B500070BD02688A4200D17047F0B585B03A4A0C
:104B600016685368039392680292384A1369019356
:104B70001468536800939768334A801A0AD0FC225D
:104B80009200801A0AD0001F0AD0001F0AD00838ED
:104B900002D008E00E0006E0019104E00C0002E003
:104BA000009100E00F0000F071F8274D280000F0A0
:104BB0007CF83100280000F093F80399244800F0B5
:104BC0008FF80299234800F08BF80199224800F0F1
:104BD00087F821001D4800F083F800991F4800F075
:104BE0007FF839001E4800F07BF800F058F805B057
:104BF000F0BD80B501001448FFF7ABFF01BD1248BE
:104C00000068704780B5090612040A431B0213436B
:104C100002991943FFF79DFF01BD000010B584B054
:104C2000104C017802914178019181780091C3780C
:104C30000DA21421200000F0A9F8200004B010BD3E
:104C4000A402002010E000E000F80308F0FB0308D5
:104C500004F8030808F8030800FC0308F4FB030841
:104C6000F8FB03087802002025642E25642E2564B5
:104C70002E2564000120044908607047014908603E
:104C80000868704700300240083002402848C16878
:104C9000090603D527490160274901607047274865
:104CA000016880220A430260704770B50400B02595
:104CB0002D03280000F05AF8042810D11F4E306848
:104CC000022101433160746030684021014331604A
:104CD000280000F04BF8316802229143316070BD2A
:104CE000F2B582B0040000200090B0273F033800E6
:104CF00000F03CF8042819D1104D28680121014327
:104D0000296002982080380000F030F80126F64330
:104D1000042808D1A41C00940298000C0099088073
:104D2000380000F023F829680E402E60FEBD000018
:104D30000420024023016745AB89EFCD10200240DB
:104D400010B5042104200122074B1C68144001D037
:104D5000012010BD1A68D20601D5022010BD1A68C4
:104D6000114000D0032010BD0C20024010B50400FB
:104D7000FFF7E6FF04E0002C06D0FFF7E1FF641E1A
:104D80000128F8D0002C00D1052010BD08B410B5C2
:104D900085B007AB039300240294002902D100944C
:104DA000019402E00090491E019103AB6946084856
:104DB00078441C3000F01BF80099002900D00C70DA
:104DC000002800D4029805B0019910BC02B0084731
:104DD0007D0A000070B5060008001400002B05D005
:104DE0001D002178B047641C6D1EFAD170BDFDB561
:104DF00086B00C0009E00123079A21000698FFF70E
:104E0000E9FF04000798401C0790079800780028E5
:104E100001D109B0F0BD2528EDD107984678801C56
:104E20000790252E00D195E0582E69D0632E0ED024
:104E3000642E1AD0692E18D06F2E61D0702E68D0D3
:104E4000732E70D0752E5BD0782E59D0DDE7089880
:104E50000068089908600168001D089A1060C9B2CE
:104E60002000069A90470400CFE708980068089948
:104E700008600568001D08990860002D04D52D21E3
:104E80002000069A9047040064266F2E01D1082165
:104E900006E020213143782901D00A2100E01021C9
:104EA00001910B2100912F00642E03D1002D01D51B
:104EB00078420700009D6D1E009538000199FFF7AC
:104EC000BDFB3031C9B23A2902DB30005138091834
:104ED00002A84519297038000199FFF7AFFB0700B8
:104EE00002D000980128E5DA20000B21009A8C1AE4
:104EF000B9D02978069A90476D1C641EF9D1B2E7A3
:104F000008980068089908600568001D08990860FD
:104F1000BBE708980068089908600568001D0899B3
:104F200008607826B1E70898006808990860056865
:104F3000001D08990860280000F00EF8010020000C
:104F4000002990D00C002978069A90476D1C641EA9
:104F5000F9D188E7252183E7010000E0491C0A78A0
:104F6000002AFBD1081A7047F0B583B02D480068BD
:104F700001902D492D48FFF7D3FD0700FFF73FFEB5
:104F800004000020802189058200294BD25883002B
:104F9000CA50401C3028F7D301210120FFF726FB1F
:104FA000032000F0A3F800F0B1F8002000900023E7
:104FB000002203211F48FFF725FE00BF1FA5280080
:104FC00000F046F9210000BF20A000F041F900BF29
:104FD0002FA6002C18D1019887420AD1280000F092
:104FE00037F900BF21A000F033F91048FFF786FD24
:104FF0000AE0300000F02CF9019A390029A000F0F5
:1050000027F90520FFF7F5FD300000F021F900BF7A
:105010002FA000F01DF900F0B9F80748FFF76EFD6A
:105020000120FEBD08F80308FFE7030800A0000800
:1050300000400008F4FB030800D8FF1F1B5B303062
:105040006D0D0A5B494E464F5D3A20001B5B3030C8
:105050006D55424C3A205354424C20737461747520
:1050600073203D2030782558000000001B5B303055
:105070006D55424C3A206A756D7020746F204170F6
:10508000706C69636174696F6E0D0A0D0A0000002F
:105090001B5B33316D0D0A5B4552524F525D3A2016
:1050A000000000001B5B30306D4170706C69636103
:1050B00074696F6E20636865636B73756D206572CC
:1050C000726F723A202578205B25785D0000000021
:1050D0001B5B30306D55424C3A20456E65746572ED
:1050E000696E67204953500D0A0D0A0005490A6888
:1050F00003239A4301E004490A681043086070479B
:1051000000000000000001401800014070B582B0AE
:1051100000210B2000F0AEF805002C4C2600AC3628
:10512000802221000831300000F0E2F80023320034
:1051300029002000883000F003F900BF25A52800D1
:1051400000F086F835A0009031A3C022920400BF81
:105150002DA100BF23A000F07BF800220521022032
:1051600000F0A1F80100D4342000FFF763F86420B8
:1051700000F068F9280000F06BF81548FFF74EFDC5
:10518000010000BF28A000F063F873BD10B50F4CFC
:105190000C212000D430FFF707F90022052116204A
:1051A00000F081F8010021602000FFF743F80022A1
:1051B00008210D2000F077F8BC340100200000F039
:1051C000BBF90021200000F0FEF910BD9C01002079
:1051D000F8FB03081B5B30306D0D0A5B494E464FF0
:1051E0005D3A20001B5B30306D55424C3A207625ED
:1051F00073205B25785D2C206275696C74206F6E5E
:105200002025732025730000332E302E302E3000E1
:105210004D617920313520323031370031363A3026
:10522000363A3030000000001B5B30306D55424C88
:105230003A2072656164206669726D7761726520DB
:1052400076657273696F6E3A2076257300000000F0
:105250000EB400B582B003A900916B460200012193
:10526000034878440A30FFF7C2FD029906B00847A8
:105270003506000010B502000023002902D00B887B
:1052800000E05B1C164800789BB2834209D21548A7
:105290009C0000590468A242F3D1002902D00B807F
:1052A00010BD002010BD30B503000024002A03D03B
:1052B000148801E0641CA4B20948007884420CDA26
:1052C0000848A50040590568AB42F3D14568A9429A
:1052D000F0D1002A02D0148030BD002030BD000083
:1052E00030420008FC41000801688160C1607047DD
:1052F00080B501604260FFF7F7FF01BD45490068D6
:10530000006980000858704770B50C0015004149CD
:1053100080000E58002D0BE08021300000F036FA9E
:105320000028F9D02178300000F01BFA641C6D1EB3
:10533000F2D18021300000F029FA0028F9D070BDA8
:10534000F4B586B004000D001F002869324E8100BC
:105350007158002936D1FFF7AFFA28698000345020
:10536000256006986060A7600020E06020616061B1
:10537000A061E0612062E968009100BF27A16A692D
:1053800092008958019100BF26A1AA69920089580C
:10539000039100BF26A1EA69920089580291059005
:1053A0000C2004902000FFF7A9FF0400694600F0DC
:1053B00075F9C0218903200000F0D0F901212000F7
:1053C00000F0C1F907B0F0BD70B504000D00160083
:1053D000FFF794FF3200290020680069FFF794FF6F
:1053E000002070BD80B569460870002201210B20A5
:1053F000FFF759FF002809D00749006980000858C5
:10540000002803D001226946FFF7DEFF68460078D6
:1054100002BD00008801002094020020000000006E
:105420000010000000000000000600000004000062
:1054300000000000003000000020000080B500F0F7
:1054400001F801BDFA218900484301E000BF00BF17
:105450000100481E0029F9D17047000080B50021E5
:1054600018A000F013F8FEE780B5002118A000F0A6
:105470000DF8FEE780B500211AA000F007F8FEE75E
:1054800080B500211AA000F001F8FEE738B504004D
:105490000D000A48017800290ED10121017000BFDA
:1054A00017A0FFF7D5FE2A00210000BF19A0FFF7C3
:1054B000CFFE0348FFF722FBFEE70000A202002018
:1054C00000D8FF1F4E4D495F48616E646C657200E5
:1054D000486172644661756C745F48616E646C65A6
:1054E000720000005356435F48616E646C65720041
:1054F00050656E6453565F48616E646C657200005F
:105500001B5B33316D0D0A5B464154414C5D3A20C3
:10551000000000001B5B30306D426C5F45787048C6
:10552000616E646C65723A2025732C0D0A6C696E8D
:10553000653A2025640D0A0070B505000C00287A34
:1055400000283FD13F4EE1693000FEF773FE102185
:105550003000FEF72EFF0020C046002803D0322086
:10556000FFF76CFF02E03220FFF76CFF10213000E4
:10557000FEF71AFF21692800FFF7CCF8A06902782E
:105580007F21280000F062F8A069427812212800EB
:1055900000F05CF8A06982781321280000F056F82A
:1055A000A069C2780221280000F050F8A0690279B1
:1055B0000321280000F04AF8A0694279112128004F
:1055C00000F044F870BD70B505001F480A22514331
:1055D00046183288002A32D0D2B21421280000F0B6
:1055E00035F830880006000F8207920F03D004219F
:1055F000280000F02BF830780207120F03D00521A5
:10560000280000F023F8052430190279002A05D07B
:1056100021001731C9B2280000F018F8641EF3D138
:10562000B2781521280000F011F8F2781621280030
:1056300000F00CF893221121280000F007F870BD4B
:10564000000000008C0200206401002010B586B02C
:10565000040068460170427001A800BF0BA110222F
:1056600000F09CF86068808A69460871684604907A
:10567000207A002807D001A92000FFF7AFF8002802
:1056800001D00020207206B010BD00000000000014
:10569000000000000200000000000000F0B587B02C
:1056A00004000D00206801218843206060683049B3
:1056B0000140A8680843606020682E49014068687E
:1056C0000843E9680143286908432060A0682A4923
:1056D000014068690843A0606846FEF717FF234849
:1056E000844201D1069800E00298296819225043AB
:1056F000802636022268324001D0490000E089004D
:10570000FEF79CFF07006421FEF798FF00010109E6
:1057100064225143791A2268164008D00600C80056
:1057200032306421FEF78AFF4107490F07E0060087
:10573000080132306421FEF781FF0107090F314370
:10574000A18107B0F0BD0029016803D001220A43FE
:1057500002607047012291430160704782680A4BE2
:105760000CE0C905C90D01857047000000380140F3
:10577000FFCFFFFFF3E9FFFFFFFCFFFF1340836054
:105780008268114381607047FFFFCFFF0200002055
:10579000D269114000D001207047FEE770B4103A82
:1057A00003D378C9103A78C0FBD2530701D318C984
:1057B00018C001D508C908C0D20704D30B880380DC
:1057C000891C801C002A01D50B78037070BC7047BF
:1057D00030B401210268001D002A0FD00368C318ED
:1057E000446808300C4202D04D466D1E64191D6895
:1057F00025601B1D241D121FECD0F8E730BC70473C
:1058000010B5074979441831064C7C44163404E03D
:10581000081D0A68891888470100A142F8D110BD07
:105820000800000028000000C3EEFFFF0C0100008C
:105830009C0100200000000099FFFFFFDC00000039
:1058400088000000C0000020000000008268521C98
:1058500082604268002A06D00268531C03601170FF
:105860004168491E416070470120C046002801D0B0
:10587000FFF7C6FF0020C046C046FFF775FB00F0EB
:1058800000F880B500F002F801BD00000746384678
:1058900000F002F8FBE70000202109032631182060
:1058A000ABBEF9E738B505000C002000FFF79AFD04
:1058B000A04200D00025280032BDC046C046C046E8
:1058C000C046FFF7D1FF000000000000010000000B
:1058D00001000000010000000200000011000000B3
:1058E0000200000000000000210000000300000092
:1058F0000100000031000000040000000200000070
:105900000000000005000000000000001000000082
:105910000C00000005000000000000000500000071
:105920000001000000000000000000000000000076
:105930005440000800000000A04000080D000000D6
:105940000000000000000000000000000000000057
:10595000B6000000900100001B00000005000000E0
:105960000000000001000000E040000824002300C7
:105970000000000000003F000009000000000000DF
:1059800000000000010203040102030406070809E5
:10599000003801400044004000480040000400FF7F
:0459A000FF130000F1
:0C9FF400FFFFFFFFFFFFFFFFFFFFFFFF6D
:020000040803EF
:04F804005E19CF3A80
:00000001FF
