:020000040800F2
:1000000088050020AF1900085D0E0008690E000881
:100010000314000803140008031400080000000083
:10002000000000000000000000000000750E000845
:100030000314000800000000810E00089505000868
:10004000522A0C00530B1200540C120057280B00BC
:1000500059290B00140000000500000005000000F5
:100060004000000814000000000000000000000034
:1000700000000000C80000005E0100001400000045
:10008000000000000000000000000000E800000088
:100090005E0100000A0000001300000001000000E3
:1000A0007C000008200000206400000854000008C4
:1000B000160000000000000000000000000000002A
:1000C000000000015E0100001700000000000000B9
:1000D0000000000000000000000001015E010000BF
:1000E000414000000000000000000000010000008E
:1000F000E0000008240000000100000000000000F3
:10010000900100002D0000000100000040060000EA
:100110006009000028031000690210000A000000B6
:1001200005000000020000001401000886810100A3
:10013000C7C101008E1301000F0000000300000082
:10014000030000002C0100088A120000CB520000BE
:100150000C930000100000000300000003000000EA
:1001600048010008470E11000000000000000000D8
:1001700001000000640100081000000007000000FA
:10018000200F11002505110026290B005A250C000F
:10019000522A0C00530B1200540C12000F000000E6
:1001A000050000000700000080010008352C0C004D
:1001B00059290B0015000000050000000200000096
:1001C000AC0100082C220C0022210C0043270C005B
:1001D00024240C00030000000500000004000000BF
:1001E000C40100080300000000000000000000003F
:1001F00000000000700001015E0100000500000029
:10020000000000000000000000000000DA00010013
:100210005E01000007000000000000000000000078
:1002200000000000D80001005E010000182F0C0043
:1002300021200C002B0E11002A2D0C0010000000B4
:1002400005000000040000002C0200082E280C000D
:100250000F2B0B00102C0B001108100002000000E7
:1002600005000000040000004C020008020000002D
:100270000100000000C201000000000001000000B9
:10028000020000000000000000000000000000006C
:10029000FFFFFFFF0000000001000000FFFF000063
:1002A0001000000002000000FF00A5FF2000000079
:1002B00003000000FF0000FF300000000400000009
:1002C000FF0000FF4000000005000000FFFFFFFFEF
:1002D00050000000150000000000000000000000B9
:1002E00000000000B60000005E0100000B000000EE
:1002F00000000000060000008C020008D402000884
:1003000013000000000000000000000000000000DA
:10031000160000005E01000009000000010000005E
:1003200000C2010001000000000000000000000009
:1003300000000000000000000C0000000B000000A6
:100340006C0200085C0200083800002068000020F1
:1003500094000008500000209C01000838010008AB
:100360003C020008D4010008E4010008FC01000878
:100370001402000854010008EC0200080003000801
:1003800038030008B4010008B0000008C8000008E5
:100390001803000815000000F0B583B0002000F03D
:1003A000E9F8314D2C6800F05DF9070000F070F9B4
:1003B0002E492F4800F008F900902E492E4800F0F1
:1003C00003F901902EA6012F0CD1C046C046002093
:1003D00000F042F9022000F048F9300000F0FCF98A
:1003E0002BA008E000F087F9012000F03EF9300072
:1003F00000F0F2F92DA000F0EFF9300000F0ECF978
:1004000030A000F0E9F9300000F0E6F92200009990
:1004100036A000F0E1F9300000F0DEF96A680199D9
:1004200039A000F0D9F9300000F0D6F9390000BF4A
:100430003CA000F0D1F9052F08D80098844202D1E1
:100440000B4800F0AFF8042000F006F93DA000F0E2
:10045000C3F900BF40A000F0BFF900F068F90748F9
:1004600000F0A0F80120FEBD04F80308FF9F00087B
:1004700000400008FFE7030800A0000800D8FF1FA5
:100480001B5B30306D0D0A5B494E464F5D3A2000D4
:100490001B5B30306D5049553A20736B69702041B9
:1004A00053452D544B20626F6F7400001B5B30303E
:1004B0006D5049553A20626F6F74204153452D5459
:1004C0004B0000001B5B30306D5049553A2063688B
:1004D00065636B73756D3A202063616C6320205BEC
:1004E000202073746F72656420205D001B5B3030C8
:1004F0006D5049553A2075626C203D203078255862
:10050000205B307825585D001B5B30306D504955BD
:100510003A20667720203D2030782558205B3078BF
:1005200025585D001B5B30306D5049553A205354BF
:10053000424C20737461747573203D2030782558C7
:100540000D0A00001B5B33316D0D0A5B4552524FA3
:10055000525D3A20000000001B5B30306D50495561
:100560003A20456E746572696E67204953500D0AD2
:100570000000000005490A6803239A4301E004498A
:100580000A68104308607047000000000000014046
:100590001800014038480168491C0160704736481E
:1005A0000068704710B5040000F028F933480021B6
:1005B000016041608160012080F3108860682168DB
:1005C00081F30888804710BD70B50E000400002537
:1005D000ED430121402000F0B7F900F0E7F904E015
:1005E000206800F0E7F90500241DB442F8D300218B
:1005F000402000F0A9F9280070BD02688A4200D1AD
:100600007047F8B51E4A16685368009397681D4AEC
:1006100014681B4A904203D01A4A904202D002E06A
:100620000E0000E00C0000F0CDF9154D280000F0A0
:10063000D8F93100280000F0EFF90099124800F0D5
:10064000EBF93900114800F0E7F921000D4800F0FE
:10065000E3F900F0C0F9F1BD80B501000848FFF7EB
:10066000CCFF01BD06480068704780B50100054811
:10067000FFF7C3FF01BD00008001002010E000E093
:1006800000F8030800FC030804F8030808F803084E
:1006900070B582B00021092000F014FA0500344C36
:1006A0002600AC36802221000831300000F048FAE4
:1006B0000023320029002000883000F069FA00BFD2
:1006C0002EA000F089F800BF40A000903CA3294A6A
:1006D00039A100BF2DA000F07FF8002205210220E3
:1006E00000F009FA0100CC34200000F0CFFA6420B9
:1006F00000F0A8FB73BD10B51F4C1021200000F0C6
:1007000084FB0F21200000F080FB642000F09AFBA6
:100710001021200000F074FB642000F093FB0F21F7
:10072000200000F06DFB642000F08CFB10BD10B5C4
:100730000F4C0E212000CC3000F062FB002205217E
:10074000102000F0D8F901002160200000F09EFA8E
:10075000002200210B2000F0CEF9BC3401692000FA
:1007600000F0EAFB0021200000F039FC10BD000081
:100770009C00002000020004680100201B5B303058
:100780006D0D0A5B494E464F5D3A20001B5B3030D1
:100790006D5049552076657273696F6E3A202573E6
:1007A000205B25785D2C206275696C7420206F6E4B
:1007B0002025732025730000342E302E322E300079
:1007C0004D617920333120323031360031383A32C0
:1007D000363A3231000000000EB400B582B003A9F1
:1007E00000916B4602000121034878440A3000F072
:1007F00068FC029906B00847A11100001A48016878
:1008000001220A4302604168184A0A4042600168B6
:10081000174A0A4002600168164A0A4002604168AD
:10082000154A0A404260C16A0F229143C162016BBE
:10083000444A0A400263416B012291434163002113
:10084000816070471043086070474F490A68102361
:100850009A430A600A68F5E74B490A6803239A43FA
:100860000A600A68EEE70000001002400CB8FFF8CA
:10087000FFFFF6FEFFFFFBFFFFFFC0FFF0B5040028
:10088000404D2968414E42480C220A40042A15D0A6
:10089000082A12D129682A6889020F0FBF1CD103C8
:1008A00003D438007108484308E0A96A0907090F12
:1008B000491C00F0BBFC784300E0300020602A684F
:1008C000344821681206120F825CD14061602A68A8
:1008D0005205520F805CC140A160E86AC00501D496
:1008E0002D4805E02868400401D4480800E0880845
:1008F000E06080200002E96A490601D4274900E04F
:1009000001002161E96AC90601D4310000E02168D3
:1009100061610321EA6A0A4001D1A06809E0EA6A3C
:100920000A40012A01D1206803E0EA6A0A40022A4B
:1009300001D1A061F0BDE86A0140032900D1A661A0
:10094000F0BD0000ACFEFFFF154A0029116802D07F
:10095000084310607047814311607047114A0029B5
:10096000116802D0084310607047814311607047DE
:100970000D4A0029116802D0084310607047814376
:1009800011607047041002403010024000127A00DB
:10099000001BB70080000020809FD500128000005F
:1009A00014100240181002401C100240012004499B
:1009B00008607047014908600868704700300240CD
:1009C000083002402848C168090603D5274901605C
:1009D0002749016070472748016880220A43026066
:1009E000704770B50400B0252D03280000F05AF8B8
:1009F000042810D11F4E3068022101433160746019
:100A00003068402101433160280000F04BF8316824
:100A100002229143316070BDF2B582B00400002023
:100A20000090B0273F03380000F03CF8042819D1AB
:100A3000104D286801210143296002982080380068
:100A400000F030F80126F643042808D1A41C0094D5
:100A50000298000C00990880380000F023F82968FB
:100A60000E402E60FEBD00000420024023016745B9
:100A7000AB89EFCD1020024010B5042104200122E3
:100A8000074B1C68144001D0012010BD1A68D20623
:100A900001D5022010BD1A68114000D0032010BDFE
:100AA0000C20024010B50400FFF7E6FF04E0002C24
:100AB00006D0FFF7E1FF641E0128F8D0002C00D11A
:100AC000052010BD10B502000023002902D00B88BC
:100AD00000E05B1C164800789BB2834209D215489F
:100AE0009C0000590468A242F3D1002902D00B8077
:100AF00010BD002010BD30B503000024002A03D033
:100B0000148801E0641CA4B20948007884420CDA1D
:100B10000848A50040590568AB42F3D14568A94291
:100B2000F0D1002A02D0148030BD002030BD00007A
:100B3000940300084003000801688160C1607047A9
:100B400080B501604260FFF7F7FF01BD45490068CD
:100B5000C06880000858704770B50C001500414906
:100B600080000E58002D0BE08021300000F042FC88
:100B70000028F9D02178300000F027FC641C6D1E9D
:100B8000F2D18021300000F035FC0028F9D070BD92
:100B9000F4B586B004000D001F00E868324E8100F5
:100BA0007158002936D100F02DFCE86880003450DF
:100BB000256006986060A7600020E06020616061A9
:100BC000A061E0612062A968009100BF27A12A69A5
:100BD00092008958019100BF26A16A699200895844
:100BE000039100BF26A1AA6992008958029105903D
:100BF0000C2004902000FFF7A9FF0400694600F0D4
:100C000081FBC0218903200000F0DCFB01212000D2
:100C100000F0CDFB07B0F0BD70B504000D0016006C
:100C2000FFF794FF320029002068C068FFF794FFA7
:100C3000002070BD80B5694608700022012109209E
:100C4000FFF759FF002809D00749C06880000858FD
:100C5000002803D001226946FFF7DEFF68460078CE
:100C600002BD000090000020700100200000000084
:100C7000001000000000000000060000000400005A
:100C8000000000000030000000200000F2B586B037
:100C9000070039600320039000240726012511E096
:100CA000032002900020059001A944483A68D268C8
:100CB000009BD25852093240D200805800F076FC96
:100CC000641CE4B206988068844255D2A00000906B
:100CD00001213A483A68D268009BD2585209324002
:100CE000D20080184068FFF72FFE0698C068009970
:100CF00040180168C904C90E01228A4001920168A6
:100D0000490B314006D00229CAD014D3042901D09E
:100D1000C6D3C9E7002102910068000C07210140F9
:100D2000012901D10595BFE7304001D10220BAE782
:100D30000229B9D1B6E70295002105910168C90CD5
:100D4000314201D1049504E03140012901D1002153
:100D500004910068010C3140032905D1C106C90E78
:100D6000380000F00CF89FE704299DD1C106C90E98
:100D7000380000F025F897E73D7107B0F0BDE0B509
:100D80000022036801E0521CD2B29868824213D25A
:100D9000D8689500455901202E0A1F273740B840D2
:100DA0001F262E40B142EED181B204482A06520FCE
:100DB000D20080588161C046E0BD0000140E0008DA
:100DC00038B5002204681F2301E0521CD2B2A0688B
:100DD000824214D2E068950040591F250540A9427F
:100DE000F3D100220121040A2340994089B200BFB7
:100DF00008A30006400FC000185800F011FC31BDD8
:100E000080B5FFF7BCFF01BD000080B5FFF7D8FF3C
:100E100001BD00000000004800000200000400487E
:100E2000000004000008004800000800000C004812
:100E30000000100000000000000000000014004846
:100E400000004000FA218900484301E000BF00BFD4
:100E50000100481E0029F9D17047000080B500212B
:100E600018A000F013F8FEE780B5002118A000F0EC
:100E70000DF8FEE780B500211AA000F007F8FEE7A4
:100E800080B500211AA000F001F8FEE738B5040093
:100E90000D000A48017800290ED10121017000BF20
:100EA00017A0FFF799FC2A00210000BF19A0FFF747
:100EB00093FC0348FFF776FBFEE700007E0100206D
:100EC00000D8FF1F4E4D495F48616E646C6572002B
:100ED000486172644661756C745F48616E646C65EC
:100EE000720000005356435F48616E646C65720087
:100EF00050656E6453565F48616E646C65720000A5
:100F00001B5B33316D0D0A5B464154414C5D3A2009
:100F1000000000001B5B30306D426C5F457870480C
:100F2000616E646C65723A2025732C0D0A6C696ED3
:100F3000653A2025640D0A0070B504000E00494D85
:100F40000020285600283ED1002205211520FFF759
:100F5000D2FD010028001830FFF798FE1921280063
:100F60001830FFF74DFF152128001830FFF74DFF0F
:100F70003220FFF767FF152128001830FFF740FFE8
:100F80003100200000F062FB00227F21200000F0F1
:100F90006BF8DF220221200000F066F8FF22032117
:100FA000200000F061F824221221200000F05CF8FB
:100FB00000221321200000F057F86A781121200048
:100FC00000F052F805E0207A002802D1200000F05D
:100FD0003DFB012020732878401C287070BDF8B5B7
:100FE0000700204E0A20414375182D1D2A88002A2B
:100FF00035D0D2B21421380000F036F82888000627
:10100000000F8207920F03D00421380000F02CF863
:1010100028780207120F03D00521380000F024F8C9
:10102000052428190279002A05D021001731C9B2F8
:10103000380000F019F8641EF3D1AA7815213800A1
:1010400000F012F8EA781621380000F00DF87078F8
:101050008022024372701121380000F005F8F1BDC2
:10106000000000000000002010B586B004006846B3
:101070000170427001A800BF07A1102200F0B8FB68
:101080006068008A694608716846049001A92000DA
:1010900000F033FB06B010BD0000000000000000AF
:1010A000020000000000000070B5060008001400F7
:1010B000002B05D01D002178B047641C6D1EFAD1AD
:1010C00070BDFDB586B00C0009E00123079A210030
:1010D0000698FFF7E9FF04000798401C079007985F
:1010E0000078002801D109B0F0BD2528EDD107987E
:1010F0004678801C0790252E00D195E0582E69D0A7
:10110000632E0ED0642E1AD0692E18D06F2E61D0A7
:10111000702E68D0732E70D0752E5BD0782E59D07B
:10112000DDE708980068089908600168001D089AC2
:101130001060C9B22000069A90470400CFE70898D3
:101140000068089908600568001D08990860002D6E
:1011500004D52D212000069A9047040064266F2EA6
:1011600001D1082106E020213143782901D00A214C
:1011700000E0102101910B2100912F00642E03D17A
:10118000002D01D578420700009D6D1E00953800A6
:10119000019900F04BF83031C9B23A2902DB300036
:1011A0005138091802A8451929703800019900F032
:1011B0003DF8070002D000980128E5DA20000B2155
:1011C000009A8C1AB9D02978069A90476D1C641E33
:1011D000F9D1B2E708980068089908600568001D11
:1011E00008990860BBE708980068089908600568D6
:1011F000001D089908607826B1E7089800680899EA
:1012000008600568001D08990860280000F00AFBC6
:1012100001002000002990D00C002978069A904700
:101220006D1C641EF9D188E7252183E70022030A9B
:101230008B420BD203098B4219D243088B422ED228
:10124000411A00D20146524110467047FF2209025E
:101250003FD012068B4205D3121209028B4201D3F2
:101260001212090203098B4219D300E0090AC309CB
:101270008B4201D3CB01C01A524183098B4201D367
:101280008B01C01A524143098B4201D34B01C01A52
:10129000524103098B4201D30B01C01A5241C308CA
:1012A0008B4201D3CB00C01A524183088B4201D339
:1012B0008B00C01A524143088B4201D34B00C01A25
:1012C0005241884200D3401A5241CFD201461046C3
:1012D000704708B5C046C04608BD30B401210022A1
:1012E0000368001D002B0BD00468001D0C4202D0C7
:1012F0004D466D1E64192260241D1B1FF0D0FAE7B5
:1013000030BC7047F0B587B004000D0020680121A3
:1013100088432060606830490140A86808436060E5
:1013200020682E49014068680843E968014328693C
:1013300008432060A0682A49014068690843A0600A
:101340006846FFF79BFA2348844201D1069800E0E3
:1013500002982968192250438026360222683240BA
:1013600001D0490000E08900FFF760FF0700642119
:10137000FFF75CFF0001010964225143791A2268DA
:10138000164008D00600C80032306421FFF74EFF37
:101390004107490F07E00600080132306421FFF7DA
:1013A00045FF0107090F3143A18107B0F0BD0029B6
:1013B000016803D001220A43026070470122914371
:1013C0000160704782680A4B0CE0C905C90D0185B0
:1013D0007047000000380140FFCFFFFFF3E9FFFF37
:1013E000FFFCFFFF134083608268114381607047F8
:1013F000FFFFCFFF02000020D269114000D0012082
:101400007047FEE7F0B585B00327002601250224CA
:10141000002803D0022840D018D363E001214804FB
:10142000FFF792FA01218803FFF798FA0020FFF7EF
:1014300013FA01220921C80600F0F8F801220A2156
:101440009020C00500F0F2F878021DE00121480468
:10145000FFF77AFA01214804FFF78AFA4E4800683C
:101460004E4901404C48016000684B490860012228
:1014700002219020C00500F0D9F80122032190201C
:10148000C00500F0D3F80C20009002970194039659
:10149000049569469020C00522E00121C804FFF7A9
:1014A00053FA01218804FFF763FA3B4800683C497E
:1014B00001403948016000683749086001220A216B
:1014C000384800F0B3F801220B21364800F0AEF89E
:1014D000B80200900297019403960495694631483A
:1014E00000F064F805B0F0BD30B585B00020FFF71E
:1014F000ACF901218804FFF727FA01214805FFF71D
:1015000037FA294C01220621200000F08FF8012231
:101510000721200000F08AF8C020009002200190EE
:1015200000250495032002900120039069462000C5
:1015300000F03CF8802026E030B585B00020FFF7B1
:1015400084F901218804FFF7FFF901218805FFF7DD
:101550000FFA154C01220A21200000F067F8012241
:101560000B21200000F062F8C02000010090022052
:1015700001900125049503200290039569462000FF
:1015800000F014F8E802009004956946200000F08D
:101590000DF805B030BD000030100240FFFFFCFF29
:1015A000FFFFF3FF0008004800040048F2B50021E7
:1015B00001228A40009B1B68134093422CD14B00B0
:1015C00003259D40EC43009D6D68012D01D0022D47
:1015D00012D18668264086608668009FBF689F405B
:1015E000374387608688964386808288009EF668A7
:1015F000B6B28E40164386800268224002600268BE
:101600009D4015430560C2681440C460C268009CD8
:1016100024699C401443C460491C1029C8D3F1BDFF
:10162000002A01D0816170470185704710B5CB0851
:101630009B00C0184907C90E036A0F248C40A343BE
:101640000362036A8A401A43026210BD70B5040047
:101650006160012565720869000C514E01060AD1CE
:101660007088401C70803078002811D1200000F074
:1016700011F835700CE0C0B2012809D1B088401CC7
:10168000B0807078002803D1200000F003F8757056
:10169000257270BD30B587B0050068680069000C20
:1016A000010603D1FFF720FF3E4C05E0C0B2012840
:1016B00002D1FFF741FF3C4C0020039001900290C3
:1016C00004900590069000BF43A1C20089186A6883
:1016D00052690B889A4202D14868009003E0401C8E
:1016E000C0B20328EFD36946200000F0A3F801211F
:1016F000200000F0CBF807B030BDF2B582B0070093
:10170000CE6878680069000C01060AD1254D029860
:1017100001780289802080017B7A002B009007D11C
:1017200007E0C0B2012801D11F4DF0E70120FEBD46
:101730000303D2B2280000F0B4F802980089002810
:1017400007D114220221280000F030F800281DD112
:1017500012E000240CE014220221280000F026F8F8
:10176000002813D1317828008162C046761C641CA1
:10177000029800898442EED1787A00280DD0C822E0
:101780002021280000F012F8002802D00020C043D9
:10179000FEBD20212800C161C0460020FEBD000022
:1017A000780100200054004000580040F8B50600C1
:1017B0000F0015000024FEF7F2FEFA2080004543DA
:1017C0003900300000F084F8002803D16D1E012D8F
:1017D000F6DA01242000F2BD900100000803100099
:1017E0005E0100000905100064000000130F4210A4
:1017F00070B4103A03D378C9103A78C0FBD25307BB
:1018000001D318C918C001D508C908C0D20704D32C
:101810000B880380891C801C002A01D50B7803707B
:1018200070BC7047010000E0491C0A78002AFBD117
:10183000081A7047026801239A4302600268204B2D
:1018400013404A681A438B681B02134303600A68FB
:101850001C4B134003610268012313430360002201
:101860008260C2608A690B69134383608268802347
:101870001B02134383600268CB6813430360426812
:10188000114B1340496919434160704700290168B1
:1018900003D001220A430260704701229143016094
:1018A000704730B54468094D25408905890D2943A5
:1018B00012040A43134303991943416030BD0000E9
:1018C000FFE0CF00FFFFFFF0FF7FFF07009800FC65
:1018D000FFE7020000209269114000D0012070470C
:1018E00030B401210268001D002A0FD00368C3181C
:1018F000446808300C4202D04D466D1E64191D68C4
:1019000025601B1D241D121FECD0F8E730BC70476A
:1019100010B5074979441831064C7C44163404E06C
:10192000081D0A68891888470100A142F8D110BD36
:101930000800000028000000A3F9FFFFE8000000F5
:101940009C0000200000000099FFFFFF9C000000A9
:101950006C00000000000020000000000120C046D4
:10196000002801D0FFF7D4FF0020C046C046FEF794
:1019700013FD00F000F880B500F002F801BD000092
:101980000746384600F002F8FBE700002021090373
:1019900026311820ABBEF9E738B505000C00200051
:1019A000FFF748F9A04200D00025280032BDC0460C
:1019B000C046C046C046FFF7D1FF0000001300003C
:1019C000180023000000000000003F000009000094
:1019D00000000000000000000000000014000000F3
:1019E000000000000000000000000000680000008F
:1019F0005E0100000A000000030000000200000079
:101A0000E400000800000000F40000080A000000E4
:101A100014000000020000001C0100080500000086
:101A2000040000000A0000000500000001000000A2
:101A300068010008000000007801000800000000B4
:101A400001020304010203040607080900380140EB
:081A5000004400400048004082
:00000001FF
