:020000040800F2
:10400000480600203F5900080952000815520008D0
:104010009F5800089F5800089F58000800000000A3
:104020000000000000000000000000002152000815
:104030009F580008000000002D520008714C000835
:10404000522A0C00530B1200540C120057280B007C
:1040500059290B00140000000500000005000000B5
:1040600040400008140000000000000000000000B4
:1040700000000000C80000005E0100001400000005
:10408000000000000000000000000000E800000048
:104090005E0100000A0000001300000001000000A3
:1040A0007C400008E0000020644000085440000804
:1040B00016000000000000000000000000000000EA
:1040C000000000015E010000170000000000000079
:1040D0000000000000000000000001015E0100007F
:1040E000414000000000000000000000010000004E
:1040F000E040000824000000010000000000000073
:10410000900100002D0000000100000040060000AA
:104110006009000028031000690210000A00000076
:104120000500000002000000144100088681010023
:10413000C7C101008E1301000F0000000300000042
:10414000030000002C4100088A120000CB5200003E
:104150000C930000100000000300000003000000AA
:1041600048410008470E1100000000000000000058
:10417000010000006441000810000000070000007A
:10418000200F11002505110026290B005A250C00CF
:10419000522A0C00530B1200540C12000F000000A6
:1041A000050000000700000080410008352C0C00CD
:1041B00059290B0015000000050000000200000056
:1041C000AC4100082C220C0022210C0043270C00DB
:1041D00024240C000300000005000000040000007F
:1041E000C4410008030000000000000000000000BF
:1041F00000000000700001015E01000005000000E9
:10420000000000000000000000000000DA000100D3
:104210005E01000007000000000000000000000038
:1042200000000000D80001005E010000182F0C0003
:1042300021200C002B0E11002A2D0C001000000074
:1042400005000000040000002C4200082E280C008D
:104250000F2B0B00102C0B001108100002000000A7
:1042600005000000040000004C42000802000000AD
:104270000100000000C20100000000000100000079
:10428000020000000000000000000000000000002C
:10429000FFFFFFFF0000000001000000FFFF000023
:1042A0001000000002000000FF00A5FF2000000039
:1042B00003000000FF0000FF3000000004000000C9
:1042C000FF0000FF4000000005000000FFFFFFFFAF
:1042D0005000000015000000000000000000000079
:1042E00000000000B60000005E0100000B000000AE
:1042F00000000000060000008C420008D4420008C4
:10430000130000000000000000000000000000009A
:10431000160000005E01000009000000010000001E
:1043200000C20100010000000000000000000000C9
:1043300000000000000000000C0000000B00000066
:104340006C4200085C420008F800002028010020B0
:1043500094400008100100209C41000838410008EA
:104360003C420008D4410008E4410008FC41000838
:104370001442000854410008EC42000800430008C1
:1043800038430008B4410008B0400008C8400008A5
:104390001843000815000000F2B586B00700396028
:1043A0000320039000240726012511E0032002903A
:1043B0000020059001A944483A68D268009BD25871
:1043C00052093240D200805800F0C2F8641CE4B2B6
:1043D00006988068844255D2A000009001213A4896
:1043E0003A68D268009BD25852093240D2008018F5
:1043F000406800F0A3F90698C06800994018016869
:10440000C904C90E01228A4001920168490B31405A
:1044100006D00229CAD014D3042901D0C6D3C9E7D3
:10442000002102910068000C07210140012901D1FF
:104430000595BFE7304001D10220BAE70229B9D182
:10444000B6E70295002105910168C90C314201D1FE
:10445000049504E03140012901D100210491006854
:10446000010C3140032905D1C106C90E380000F006
:104470000CF89FE704299DD1C106C90E380000F051
:1044800025F897E73D7107B0F0BDE0B5002203685D
:1044900001E0521CD2B29868824213D2D8689500CB
:1044A000455901202E0A1F273740B8401F262E40AD
:1044B000B142EED181B204482A06520FD200805890
:1044C0008161C046E0BD00002045000838B50022EB
:1044D00004681F2301E0521CD2B2A068824214D2A9
:1044E000E068950040591F250540A942F3D10022FC
:1044F0000121040A2340994089B200BF08A30006A5
:10450000400FC000185800F05DF831BD80B5FFF7CE
:10451000BCFF01BD000080B5FFF7D8FF01BD000062
:1045200000000048000002000004004800000400F1
:104530000008004800000800000C004800001000BF
:1045400000000000000000000014004800004000CF
:10455000F2B5002101228A40009B1B681340934260
:104560002CD14B0003259D40EC43009D6D68012D2F
:1045700001D0022D12D18668264086608668009F91
:10458000BF689F40374387608688964386808288CD
:10459000009EF668B6B28E401643868002682240BE
:1045A000026002689D4015430560C2681440C46003
:1045B000C268009C24699C401443C460491C1029B3
:1045C000C8D3F1BD002A01D08161704701857047D1
:1045D00010B5CB089B00C0184907C90E036A0F2409
:1045E0008C40A3430362036A8A401A43026210BDEF
:1045F0001A48016801220A4302604168184A0A40C9
:1046000042600168174A0A4002600168164A0A407F
:1046100002604168154A0A404260C16A0F22914314
:10462000C162016B444A0A400263416B012291431B
:1046300041630021816070471043086070474F4913
:104640000A6810239A430A600A68F5E74B490A682A
:1046500003239A430A600A68EEE700000010024054
:104660000CB8FFF8FFFFF6FEFFFFFBFFFFFFC0FFE8
:10467000F0B50400404D2968414E42480C220A40E2
:10468000042A15D0082A12D129682A6889020F0F36
:10469000BF1CD10303D438007108484308E0A96A5D
:1046A0000907090F491C00F07BF8784300E030004F
:1046B00020602A68344821681206120F825CD140BB
:1046C00061602A685205520F805CC140A160E86AAF
:1046D000C00501D42D4805E02868400401D44808ED
:1046E00000E08808E06080200002E96A490601D401
:1046F000274900E001002161E96AC90601D43100BF
:1047000000E0216861610321EA6A0A4001D1A068E2
:1047100009E0EA6A0A40012A01D1206803E0EA6A56
:104720000A40022A01D1A061F0BDE86A01400329D4
:1047300000D1A661F0BD0000ACFEFFFF154A0029C4
:10474000116802D0084310607047814311607047C0
:10475000114A0029116802D0084310607047814354
:10476000116070470D4A0029116802D0084310609B
:1047700070478143116070470410024030100240BE
:1047800000127A00001BB70040010020809FD50076
:104790001280000014100240181002401C10024049
:1047A0000022030A8B420BD203098B4219D2430821
:1047B0008B422ED2411A00D2014652411046704718
:1047C000FF2209023FD012068B4205D312120902C2
:1047D0008B4201D31212090203098B4219D300E064
:1047E000090AC3098B4201D3CB01C01A5241830984
:1047F0008B4201D38B01C01A524143098B4201D332
:104800004B01C01A524103098B4201D30B01C01A5C
:104810005241C3088B4201D3CB00C01A52418308D6
:104820008B4201D38B00C01A524143088B4201D303
:104830004B00C01A5241884200D3401A5241CFD295
:1048400001461046704708B5C046C04608BD30B4A2
:10485000012100220368001D002B0BD00468001DFD
:104860000C4202D04D466D1E64192260241D1B1F90
:10487000F0D0FAE730BC7047F0B585B003270026CA
:1048800001250224002803D0022840D018D363E079
:1048900001214804FFF752FF01218803FFF758FF69
:1048A0000020FFF7D3FE01220921C806FFF790FE82
:1048B00001220A219020C005FFF78AFE78021DE040
:1048C00001214804FFF73AFF01214804FFF74AFF9E
:1048D0004E4800684E4901404C48016000684B4911
:1048E0000860012202219020C005FFF771FE01221D
:1048F00003219020C005FFF76BFE0C20009002976B
:1049000001940396049569469020C00522E0012198
:10491000C804FFF713FF01218804FFF723FF3B487A
:1049200000683C4901403948016000683749086027
:1049300001220A213848FFF74BFE01220B2136489D
:10494000FFF746FEB8020090029701940396049583
:1049500069463148FFF7FCFD05B0F0BD30B585B0C4
:104960000020FFF76CFE01218804FFF7E7FE01211C
:104970004805FFF7F7FE294C012206212000FFF72A
:1049800027FE012207212000FFF722FEC020009011
:10499000022001900025049503200290012003903D
:1049A00069462000FFF7D4FD802026E030B585B0B1
:1049B0000020FFF744FE01218804FFF7BFFE01211C
:1049C0008805FFF7CFFE154C01220A212000FFF7D2
:1049D000FFFD01220B212000FFF7FAFDC02000019E
:1049E0000090022001900125049503200290039578
:1049F00069462000FFF7ACFDE80200900495694687
:104A00002000FFF7A5FD05B030BD000030100240CA
:104A1000FFFFFCFFFFFFF3FF000800480004004811
:104A200070B504006160012565720869000C514E83
:104A300001060AD17088401C70803078002811D19E
:104A4000200000F011F835700CE0C0B2012809D147
:104A5000B088401CB0807078002803D1200000F09E
:104A600003F87570257270BD30B587B005006868B1
:104A70000069000C010603D1FFF770FF3E4C05E012
:104A8000C0B2012802D1FFF791FF3C4C00200390F7
:104A90000190029004900590069000BF43A1C200CF
:104AA00089186A6852690B889A4202D14868009056
:104AB00003E0401CC0B20328EFD36946200000F099
:104AC00081F80121200000F0A9F807B030BDF2B54F
:104AD00082B00700CE6878680069000C01060AD130
:104AE000254D029801780289802080017B7A002B75
:104AF000009007D107E0C0B2012801D11F4DF0E7B7
:104B00000120FEBD0303D2B2280000F092F8029803
:104B10000089002807D114220221280000F030F873
:104B200000281DD112E000240CE0142202212800EC
:104B300000F026F8002813D1317828008162C046A1
:104B4000761C641C029800898442EED1787A002891
:104B50000DD0C8222021280000F012F8002802D031
:104B60000020C043FEBD20212800C161C0460020B6
:104B7000FEBD0000380200200054004000580040F4
:104B8000F8B506000F001500002400F076F8FA20B2
:104B9000800045433900300000F062F8002803D15E
:104BA0006D1E012DF6DA01242000F2BD90010000F7
:104BB000080310005E0100000905100064000000F9
:104BC000130F4210026801239A4302600268204BCF
:104BD00013404A681A438B681B02134303600A6838
:104BE0001C4B13400361026801231343036000223E
:104BF0008260C2608A690B69134383608268802384
:104C00001B02134383600268CB681343036042684E
:104C1000114B1340496919434160704700290168ED
:104C200003D001220A4302607047012291430160D0
:104C3000704730B54468094D25408905890D2943E1
:104C400012040A43134303991943416030BD000025
:104C5000FFE0CF00FFFFFFF0FF7FFF07009800FCA1
:104C6000FFE7020000209269114000D00120704748
:104C700035480168491C0160704733480068704737
:104C800010B50400FFF7B4FC30480021016041601A
:104C90008160012080F310886068216881F30888B2
:104CA000804710BD70B50E0004000025ED430121C2
:104CB0004020FFF743FD00F053F804E0206800F0C7
:104CC00053F80500241DB442F8D300214020FFF71B
:104CD00035FD280070BD02688A4200D17047F8B5E2
:104CE0001B4A16685368009397681A4A1468184A52
:104CF000904203D0174A904202D002E00E0000E03A
:104D00000C0000F039F8124D280000F044F8310092
:104D1000280000F05BF800990F4800F057F83900C0
:104D20000E4800F053F821000A4800F04FF800F058
:104D30002CF8F1BD80B501000548FFF7CCFF01BD9F
:104D400003480068704700004002002010E000E0C7
:104D500000F8030800FC030804F8030808F8030837
:104D600001200449086070470149086008687047DD
:104D700000300240083002402848C168090603D5C7
:104D80002749016027490160704727480168802250
:104D90000A430260704770B50400B0252D03280057
:104DA00000F05AF8042810D11F4E30680221014348
:104DB000316074603068402101433160280000F0A8
:104DC0004BF8316802229143316070BDF2B582B078
:104DD000040000200090B0273F03380000F03CF8AA
:104DE000042819D1104D2868012101432960029837
:104DF0002080380000F030F80126F643042808D15E
:104E0000A41C00940298000C00990880380000F05F
:104E100023F829680E402E60FEBD000004200240E9
:104E200023016745AB89EFCD1020024010B5042166
:104E300004200122074B1C68144001D0012010BD42
:104E40001A68D20601D5022010BD1A68114000D0A0
:104E5000032010BD0C20024010B50400FFF7E6FF50
:104E600004E0002C06D0FFF7E1FF641E0128F8D013
:104E7000002C00D1052010BD70B5060008001400FC
:104E8000002B05D01D002178B047641C6D1EFAD19F
:104E900070BDFDB586B00C0009E00123079A210022
:104EA0000698FFF7E9FF04000798401C0790079851
:104EB0000078002801D109B0F0BD2528EDD1079870
:104EC0004678801C0790252E00D195E0582E69D099
:104ED000632E0ED0642E1AD0692E18D06F2E61D09A
:104EE000702E68D0732E70D0752E5BD0782E59D06E
:104EF000DDE708980068089908600168001D089AB5
:104F00001060C9B22000069A90470400CFE70898C5
:104F10000068089908600568001D08990860002D60
:104F200004D52D212000069A9047040064266F2E98
:104F300001D1082106E020213143782901D00A213E
:104F400000E0102101910B2100912F00642E03D16C
:104F5000002D01D578420700009D6D1E0095380098
:104F60000199FFF71DFC3031C9B23A2902DB30004C
:104F70005138091802A84519297038000199FFF71E
:104F80000FFC070002D000980128E5DA20000B2171
:104F9000009A8C1AB9D02978069A90476D1C641E25
:104FA000F9D1B2E708980068089908600568001D03
:104FB00008990860BBE708980068089908600568C8
:104FC000001D089908607826B1E7089800680899DC
:104FD00008600568001D08990860280000F00EF8B8
:104FE00001002000002990D00C002978069A9047F3
:104FF0006D1C641EF9D188E7252183E7010000E0DC
:10500000491C0A78002AFBD1081A704770B50400C1
:105010000E00494D0020285600283ED100220521CF
:10502000152000F0C4F8010028001830FFF7B4F98B
:10503000192128001830FFF769FA152128001830C7
:10504000FFF769FA322000F0D3F815212800183054
:10505000FFF75CFA31002000FFF7E2FC00227F211D
:10506000200000F06BF8DF220221200000F066F83B
:10507000FF220321200000F061F8242212212000E9
:1050800000F05CF800221321200000F057F86A7845
:105090001121200000F052F805E0207A002802D10A
:1050A0002000FFF7BDFC012020732878401C2870E9
:1050B00070BDF8B50700204E0A20414375182D1D1C
:1050C0002A88002A35D0D2B21421380000F036F8F0
:1050D00028880006000F8207920F03D004213800B1
:1050E00000F02CF828780207120F03D005213800B1
:1050F00000F024F8052428190279002A05D021009F
:105100001731C9B2380000F019F8641EF3D1AA783B
:105110001521380000F012F8EA781621380000F066
:105120000DF870788022024372701121380000F06F
:1051300005F8F1BD00000000C000002010B586B0E9
:10514000040068460170427001A800BF07A1102248
:1051500000F0C8F86068008A6946087168460490E3
:1051600001A92000FFF7B3FC06B010BD000000004D
:1051700000000000020000000000000010B5020066
:105180000023002902D00B8800E05B1C1648007841
:105190009BB2834209D215489C0000590468A24280
:1051A000F3D1002902D00B8010BD002010BD30B516
:1051B00003000024002A03D0148801E0641CA4B278
:1051C0000948007884420CDA0848A500405905686F
:1051D000AB42F3D14568A942F0D1002A02D0148035
:1051E00030BD002030BD000094430008404300085B
:1051F000FA218900484301E000BF00BF0100481EBA
:105200000029F9D17047000080B5002118A000F0F6
:1052100013F8FEE780B5002118A000F00DF8FEE7B6
:1052200080B500211AA000F007F8FEE780B5002144
:105230001AA000F001F8FEE738B504000D000A4896
:10524000017800290ED10121017000BF17A000F0E4
:1052500063F82A00210000BF19A000F05DF80348A0
:10526000FFF70EFDFEE700003E02002000D8FF1F02
:105270004E4D495F48616E646C65720048617264AE
:105280004661756C745F48616E646C657200000005
:105290005356435F48616E646C65720050656E647E
:1052A00053565F48616E646C657200001B5B33315E
:1052B0006D0D0A5B464154414C5D3A2000000000F0
:1052C0001B5B30306D426C5F45787048616E646C7A
:1052D00065723A2025732C0D0A6C696E653A20259B
:1052E000640D0A0070B4103A03D378C9103A78C03C
:1052F000FBD2530701D318C918C001D508C908C08B
:10530000D20704D30B880380891C801C002A01D596
:105310000B78037070BC70470EB400B582B003A95F
:1053200000916B4602000121034878440A30FFF7E0
:10533000B0FD029906B00847F1050000F8B529480C
:10534000066829492948FFF7ADFC0090FFF7F8FCF3
:1053500004000020802189058200254BD25883005B
:10536000CA50401C3028F7D301210120FFF7F0F983
:10537000032000F097F800F0A5F800BF1EA5280054
:10538000FFF7CAFF210000BF1FA0FFF7C5FF00BF46
:105390002DA7002C18D10098B0420AD12800FFF7A1
:1053A000BBFF00BF20A0FFF7B7FF1048FFF768FC66
:1053B0000AE03800FFF7B0FF3200009927A0FFF79E
:1053C000ABFF0520FFF7B6FC3800FFF7A5FF00BFD5
:1053D0002DA0FFF7A1FF00F0B5F80648FFF750FC3D
:1053E0000120F2BD08F80308FFE7030800A0000849
:1053F0000040000800D8FF1F1B5B30306D0D0A5BBA
:10540000494E464F5D3A20001B5B30306D55424C93
:105410003A205354424C20737461747573203D20BC
:1054200030782558000000001B5B30306D55424C31
:105430003A206A756D7020746F204170706C6963DA
:105440006174696F6E0D0A001B5B33316D0D0A5B71
:105450004552524F525D3A20000000001B5B303035
:105460006D4170706C69636174696F6E206368650B
:10547000636B73756D206572726F723A20257820A8
:105480005B25785D000000001B5B30306D55424CA1
:105490003A20456E65746572696E67204953500DF8
:1054A0000A0D0A0005490A6803239A4301E00449EA
:1054B0000A681043086070470000000000000140C7
:1054C0001800014070B582B000210920FFF756FE98
:1054D00005002C4C2600AC3680222100083130001B
:1054E00000F0A0F80023320029002000883000F0EE
:1054F000C1F800BF26A52800FFF70EFF38A00090D6
:1055000034A3214A31A100BF25A0FFF705FF0022E7
:1055100005210220FFF74BFE0100CC342000FEF7EE
:105520003BFF6420FFF764FE2800FFF7F5FE1748F5
:10553000C178009183784278017800BF2BA0FFF7F3
:10554000EBFE73BD10B50F4C0E212000CC30FEF7E2
:10555000DDFF002205211020FFF729FE0100216058
:105560002000FEF719FF002200210B20FFF71FFE8D
:10557000BC3401692000FFF749FD00212000FFF73E
:1055800098FD10BD5C0100200002000400E003084B
:105590001B5B30306D0D0A5B494E464F5D3A200073
:1055A0001B5B30306D55424C2076657273696F6EAF
:1055B0003A202573205B25785D2C206275696C7418
:1055C000206F6E202573202573000000342E302EAE
:1055D000322E30004D6179203331203230313600A7
:1055E00031383A32363A3239000000001B5B303035
:1055F0006D55424C3A2072656164206669726D7720
:105600006172652076657273696F6E3A20762564E3
:105610002E25642E25642E2564000000016881601B
:10562000C160704780B501604260FFF7F7FF01BDC0
:1056300045490068C06880000858704770B50C0084
:105640001500414980000E58002D0BE080213000EC
:1056500000F006F90028F9D02178300000F0EBF8CE
:10566000641C6D1EF2D18021300000F0F9F8002892
:10567000F9D070BDF4B586B004000D001F00E868D5
:10568000324E81007158002936D1FFF7F5F8E868ED
:1056900080003450256006986060A7600020E060BC
:1056A00020616061A061E0612062A968009100BF93
:1056B00027A12A6992008958019100BF26A16A6931
:1056C00092008958039100BF26A1AA6992008958C7
:1056D000029105900C2004902000FFF7A9FF040020
:1056E000694600F045F8C0218903200000F0A0F8C9
:1056F0000121200000F091F807B0F0BD70B5040062
:105700000D001600FFF794FF320029002068C068E2
:10571000FFF794FF002070BD80B569460870002235
:1057200001210920FFF743FD002809D00749C0687F
:1057300080000858002803D001226946FFF7DEFFE9
:105740006846007802BD00005001002030020020B1
:105750000000000000100000000000000006000033
:1057600000040000000000000030000000200000E5
:10577000F0B587B004000D00206801218843206047
:10578000606830490140A8680843606020682E497D
:10579000014068680843E9680143286908432060BC
:1057A000A0682A49014068690843A0606846FEF77E
:1057B0005FFF2348844201D1069800E002982968DF
:1057C00019225043802636022268324001D0490017
:1057D00000E08900FEF7E4FF07006421FEF7E0FF28
:1057E0000001010964225143791A2268164008D049
:1057F0000600C80032306421FEF7D2FF4107490F8E
:1058000007E00600080132306421FEF7C9FF0107F6
:10581000090F3143A18107B0F0BD0029016803D011
:1058200001220A43026070470122914301607047E0
:1058300082680A4B0CE0C905C90D0185704700005C
:1058400000380140FFCFFFFFF3E9FFFFFFFCFFFF40
:10585000134083608268114381607047FFFFCFFF70
:1058600002000020D269114000D00120704730B4FE
:1058700001210268001D002A0FD00368C318446884
:1058800008300C4202D04D466D1E64191D6825601B
:105890001B1D241D121FECD0F8E730BC7047FEE73B
:1058A00010B5074979441831064C7C44163404E09D
:1058B000081D0A68891888470100A142F8D110BD67
:1058C000080000002800000087EFFFFFE80000004C
:1058D0005C0100200000000097FFFFFF9C0000001B
:1058E0006C000000C0000020000000000120C04645
:1058F000002801D0FFF7D4FF0020C046C046FFF7C4
:105900001DFD00F000F880B500F002F801BD0000B8
:105910000746384600F002F8FBE7000020210903A3
:1059200026311820ABBEF9E738B505000C00200081
:10593000FFF7F2FEA04200D00025280032BDC0468D
:10594000C046C046C046FFF7D1FF0000001300006C
:10595000180023000000000000003F0000090000C4
:105960000000000000000000000000001400000023
:1059700000000000000000000000000068000000BF
:105980005E0100000A0000000300000002000000A9
:10599000E440000800000000F44000080A00000095
:1059A00014000000020000001C4100080500000077
:1059B000040000000A0000000500000001000000D3
:1059C0006841000800000000784100080000000065
:1059D000010203040102030406070809003801401C
:0859E0000044004000480040B3
:1059E800FFFFFFFFFFFFFFFFFFFFFFFFFFFFFFFFBF
:1059F800FFFFFFFFFFFFFFFFFFFFFFFFFFFFFFFFAF
:105A0800FFFFFFFFFFFFFFFFFFFFFFFFFFFFFFFF9E
:105A1800FFFFFFFFFFFFFFFFFFFFFFFFFFFFFFFF8E
:020000040803EF
:04F804008BA7155E5B
:00000001FF
