:020000040800F2
:10400000C00600209D590008015300080D53000808
:10401000974A0008974A0008974A000800000000E5
:10402000000000000000000000000000195300081C
:10403000974A00080000000025530008714C000852
:1040400070B586B006000C00002534600320029095
:1040500000200500EDB2E068854200D3B9E00121FF
:10406000964832681269EDB204236B43D258520964
:104070005207520F08235A438018406800F016FA7E
:1040800001202169EDB204226A438958090AC90650
:10409000C90E884000902069EDB204216943405860
:1040A000400B4007400F002806D0022875D02CD3C3
:1040B000042801D076D37AE0002001902069EDB287
:1040C000042169434058000C4007400F012802D1E9
:1040D0000120049018E02069EDB2042169434058A2
:1040E000000C4007400F002802D1022004900BE092
:1040F0002069EDB2042169434058000C4007400F8D
:10410000022801D10020049051E0012001900020FC
:1041100004902069EDB2042169434058C00C400767
:10412000400F002802D1012003900BE02069EDB27E
:10413000042169434058C00C4007400F012801D1B9
:10414000002003902069EDB2042169434058000C1F
:104150004007400F03280AD12069EDB204216943CA
:10416000405CC106C90E300000F037F814E0206949
:10417000EDB2042169434058000C4007400F042869
:104180000AD12069EDB204216943405CC106C90E21
:10419000300000F059F8FFE709E00320019000200B
:1041A000049004E00320019000200490FFE769469A
:1041B000424832681269EDB204236B43D258520967
:1041C0005207520F08235A43805800F0B7F96D1C6C
:1041D00040E70120307106B070BDF8B504000F0053
:1041E0000026002500200500EDB22068C068854249
:1041F00029D2012021680969EDB204226A43895855
:10420000090AC906C90E8840060020680069EDB297
:1042100004216943405CC006C00E874211D13100C1
:1042200089B2264822681269EDB204236B43D25842
:1042300052095207520F08235A43805800F0DEF902
:1042400001E06D1CD0E7F1BDF8B505000E000024BB
:1042500000200400E4B22868C06884422BD2286899
:104260000069E4B204216143405CC006C00E86428E
:104270001FD1012029680969E4B2042262438958E8
:10428000090AC906C90E88406946088000226846A6
:1042900001880A482B681B69E4B204276743DB598D
:1042A0005B095B075B0F08277B43C05800F0A9F947
:1042B00001E0641CCEE7F1BD000000006C55000871
:1042C00038B505000C0021002800FFF786FF31BD3E
:1042D0001948006801210143174801601848006827
:1042E000164901401648016013480068154901400D
:1042F0001148016010480068134901400E480160F0
:104300000F480068114901400D48016010480068DD
:104310000F2188430E4908600E4800680E4901408D
:104320000C4801600D480068012188430B49086072
:1043300000200B4908607047001002400CB8FFF8DD
:1043400004100240FFFFF6FEFFFFFBFFFFFFC0FF70
:104350002C10024030100240ACFEFFFF341002402F
:1043600008100240FCB50400002500260020019042
:10437000002000900027654800680C2101400D00D6
:104380002800002804D0042805D0082806D027E0FB
:104390006248206026E05F48206023E05B480068B8
:1043A000F021890301400E0058480068802149022D
:1043B00008400190B60CB61C0198002803D156485D
:1043C000704320600BE0564800680007000F401C57
:1043D00000905048009900F054F97043206001E0CB
:1043E0004E48206049480068F02101400D002D0929
:1043F0004C48405D07002068F84060604348006812
:10440000E021C90001400D002D0A4648405D07002B
:104410006068F840A0603E480068C00502D4424889
:10442000E0600AE039480068400403D4A06840080E
:10443000E06002E0A0688008E0603548006840065F
:1044400002D43A48206102E0802000022061304816
:104450000068C00602D43148606101E020686061F4
:104460002B4800688007800F002802D1A068A06157
:104470001AE0274800688007800F012802D12068D1
:10448000A06111E0224800688007800F022803D154
:1044900080200002A06107E01D4800688007800FAF
:1044A000032801D11D48A061F3BD000000B500291B
:1044B00005D01F4A126802431D4B1A6004E01C4AD3
:1044C000126882431A4B1A6000BD000000B5002933
:1044D00005D0184A12680243164B1A6004E0154AC8
:1044E00012688243134B1A6000BD000000B500291A
:1044F00005D0114A126802430F4B1A6004E00E4ABD
:10450000126882430C4B1A6000BD00000410024088
:10451000301002400080BB0000093D0000127A000C
:104520002C100240B8010020809FD50012800000AE
:1045300014100240181002401C100240F0B5002276
:104540000023002400252A00102A56D20125954078
:104550002B000D681D402C009C424CD14D68012D54
:1045600002D04D68022D1ED186680327BC46150077
:1045700002277D436746AF40BE43866086688F68EA
:10458000BC46150002277D436746AF40374387602E
:10459000858801269640B54385808588CE68B6B269
:1045A00096402E43868006680327BC4615000227E6
:1045B0007D436746AF40BE43066006684F68BC4611
:1045C000150002277D436746AF4037430760C66842
:1045D0000327BC46150002277D436746AF40BE4314
:1045E000C660C6680F69BC46150002277D43674652
:1045F000AF403743C760521CA6E7F0BD89B2816166
:10460000704700B5002A02D089B2816100E00185BF
:1046100000BDF8B400230024D2B20D006D076D0F69
:10462000042675431600AE40330089B20D00ED102C
:10463000042675434519009589B20D00ED10042636
:10464000754345192F6A0F25AC460D006E07760F8E
:1046500004256E436546B540AF43009D2F6289B285
:104660000D00ED100426754345192D6A1D432C00DD
:1046700089B20D00ED100426754345192C62F1BC7A
:1046800070470022030A8B420BD203098B4219D2D6
:1046900043088B422ED2411A00D2014652411046A5
:1046A0007047FF2209023FD012068B4205D3121237
:1046B00009028B4201D31212090203098B4219D35A
:1046C00000E0090AC3098B4201D3CB01C01A524151
:1046D00083098B4201D38B01C01A524143098B429B
:1046E00001D34B01C01A524103098B4201D30B0184
:1046F000C01A5241C3088B4201D3CB00C01A5241A9
:1047000083088B4201D38B00C01A524143088B426D
:1047100001D34B00C01A5241884200D3401A524183
:10472000CFD201461046704708B500F001F808BD29
:10473000704730B4012100220368001D002B0BD00C
:104740000468001D0C4202D04D466D1E64192260A3
:10475000241D1B1FF0D0FAE730BC70477349006876
:1047600000690422504308587047F8B507000C0050
:1047700015006E48042179434658002D0DD0802144
:10478000300000F07BF90028F9D0217889B23000A0
:1047900000F068F9641C6D1EEFE78021300000F026
:1047A0006DF90028F9D0F1BDF4B586B004000D0014
:1047B0001F005F485F482969042251434058002880
:1047C00040D1286900F068F95A4829690422514308
:1047D0004450256006986060A7600020E0600020DB
:1047E0002061002060610020A0610020E0610020C5
:1047F0002062E8680090504869690422514340589B
:1048000001904E48A96904225143405803904C48F6
:10481000E9690422514340580290002005900C2081
:1048200004902000FFF79AFF06006946300000F070
:1048300089F8C0218903300000F009F90121300016
:1048400000F0F8F807B0F0BDF2B50500170000243D
:104850002800FFF783FF06003A00009928680069E6
:10486000FFF783FF2000F2BDF8B506002F480421B2
:10487000714344582F48042171434558E06980062C
:1048800018D5206A202188432062A08C0700A868E0
:10489000002804D03900C9B2A86800F07EF9286960
:1048A000002807D06846477030006946087068469F
:1048B00029698847E069000701D508202062E0697E
:1048C000400704D504202062286A401C2862E06961
:1048D000800704D502202062A869401CA861E06915
:1048E000C00704D501202062E869401CE861F1BDE1
:1048F00070B582B0050028006946087000220121C9
:104900000A2000F087F90400002C0BD00948216927
:10491000042251434658002E04D00122694630003B
:10492000FFF792FF6846007876BD0000EC0100209A
:1049300069480008B8020020B05900086C59000806
:1049400078590008F0B589B005000E000024002059
:1049500000900027002001902868012188432860EA
:10496000686804002000414C04402000B4680443FF
:104970006C602868040020003D4C04407068F168B9
:10498000014330690843204304002C60A8680400F8
:104990002000384C0440200074690443AC6002A835
:1049A000FFF7E0FC2E48854202D10898009001E014
:1049B000049800902868000409D5009819214843FC
:1049C000316802225143FFF75CFE070008E00098BF
:1049D00019214843316804225143FFF752FE070072
:1049E00038006421FFF74DFE00010400200000099B
:1049F00064214843381A0190286800040BD50198B7
:104A00000821484332306421FFF73BFE4007400F46
:104A1000204304000AE00198102148433230642109
:104A2000FFF72FFE0007000F204304002000A8819D
:104A300009B0F0BD00B5002904D00268012313437A
:104A4000036003E0026801239A43026000BD8268AC
:104A5000094B1340836082680A43826070470000FC
:104A600000380140CA05D20D02857047FFCFFFFF15
:104A7000F3E9FFFFFFFCFFFFFFFFCFFF00B50200E0
:104A80000020D3690B40002B02D00123180001E065
:104A90000023180000BDFEE710B58AB00400002C0A
:104AA00002D0012C27D04CE0012180208002FFF7AA
:104AB000FDFC01218020C001FFF708FD0122092132
:104AC0009020C005FFF7A5FD01220A219020C00516
:104AD000FFF79FFDC020C000059003200790022033
:104AE0000690002008900120099005A99020C0059B
:104AF000FFF724FD25E0012180208002FFF7D6FC8E
:104B0000012180208002FFF7F1FC01220221902088
:104B1000C005FFF77EFD012203219020C005FFF7AD
:104B200078FD0C20009003200290022001900020CC
:104B300003900120049069469020C005FFF7FEFC19
:104B4000FFE70AB010BD016881600168C16070476D
:104B500038B504000025200000F006F86168081A46
:104B6000401E0500280032BD30B50100CA688B68C0
:104B70004C680020934202D39D1A280002E0E518F9
:104B80002800801A30BD70B504000D0016002560A5
:104B900066602000FFF7D7FF70BD38B505000C0038
:104BA0002800FFF7D5FF002801D101200FE0A868F9
:104BB0000470A868401C29686A688918884202D372
:104BC0002868A86002E0A868401CA860002032BDE8
:104BD00010B502000023002901D0088803002248F4
:104BE00000789BB280B2834212D220489BB2042448
:104BF0005C4300590068824208D1002900D00B8034
:104C00001A489BB204245C43005902E05B1CE6E7AF
:104C1000002010BD30B503000024002A01D0108808
:104C2000040011480078A4B280B284421AD20F481E
:104C3000A4B20425654340590068834210D10B4853
:104C4000A4B20425654340594068814208D1002A36
:104C500000D014800548A4B204256543405902E001
:104C6000641CDEE7002030BD1651000838550008EE
:104C70005E480068401C5D490860704770B50400DC
:104C8000FFF726FB002058490860002054490860BF
:104C9000002054490860012080F3108860680600F5
:104CA0003500206880F30888A84770BDF8B5070074
:104CB0000E003C000025ED4301214020FFF7F6FBEC
:104CC00000F0A4F8B44205D2206800F0A3F8050073
:104CD000241DF7E700214020FFF7E8FB2800F2BD84
:104CE000F1B586B00C0006980068A04256D0404846
:104CF000006802903F48006804903F4800680390B5
:104D00003E48006801903E48006800903D480768B2
:104D10003D48066806983649401A0AD0FC218900A9
:104D2000401A0AD0001F0AD0001F0AD0083802D04B
:104D300009E0029407E0019405E0009403E02700F5
:104D400001E02600FFE700F06FF8294800F07FF847
:104D500005000299264800F09FF8050004992548AF
:104D600000F09AF805000399234800F095F8050033
:104D70000199224800F090F805000099204800F0C1
:104D80008BF8050039001F4800F086F80500310057
:104D90001D4800F081F8050000F052F807B0F0BDA2
:104DA00010B5040021001248FFF79AFF10BD10480B
:104DB00000687047FEB507000C00089DE4B22006AD
:104DC00069460979090401436846007A06020E43E0
:104DD000EDB22E4331003800FFF782FFF7BD00002F
:104DE00014E000E018E000E010E000E0B402002071
:104DF00000F8030804F8030808F8030800FC030897
:104E0000F0FB0308F4FB0308F8FB03080120054945
:104E1000086070470100024801600148006870475F
:104E2000003002400830024000B5374800680006F4
:104E300005D536483849086035483749086000BD0F
:104E400031480068802101432F480160704738B520
:104E500004000425B020000300F07EF80500042DB6
:104E600018D12948006802210143274801602948D8
:104E70000460254800684021014323480160B020B8
:104E8000000300F069F805001F480068022188430C
:104E90001D490860280032BD70B582B005000C00C5
:104EA000042600200090B020000300F055F8060012
:104EB000042E27D1144800680121014312480160E3
:104EC00020002880B020000300F046F80600042EE1
:104ED00012D12800801C00902000000C009908804E
:104EE000B020000300F038F80600074800680121F0
:104EF00088430549086005E00348006801218843AC
:104F000001490860300076BD10200240230167454A
:104F1000AB89EFCD142002400420024000B50420EC
:104F20000C490968C90702D5012108000FE00949A9
:104F30000968C90602D50221080008E00549096888
:104F4000490702D50321080001E00421080000BD43
:104F5000000000000C20024038B504000425FFF7D3
:104F6000DDFF0500012D06D1002C04D0FFF7D6FF90
:104F70000500641EF6E7002C01D10520050028007D
:104F800032BD70B5060008001400002B05D01D00CE
:104F90002178B047641C6D1EFAD170BDFDB586B096
:104FA0000C0009E00123079A21000698FFF7E9FFAA
:104FB00004000798401C079007980078002801D14A
:104FC00009B0F0BD2528EDD107984678801C0790E0
:104FD000252E00D195E0582E69D0632E0ED0642E78
:104FE0001AD0692E18D06F2E61D0702E68D0732E13
:104FF00070D0752E5BD0782E59D0DDE70898006808
:10500000089908600168001D089A1060C9B2200064
:10501000069A90470400CFE708980068089908604E
:105020000568001D08990860002D04D52D21200079
:10503000069A9047040064266F2E01D1082106E0ED
:1050400020213143782901D00A2100E0102101916B
:105050000B2100912F00642E03D1002D01D5784241
:105060000700009D6D1E009538000199FFF709FBB0
:105070003031C9B23A2902DB30005138091802A890
:105080004519297038000199FFF7FBFA070002D093
:1050900000980128E5DA20000B21009A8C1AB9D07B
:1050A0002978069A90476D1C641EF9D1B2E70898DA
:1050B0000068089908600568001D08990860BBE74A
:1050C00008980068089908600568001D089908603C
:1050D0007826B1E708980068089908600568001DFF
:1050E00008990860280000F00EF80100200000294F
:1050F00090D00C002978069A90476D1C641EF9D157
:1051000088E7252183E7010000E0491C0A78002A8E
:10511000FBD1081A70470D00F3B581B02B48076822
:105120002B492C48FFF7C2FD0600FFF740FE0500A3
:10513000002400200400302C09D2A0002649405849
:1051400080218905042262438850641CF3E7012111
:105150000120FFF7BBF9032000F050F800F066F8DB
:10516000002000900123002200211C48FFF722FEAE
:105170001B4800F0A7F829001A4800F0A3F8002DFA
:1051800016D1BE4209D1164800F09CF8164800F02E
:1051900099F81048FFF772FD0AE0144800F092F801
:1051A0003A003100124800F08DF80520FFF7F8FDB5
:1051B0000E4800F087F80F4800F084F800F05AF825
:1051C0000D48FFF75BFD0120FEBD000008F8030855
:1051D000FFE7030800A0000800400008F4FB0308F4
:1051E0001C590008585700088C560008E858000859
:1051F000CC550008CC57000800D8FF1F0021044AF6
:1052000012681100032291430143014A1160704763
:105210000000014010B5002205210020FFF7FAFC34
:10522000040021001C48FEF70BFF10BD10B582B032
:1052300000210A20FFF7CCFC0400802217491848FF
:10524000FFF7A1FC0023164A21001648FFF7ACFA2D
:10525000154800F037F815480090154B15480268BE
:105260001549164800F02EF8FFF7D4FF642000F02F
:105270003BF813BD80B504210748FFF721F8002251
:1052800005211120FFF7C6FC0D4908600C48016894
:105290000B48FEF7D5FE01BDA4020020F00100205E
:1052A00094020020700200202C5900089059000838
:1052B0008459000800980008B8590008B056000842
:1052C000AC0200200EB400B582B003A900916B4679
:1052D00002000121034878440A30FFF75FFE02997B
:1052E00006B008474D05000000B5FA21890041438A
:1052F0000A00511E002A02D000BF00BFF8E700BD1F
:1053000080B50021154800F013F8FEE780B50021B4
:10531000134800F00DF8FEE780B50021114800F0B9
:1053200007F8FEE780B500210F4800F001F8FEE71E
:1053300038B504000D000D48007800280DD101207B
:105340000A4908700A48FFF7BDFF2A0021000948F2
:10535000FFF7B8FF0848FFF791FCFEE75459000833
:10536000C0580008605900080C590008BC02002011
:10537000D45800086856000800D8FF1F000000003D
:105380000000000001000000060000000100000015
:105390000100000001000000070000000200000002
:1053A00002000000010000000500000003000000F2
:1053B00003000000010000000400000004000000E1
:1053C00003000000000000000700000005000000CE
:1053D00003000000000000000600000006000000BE
:1053E00003000000000000000500000007000000AE
:1053F000030000000000000004000000080000009E
:10540000030000000000000001000000090000008F
:105410000300000000000000000000000A0000007F
:105420000300000001000000030000000B0000006A
:105430000300000001000000020000000C0000005A
:105440000300000001000000010000000100000056
:105450000300000001000000050000000200000041
:105460000300000001000000040000000300000031
:105470000300000000000000040000000400000021
:105480000300000001000000030000000500000010
:105490000300000001000000020000000600000000
:1054A00003000000000000000100000007000000F1
:1054B00003000000000000000000000008000000E1
:1054C00003000000010000000700000009000000C8
:1054D0000300000001000000060000000A000000B8
:1054E0000300000000000000030000000B000000AB
:1054F0000300000000000000020000003B0000006C
:10550000030000000C0C0B001E000000FF0F000049
:105510003C000000040000000C0C0B001E0000000A
:10552000FF0F00003D000000050000000C0C0B0008
:105530001E000000FF0F0000C0000020EC00002053
:1055400084580008985800089457000870580008BC
:10555000AC5800084456000848590008185700087D
:10556000F856000838570008B057000800000048F7
:105570000000020000040048000004000008004889
:1055800000000800000C00480000100000000000AF
:1055900000000000001400480000400030B4012169
:1055A0000268001D002A0FD00368C3184468083041
:1055B0000C4202D04D466D1E64191D6825601B1DEE
:1055C000241D121FECD0F8E730BC70471B5B303055
:1055D0006D4170706C69636174696F6E206368659A
:1055E000636B73756D206572726F723A2025782037
:1055F0005B25785D0000000010B50749794418313B
:10560000064C7C44163404E0081D0A688918884753
:105610000100A142F8D110BDBC000000DC00000078
:10562000220E1100230F1100042F0C00052B0C007B
:10563000A6260C0027240C0028230C0029270C0088
:105640000A2C0B000A00000001000000000000000E
:1056500000C2010000000000000000000000000087
:1056600000000000000100001B5B30306D426C5FE9
:1056700045787048616E646C65723A2025732C0D14
:105680000A6C696E653A2025640D0A001B5B303098
:105690006D55424C3A206A756D7020746F204170D0
:1056A000706C69636174696F6E0D0A0D0A00000009
:1056B0001B5B30306D55424C3A20762573205B25BC
:1056C000785D2C206275696C74206F6E20257320C4
:1056D000257300005FF0FFFFD0000000F001002004
:1056E00000000000B9FEFFFF30010000E4020000EE
:1056F000C0000020000000001000000008000000B2
:105700000100000007000000180100204C540008B0
:10571000C80100206C0100200C00000008000000FF
:10572000010000000D000000340100207C5300083F
:10573000D4010020800100201100000008000000BA
:10574000010000000400000050010020BC540008CB
:10575000E0010020940100201B5B30306D55424C6D
:105760003A205354424C20737461747573203D2069
:105770003078255800000000AB210B002E001200ED
:105780000F021100B0270D00530E1100540F11002D
:10579000B500110003000000000000000000000040
:1057A0000000000000000000700000016400000024
:1057B00005000000000000000000000000000000E4
:1057C00000000000D8000000640000001B5B3030C7
:1057D0006D55424C3A20456E65746572696E67205E
:1057E0004953500D0A0D0A0000F00BF8002801D0B3
:1057F000FFF702FF0020C046C046FFF78DFC00F017
:1058000002F80120704780B500F002F801BD0000E9
:105810000746384600F002F8FBE7000080B5C046B6
:10582000C046024A11001820ABBEFBE7260002006A
:1058300038B505000C002000FFF75AF8A04200D050
:105840000025280032BD000000000000000000001C
:105850000000000002000000A8590008000000003D
:105860000000000000000000030000003C59000898
:105870001000000003000000000000000400000011
:10588000FC580008100000000500000000000000A7
:105890000700000078570008110000000500000014
:1058A0000000000001000000C859000800000000CE
:1058B000050000000000000009000000205600085C
:1058C000486172644661756C745F48616E646C65B2
:1058D000720000001B5B33316D0D0A5B4641544181
:1058E0004C5D3A20000000001B5B33316D0D0A5BFC
:1058F0004552524F525D3A2000000000868101005F
:10590000C7C10100080A0000494A000050656E64E2
:1059100053565F48616E646C657200001B5B3030EB
:105920006D0D0A5B494E464F5D3A20001B5B3030DF
:105930006D0D0A5B494E464F5D3A2000C3C0000022
:1059400004010100454101000D0000000B000000B2
:10595000000000004E4D495F48616E646C65720046
:105960005356435F48616E646C657200000000002E
:1059700000060000000400000000000000300000ED
:10598000002000004E6F7620323420323031370054
:1059900031373A35373A323100000000C046C04650
:1059A000C046C046FFF720FF200C11000100110087
:1059B0000000000000100000302E302E312E30008C
:1059C00018280C0039220C00370D100018280C0084
:1059D0000B000000050000000000000002000000B5
:1059E00000000000000000000000000000000000B7
:1059F0004858000800000000A80100200B0000002B
:105A00001300000000000000030000000000000080
:105A10000000000000000000000000005C580008CA
:105A200000000000FC540008160000000000000008
:105A3000000000000000000000000000B4000100B1
:105A40005E010000160000000000000000000000E1
:105A50000000000000000000B60001005E01000030
:105A60001600000000000000000000000000000020
:105A700000000000B40001005E01000016000000FC
:105A8000050000000000000001000000C0590008EF
:105A900016000000050000000000000001000000EA
:105AA000C4590008160000000500000000000000B6
:105AB00001000000CC5900080D00000000000000AB
:105AC00013000000010000000000000001020304B8
:105AD00001020304060708090000000000FFFF1F81
:105AE00010FF3F1300000000000000000000001342
:105AF0000000000000FFFF1F10FF3F1300380140AF
:049800000001000063
:0C9FF400FFFFFFFFFFFFFFFFFFFFFFFF6D
:020000040803EF
:04F80400184DA74FA5
:00000001FF
