:020000040800F2
:10000000D8050020AF180008890D0008950D0008DC
:100010002313000823130008231300080000000026
:10002000000000000000000000000000A10D00081A
:100030002313000800000000AD0D0008490400086B
:10004000400D1100410E1100240410002303100084
:10005000620210000000000000000000000000002C
:1000600005000000400000081C0000000000000027
:10007000000000000000000000000000000000017F
:10008000900100001D0000000000000000000000C2
:1000900000000000000000000000010190010000CD
:1000A00001000000000000003F000000010000000F
:1000B000180000000200000005000000030000001E
:1000C00004000000040000008E1301001500000071
:1000D000030000000000000001000000C80000084C
:1000E000302C0C00092F0C004A260B002B001000AE
:1000F00003000000050000000000000003000000F5
:10010000E400000803000000000000000000000000
:1001100000000000000000007600010190010000D6
:1001200005001100272E0C00262D0C0016000000E3
:10013000050000000000000003000000200100088E
:10014000040101000C930000494A00001600000061
:100150000300000000000000030000004001000850
:100160000C280C000D2B03000E2C0300092F0C0093
:100170004A260B00020000000500000000000000FD
:1001800005000000600100080200000001000000FE
:100190000000000000C2010000000000010000009B
:1001A0000200000000000000000000000D00000040
:1001B000080000000000000006000000740000209D
:1001C00000000020D4000020900000200B00000060
:1001D000010000000000000000C20100010000005A
:1001E000000000000000000000000000000000000F
:1001F000110000000B000000000000008801000852
:100200007401000848000020CC0000082C01000800
:100210004C010008F000000804010008AC010008CF
:10022000F00100086800000884000008CC01000804
:100230000D000000F0B583B0002000F0F5F8364E58
:10024000356800F08AF9019000F0AEF900200090C6
:10025000002300220321314800F088F93049314859
:1002600000F00CF907003049304800F007F9009021
:1002700030A4019801280DD1C046C046002000F0EE
:1002800066F9022000F06CF9200000F037FA00BF98
:100290002CA008E000F0BDF9012000F061F9200079
:1002A00000F02CFA2EA000F029FA200000F026FA27
:1002B00031A000F023FA200000F020FA2A003900D3
:1002C00037A000F01BFA200000F018FA72680099BD
:1002D0003AA000F013FA200000F010FA019900BFD4
:1002E0003DA000F00BFA0198052807D8BD4202D1C5
:1002F0000C4800F0B1F8042000F029F93EA000F00D
:10030000FDF900BF41A000F0F9F900F0A5F9084897
:1003100000F0A2F80120FEBD04F80308F0FB03087A
:10032000FF9F000800400008FFE7030800A0000846
:1003300000D8FF1F1B5B30306D0D0A5B494E464FE6
:100340005D3A20001B5B30306D5049553A20736B8D
:100350006970204153452D544B20626F6F7400002B
:100360001B5B30306D5049553A20626F6F742041ED
:1003700053452D544B0000001B5B30306D504955E8
:100380003A20636865636B73756D3A202063616C16
:100390006320205B202073746F72656420205D00F1
:1003A0001B5B30306D5049553A2075626C203D2002
:1003B00030782558205B307825585D001B5B303045
:1003C0006D5049553A20667720203D2030782558D9
:1003D000205B307825585D001B5B30306D504955EF
:1003E0003A205354424C20737461747573203D203D
:1003F000307825580D0A00001B5B33316D0D0A5B08
:100400004552524F525D3A20000000001B5B3030D5
:100410006D5049553A20456E746572696E67204982
:1004200053500D0A0000000005490A6803239A434F
:1004300001E004490A6810430860704700000000AA
:1004400000000140180001404E480168491C01604D
:1004500070474C480068704710B5040000F060F920
:1004600049480021016041608160012080F31088CB
:100470006068216881F30888804710BD70B50E0060
:1004800004000025ED430121402000F0EFF900F0C9
:100490001FFA04E0206800F01FFA0500241DB44292
:1004A000F8D30021402000F0E1F9280070BD026877
:1004B0008A4200D17047F0B585B0344A1668536857
:1004C000039392680292324A136901931468536845
:1004D000009397682D4A801A0AD0FC229200801A55
:1004E0000AD0001F0AD0001F0AD0083802D008E046
:1004F0000E0006E0019104E00C0002E0009100E033
:100500000F0000F0F1F9214D280000F0FCF9310056
:10051000280000F013FA03991E4800F00FFA029920
:100520001D4800F00BFA01991C4800F007FA210061
:10053000174800F003FA0099194800F0FFF9390054
:10054000184800F0FBF900F0D8F905B0F0BD80B50F
:1005500001000E48FFF7ABFF01BD0C480068704773
:1005600080B501000D48FFF7A2FF01BD80B5090667
:1005700012040A431B02134302991943FFF797FF22
:1005800001BD0000D001002010E000E000F80308E9
:10059000F0FB030804F8030808F8030800FC03084C
:1005A000F4FB0308F8FB030870B582B000210B20B0
:1005B00000F01AFA0500394C2600AC3680222100E2
:1005C0000831300000F04EFA0023320029002000EC
:1005D000883000F06FFA00BF33A000F08FF800BF42
:1005E00043A000903FA3C022920400BF3BA100BFE4
:1005F00031A000F083F800220521022000F00DFA5E
:100600000100D434200000F0D3FA642000F0B0FBE5
:1006100073BD10B5224C0D21200000F088FB322064
:1006200000F0A6FB0E21200000F07CFBC82000F0AB
:100630009FFB0E21200000F07AFB1A4800F098FB87
:100640000E21200000F06EFB322000F091FB0D2106
:10065000200000F067FB10BD10B5104C0C212000ED
:10066000D43000F05FFB00220521162000F0D5F900
:1006700001002160200000F09BFA002208210D20DB
:1006800000F0CBF9BC340100200000F0EBFB0021AE
:10069000200000F02EFC10BD00000000DC00002057
:1006A000B0010020280A00001B5B30306D0D0A5B92
:1006B000494E464F5D3A20001B5B30306D50495526
:1006C0003A20762573205B25785D2C206275696C55
:1006D0007420206F6E20257320257300332E302E5A
:1006E000302E30004D6179203135203230313700E5
:1006F00031363A30353A3530000000000EB400B5DE
:1007000082B003A900916B4602000121034878449E
:100710000A3000F066FC029906B008477D1100001F
:100720001A48016801220A4302604168184A0A40D7
:1007300042600168174A0A4002600168164A0A408E
:1007400002604168154A0A404260C16A0F22914323
:10075000C162016B444A0A400263416B012291432A
:1007600041630021816070471043086070474F4922
:100770000A6810239A430A600A68F5E74B490A6839
:1007800003239A430A600A68EEE700000010024063
:100790000CB8FFF8FFFFF6FEFFFFFBFFFFFFC0FFF7
:1007A000F0B50400404D2968414E42480C220A40F1
:1007B000042A15D0082A12D129682A6889020F0F45
:1007C000BF1CD10303D438007108484308E0A96A6C
:1007D0000907090F491C00F0B9FC784300E030001C
:1007E00020602A68344821681206120F825CD140CA
:1007F00061602A685205520F805CC140A160E86ABE
:10080000C00501D42D4805E02868400401D44808FB
:1008100000E08808E06080200002E96A490601D40F
:10082000274900E001002161E96AC90601D43100CD
:1008300000E0216861610321EA6A0A4001D1A068F1
:1008400009E0EA6A0A40012A01D1206803E0EA6A65
:100850000A40022A01D1A061F0BDE86A01400329E3
:1008600000D1A661F0BD0000ACFEFFFF154A0029D3
:10087000116802D0084310607047814311607047CF
:10088000114A0029116802D0084310607047814363
:10089000116070470D4A0029116802D008431060AA
:1008A00070478143116070470410024030100240CD
:1008B00000127A00001BB700B8000020809FD5000E
:1008C0001280000014100240181002401C10024058
:1008D00001200449086070470149086008687047B2
:1008E00000300240083002402848C168090603D59C
:1008F0002749016027490160704727480168802225
:100900000A430260704770B50400B0252D0328002B
:1009100000F05AF8042810D11F4E3068022101431C
:10092000316074603068402101433160280000F07C
:100930004BF8316802229143316070BDF2B582B04C
:10094000040000200090B0273F03380000F03CF87E
:10095000042819D1104D286801210143296002980B
:100960002080380000F030F80126F643042808D132
:10097000A41C00940298000C00990880380000F034
:1009800023F829680E402E60FEBD000004200240BE
:1009900023016745AB89EFCD1020024010B504213B
:1009A00004200122074B1C68144001D0012010BD17
:1009B0001A68D20601D5022010BD1A68114000D075
:1009C000032010BD0C20024010B50400FFF7E6FF25
:1009D00004E0002C06D0FFF7E1FF641E0128F8D0E8
:1009E000002C00D1052010BD10B502000023002905
:1009F00002D00B8800E05B1C164800789BB2834253
:100A000009D215489C0000590468A242F3D100297C
:100A100002D00B8010BD002010BD30B503000024B3
:100A2000002A03D0148801E0641CA4B209480078AD
:100A300084420CDA0848A50040590568AB42F3D15E
:100A40004568A942F0D1002A02D0148030BD0020B0
:100A500030BD000030020008FC0100080168816020
:100A6000C160704780B501604260FFF7F7FF01BDCC
:100A700045490068006980000858704770B50C004F
:100A80001500414980000E58002D0BE080213000F8
:100A900000F040FC0028F9D02178300000F025FC5F
:100AA000641C6D1EF2D18021300000F033FC002860
:100AB000F9D070BDF4B586B004000D001F002869A0
:100AC000324E81007158002936D100F02BFC286984
:100AD00080003450256006986060A7600020E060C8
:100AE00020616061A061E0612062E968009100BF5F
:100AF00027A16A6992008958019100BF26A1AA69BD
:100B000092008958039100BF26A1EA699200895892
:100B1000029105900C2004902000FFF7A9FF04002B
:100B2000694600F07FFBC0218903200000F0DAFB5A
:100B30000121200000F0CBFB07B0F0BD70B5040030
:100B40000D001600FFF794FF3200290020680069AD
:100B5000FFF794FF002070BD80B569460870002241
:100B600001210B20FFF759FF002809D00749006930
:100B700080000858002803D001226946FFF7DEFFF5
:100B80006846007802BD0000C8000020C0010020B7
:100B9000000000000010000000000000000600003F
:100BA00000040000000000000030000000200000F1
:100BB000F2B586B0070039600320039000240726B1
:100BC000012511E0032002900020059001A944486E
:100BD0003A681269009BD25852093240D2008058BC
:100BE00000F064FC641CE4B20698C068844255D2EC
:100BF000A000009001213A483A681269009BD2583F
:100C000052093240D20080184068FFF72FFE069844
:100C10000069009940180168C904C90E01228A4080
:100C200001920168490B314006D00229CAD014D381
:100C3000042901D0C6D3C9E7002102910068000C45
:100C400007210140012901D10595BFE7304001D1BD
:100C50000220BAE70229B9D1B6E702950021059131
:100C60000168C90C314201D1049504E031400129E9
:100C700001D1002104910068010C3140032905D104
:100C8000C106C90E380000F00CF89FE704299DD179
:100C9000C106C90E380000F025F897E73D7107B08E
:100CA000F0BDE0B50022036801E0521CD2B2D86862
:100CB000824213D218699500455901202E0A1F2738
:100CC0003740B8401F262E40B142EED181B20448D1
:100CD0002A06520FD20080588161C046E0BD000054
:100CE000380D000838B5002204681F2301E0521CAB
:100CF000D2B2E068824214D22069950040591F2583
:100D00000540A942F3D100220121040A2340994061
:100D100089B200BF08A30006400FC000185800F0B9
:100D2000FFFB31BD80B5FFF7BCFF01BD000080B502
:100D3000FFF7D8FF01BD00000000004800000200DE
:100D400000040048000004000008004800000800FB
:100D5000000C00480000100000000000000000002F
:100D6000001400480000400080B500F001F801BD0B
:100D7000FA218900484301E000BF00BF0100481E7E
:100D80000029F9D17047000080B5002118A000F0BB
:100D900013F8FEE780B5002118A000F00DF8FEE77B
:100DA00080B500211AA000F007F8FEE780B5002109
:100DB0001AA000F001F8FEE738B504000D000A485B
:100DC000017800290ED10121017000BF17A0FFF7A3
:100DD00095FC2A00210000BF19A0FFF78FFC0348F3
:100DE000FFF73AFBFEE70000CE01002000D8FF1F0E
:100DF0004E4D495F48616E646C6572004861726473
:100E00004661756C745F48616E646C6572000000C9
:100E10005356435F48616E646C65720050656E6442
:100E200053565F48616E646C657200001B5B333122
:100E30006D0D0A5B464154414C5D3A2000000000B4
:100E40001B5B30306D426C5F45787048616E646C3E
:100E500065723A2025732C0D0A6C696E653A20255F
:100E6000640D0A0070B505000C00287A00283FD1F7
:100E70003F4EE1693000FFF79BFE10213000FFF785
:100E800056FF0020C046002803D03220FFF76CFF39
:100E900002E03220FFF76CFF10213000FFF742FF25
:100EA0002169280000F052FBA06902787F21280008
:100EB00000F062F8A06942781221280000F05CF886
:100EC000A06982781321280000F056F8A069C27842
:100ED0000221280000F050F8A069027903212800BF
:100EE00000F04AF8A06942791121280000F044F886
:100EF00070BD70B505001F480A225143461832885C
:100F0000002A32D0D2B21421280000F035F83088FF
:100F10000006000F8207920F03D00421280000F082
:100F20002BF830780207120F03D00521280000F0BB
:100F300023F8052430190279002A05D02100173141
:100F4000C9B2280000F018F8641EF3D1B278152158
:100F5000280000F011F8F2781621280000F00CF8B3
:100F600093221121280000F007F870BD0000000056
:100F7000B8010020A400002010B586B00400684627
:100F80000170427001A800BF0BA1102200F0B0FB5D
:100F90006068808A6946087168460490207A002853
:100FA00007D001A9200000F035FB002801D0002067
:100FB000207206B010BD000000000000000000001C
:100FC000020000000000000070B5060008001400D8
:100FD000002B05D01D002178B047641C6D1EFAD18E
:100FE00070BDFDB586B00C0009E00123079A210011
:100FF0000698FFF7E9FF04000798401C0790079840
:101000000078002801D109B0F0BD2528EDD107985E
:101010004678801C0790252E00D195E0582E69D087
:10102000632E0ED0642E1AD0692E18D06F2E61D088
:10103000702E68D0732E70D0752E5BD0782E59D05C
:10104000DDE708980068089908600168001D089AA3
:101050001060C9B22000069A90470400CFE70898B4
:101060000068089908600568001D08990860002D4F
:1010700004D52D212000069A9047040064266F2E87
:1010800001D1082106E020213143782901D00A212D
:1010900000E0102101910B2100912F00642E03D15B
:1010A000002D01D578420700009D6D1E0095380087
:1010B000019900F04BF83031C9B23A2902DB300017
:1010C0005138091802A8451929703800019900F013
:1010D0003DF8070002D000980128E5DA20000B2136
:1010E000009A8C1AB9D02978069A90476D1C641E14
:1010F000F9D1B2E708980068089908600568001DF2
:1011000008990860BBE708980068089908600568B6
:10111000001D089908607826B1E7089800680899CA
:1011200008600568001D08990860280000F0FAFAB8
:1011300001002000002990D00C002978069A9047E1
:101140006D1C641EF9D188E7252183E70022030A7C
:101150008B420BD203098B4219D243088B422ED209
:10116000411A00D20146524110467047FF2209023F
:101170003FD012068B4205D3121209028B4201D3D3
:101180001212090203098B4219D300E0090AC309AC
:101190008B4201D3CB01C01A524183098B4201D348
:1011A0008B01C01A524143098B4201D34B01C01A33
:1011B000524103098B4201D30B01C01A5241C308AB
:1011C0008B4201D3CB00C01A524183088B4201D31A
:1011D0008B00C01A524143088B4201D34B00C01A06
:1011E0005241884200D3401A5241CFD201461046A4
:1011F000704708B5C046C04608BD30B40121002282
:101200000368001D002B0BD00468001D0C4202D0A7
:101210004D466D1E64192260241D1B1FF0D0FAE795
:1012200030BC7047F0B587B004000D002068012184
:1012300088432060606830490140A86808436060C6
:1012400020682E49014068680843E968014328691D
:1012500008432060A0682A49014068690843A060EB
:101260006846FFF79DFA2348844201D1069800E0C2
:10127000029829681922504380263602226832409B
:1012800001D0490000E08900FFF760FF07006421FA
:10129000FFF75CFF0001010964225143791A2268BB
:1012A000164008D00600C80032306421FFF74EFF18
:1012B0004107490F07E00600080132306421FFF7BB
:1012C00045FF0107090F3143A18107B0F0BD002997
:1012D000016803D001220A43026070470122914352
:1012E0000160704782680A4B0CE0C905C90D018591
:1012F0007047000000380140FFCFFFFFF3E9FFFF18
:10130000FFFCFFFF134083608268114381607047D8
:10131000FFFFCFFF02000020D269114000D0012062
:101320007047FEE7F0B585B00327002601250224AB
:10133000002803D0022840D018D363E001214804DC
:10134000FFF794FA01218803FFF79AFA0020FFF7CC
:1013500015FA01220921C80600F0E8F801220A2145
:101360009020C00500F0E2F878021DE00121480459
:10137000FFF77CFA01214804FFF78CFA3048006837
:10138000304901402E48016000682D490860012263
:1013900002219020C00500F0C9F80122032190200D
:1013A000C00500F0C3F80C2000900297019403964A
:1013B000049569469020C00522E00121C804FFF78A
:1013C00055FA01218804FFF765FA1D4800681E4997
:1013D00001401B48016000681949086001220A2188
:1013E0001A4800F0A3F801220B21184800F09EF8DB
:1013F000B802009002970194039604956946134839
:1014000000F054F805B0F0BD10B586B00020FFF72D
:10141000AEF901218804FFF729FA01214805FFF7F9
:1014200039FA0B4C01220621200000F07FF801223E
:101430000721200000F07AF8C02029E00000000019
:1014400030100240FFFFFCFFFFFFF3FF00080048E1
:101450000004004810B586B00020FFF788F901218C
:101460008804FFF703FA01218805FFF713FA014CFE
:1014700002E000BF0004004801220A21200000F021
:1014800055F801220B21200000F050F8C020000187
:10149000009002200190012004900321029103900A
:1014A0006946200000F002F806B010BDF2B5002138
:1014B00001228A40009B1B68134093422CD14B00B1
:1014C00003259D40EC43009D6D68012D01D0022D48
:1014D00012D18668264086608668009FBF689F405C
:1014E000374387608688964386808288009EF668A8
:1014F000B6B28E40164386800268224002600268BF
:101500009D4015430560C2681440C460C268009CD9
:1015100024699C401443C460491C1029C8D3F1BD00
:10152000002A01D0816170470185704710B5CB0852
:101530009B00C0184907C90E036A0F248C40A343BF
:101540000362036A8A401A43026210BD70B5040048
:101550006160012565724869000C574E01060AD189
:101560007088401C70803078002811D1200000F075
:1015700011F835700CE0C0B2012809D1B088401CC8
:10158000B0807078002803D1200000F003F8757057
:10159000257270BD30B587B0050068684069000CE1
:1015A000010603D1FFF730FF444C05E0C0B201282B
:1015B00002D1FFF74FFF424C0020039001900290B0
:1015C00004900590069000BF0CA1C20089186A68BB
:1015D00092690B889A4202D14868009003E0401C4F
:1015E000C0B20328EFD36946200000F0A3F8012120
:1015F000200000F0CBF807B030BD000090010000E3
:10160000080310005E0100000905100064000000DE
:10161000130F4210F2B582B00700CE6878684069B7
:10162000000C01060AD1254D02980178028980201C
:1016300080017B7A002B009007D107E0C0B201281F
:1016400001D11F4DF0E70120FEBD0303D2B22800F7
:1016500000F0A7F802980089002807D1142202217F
:10166000280000F02FF800281DD112E000240CE023
:1016700014220221280000F025F8002813D1317827
:1016800028008162C046761C641C0298008984424E
:10169000EED1787A00280DD0C8222021280000F051
:1016A00011F8002802D00020C043FEBD20212800F0
:1016B000C161C0460020FEBDC801002000540040AA
:1016C00000580040F8B506000F0015000024FEF792
:1016D000C0FEFA20800045433900300000F078F861
:1016E000002803D16D1E012DF6DA01242000F2BD81
:1016F00070B4103A03D378C9103A78C0FBD25307BC
:1017000001D318C918C001D508C908C0D20704D32D
:101710000B880380891C801C002A01D50B7803707C
:1017200070BC7047010000E0491C0A78002AFBD118
:10173000081A7047026801239A4302600268204B2E
:1017400013404A681A438B681B02134303600A68FC
:101750001C4B134003610268012313430360002202
:101760008260C2608A690B69134383608268802348
:101770001B02134383600268CB6813430360426813
:10178000114B1340496919434160704700290168B2
:1017900003D001220A430260704701229143016095
:1017A000704730B54468094D25408905890D2943A6
:1017B00012040A43134303991943416030BD0000EA
:1017C000FFE0CF00FFFFFFF0FF7FFF07009800FC66
:1017D000FFE7020000209269114000D0012070470D
:1017E00030B401210268001D002A0FD00368C3181D
:1017F000446808300C4202D04D466D1E64191D68C5
:1018000025601B1D241D121FECD0F8E730BC70476B
:1018100010B5074979441831064C7C44163404E06D
:10182000081D0A68891888470100A142F8D110BD37
:101830000800000028000000C3F9FFFFF8000000C6
:10184000DC0000200000000099FFFFFFDC0000002A
:101850006C00000000000020000000000120C046D5
:10186000002801D0FFF7D4FF0020C046C046FEF795
:10187000E1FC00F000F880B500F002F801BD0000C6
:101880000746384600F002F8FBE700002021090374
:1018900026311820ABBEF9E738B505000C00200052
:1018A000FFF75AF9A04200D00025280032BDC046FB
:1018B000C046C046C046FFF7D1FF00000000000050
:1018C0000100000001000000010000000200000013
:1018D00011000000020000000000000021000000D4
:1018E00003000000010000003100000004000000BF
:1018F00002000000000000000500000000000000E1
:10190000100000000C0000000500000000000000B6
:1019100005000000000100000000000000000000C1
:10192000000000005400000800000000A0000008B3
:101930000D0000000000000000000000000000009A
:1019400000000000B6000000900100001B00000035
:10195000050000000000000001000000E000000899
:10196000240023000000000000003F0000090000E8
:101970000000000000000000010203040102030453
:1019800006070809003801400044004000480040B4
:08199000000400FFFF1300003A
:00000001FF
