:020000040800F2
:10000000400500203F190008F90D0008050E000802
:1000100093130008931300089313000800000000D6
:10002000000000000000000000000000110E0008A9
:1000300093130008000000001D0E0008D5040008FE
:10004000400D1100410E11002D0411002E0311006E
:100050006F02110000000000000000000500000019
:100060004000000816000000000000000000000032
:1000700000000000000000019001000017000000D7
:10008000000000000000000000000000000001016E
:100090009001000001000000000000002E000000A0
:1000A00001000000170000000D0000000500000026
:1000B0000E000000040000000F0000008E1301007D
:1000C0000F0000000300000001000000BC00000859
:1000D000342C0C0015000000050000000100000099
:1000E000D0000008080F100027220B0003000000BA
:1000F0000500000002000000E4000008030000000A
:10010000000000000000000000000000700001017D
:100110009001000008000000000000000000000046
:1001200000000000D8000100900100000500000060
:10013000000000000000000000000000DA000100E4
:1001400090010000030011002505110022200C0081
:10015000242D0C0010000000050000000400000029
:100160004401000844410100050101000C93000016
:100170004DD3000010000000030000000400000048
:100180006401000829280C000A2B0B000B2C0B0023
:100190000C08100002000000050000000400000030
:1001A00084010008020000000100000000C20100FC
:1001B000000000000100000002000000000000003C
:1001C000000000000000000000000000000000002F
:1001D000010000000100000010000000020000000B
:1001E00002000000200000000300000000000000EA
:1001F000300000000400000001000000400000008A
:100200000500000002000000500000000B0000008C
:10021000000000000000000000000000B600000028
:10022000900100000B00000000000000060000002C
:10023000C40100080C0200081100000000000000CA
:100240000000000000000000940000009001000089
:10025000090000000100000000C2010001000000D0
:10026000000000000000000000000000000000008E
:100270000C0000000B000000A4010008940100081D
:1002800020000020C000000854010008740100088C
:10029000EC000008FC000008140100082C01000814
:1002A000380200082402000870020008D400000888
:1002B000640000087C0000085002000811000000E3
:1002C000F0B583B0002000F0F5F8364E356800F048
:1002D0008AF9019000F0AEF900200090032300227B
:1002E0000221314800F088F93049314800F00CF91A
:1002F00007003049304800F007F9009030A4019819
:1003000001280DD1C046C046002000F066F9022049
:1003100000F06CF9200000F02DFA00BF2CA008E0DE
:1003200000F0BBF9012000F061F9200000F022FA92
:100330002EA000F01FFA200000F01CFA31A000F0FF
:1003400019FA200000F016FA2A00390037A000F050
:1003500011FA200000F00EFA726800993AA000F03D
:1003600009FA200000F006FA019900BF3DA000F054
:1003700001FA0198052807D8BD4202D10C4800F0C7
:10038000B1F8042000F029F93EA000F0F3F900BF15
:1003900041A000F0EFF900F09CF9084800F0A2F845
:1003A0000120FEBD04F80308F0FB0308FF9F0008CE
:1003B00000400008FFE7030800A0000800D8FF1F66
:1003C0001B5B30306D0D0A5B494E464F5D3A200095
:1003D0001B5B30306D5049553A20736B697020417A
:1003E00053452D544B20626F6F7400001B5B3030FF
:1003F0006D5049553A20626F6F74204153452D541A
:100400004B0000001B5B30306D5049553A2063684B
:1004100065636B73756D3A202063616C6320205BAC
:10042000202073746F72656420205D001B5B303088
:100430006D5049553A2075626C203D203078255822
:10044000205B307825585D001B5B30306D5049557E
:100450003A20667720203D2030782558205B307880
:1004600025585D001B5B30306D5049553A20535480
:10047000424C20737461747573203D203078255888
:100480000D0A00001B5B33316D0D0A5B4552524F64
:10049000525D3A20000000001B5B30306D50495522
:1004A0003A20456E746572696E67204953500D0A93
:1004B0000000000005490A6803239A4301E004494B
:1004C0000A68104308607047000000000000014007
:1004D000180001404E480168491C016070474C48B3
:1004E0000068704710B5040000F056F94948002133
:1004F000016041608160012080F31088606821689C
:1005000081F30888804710BD70B50E0004000025F7
:10051000ED430121402000F0E5F900F015FA04E078
:10052000206800F015FA0500241DB442F8D300211C
:10053000402000F0D7F9280070BD02688A4200D13F
:100540007047F0B585B0344A1668536803939268D3
:100550000292324A136901931468536800939768B2
:100560002D4A801A0AD0FC229200801A0AD0001F5D
:100570000AD0001F0AD0083802D008E00E0006E0BA
:10058000019104E00C0002E0009100E00F0000F097
:10059000E7F9214D280000F0F2F93100280000F0C1
:1005A00009FA03991E4800F005FA02991D4800F067
:1005B00001FA01991C4800F0FDF92100174800F0EC
:1005C000F9F90099194800F0F5F93900184800F0D8
:1005D000F1F900F0CEF905B0F0BD80B501000E488C
:1005E000FFF7ABFF01BD0C480068704780B5010004
:1005F0000D48FFF7A2FF01BD80B5090612040A43AA
:100600001B02134302991943FFF797FF01BD000036
:100610003801002010E000E000F80308F0FB0308B8
:1006200004F8030808F8030800FC0308F4FB0308B7
:10063000F8FB030870B582B00021092000F010FA21
:100640000500344C2600AC368022210008313000F1
:1006500000F044FA0023320029002000883000F026
:1006600065FA00BF2EA000F085F800BF3EA0009004
:100670003AA3294A37A100BF2DA000F07BF8002241
:100680000521022000F005FA0100CC34200000F022
:10069000CBFA642000F0A4FB73BD10B51F4C0B21F6
:1006A000200000F080FB0A21200000F07CFB642089
:1006B00000F096FB0B21200000F070FB642000F09E
:1006C0008FFB0A21200000F069FB642000F088FB0A
:1006D00010BD10B50F4C09212000CC3000F05EFB9E
:1006E00000220521102000F0D4F901002160200033
:1006F00000F09AFA002200210B2000F0CAF9BC3465
:100700000169200000F0E6FB0021200000F030FC31
:1007100010BD000054000020000300022001002052
:100720001B5B30306D0D0A5B494E464F5D3A200031
:100730001B5B30306D5049553A20762573205B2580
:10074000785D2C206275696C7420206F6E20257393
:1007500020257300322E302E332E30004A756E2045
:10076000323420323031360031343A34333A333097
:10077000000000000EB400B582B003A900916B46E2
:1007800002000121034878440A3000F062FC02991B
:1007900006B00847951100001A48016801220A4373
:1007A00002604168184A0A4042600168174A0A40DC
:1007B00002600168164A0A4002604168154A0A4010
:1007C0004260C16A0F229143C162016B444A0A40F0
:1007D0000263416B012291434163002181607047B4
:1007E0001043086070474F490A6810239A430A6013
:1007F0000A68F5E74B490A6803239A430A600A68C6
:10080000EEE70000001002400CB8FFF8FFFFF6FE14
:10081000FFFFFBFFFFFFC0FFF0B50400404D29685C
:10082000414E42480C220A40042A15D0082A12D10F
:1008300029682A6889020F0FBF1CD10303D438002E
:100840007108484308E0A96A0907090F491C00F02C
:10085000B5FC784300E0300020602A683448216805
:100860001206120F825CD14061602A685205520F55
:10087000805CC140A160E86AC00501D42D4805E054
:100880002868400401D4480800E08808E06080201F
:100890000002E96A490601D4274900E0010021610C
:1008A000E96AC90601D4310000E0216861610321D1
:1008B000EA6A0A4001D1A06809E0EA6A0A40012A0E
:1008C00001D1206803E0EA6A0A40022A01D1A0614E
:1008D000F0BDE86A0140032900D1A661F0BD000027
:1008E000ACFEFFFF154A0029116802D008431060D2
:1008F0007047814311607047114A0029116802D086
:100900000843106070478143116070470D4A002909
:10091000116802D00843106070478143116070472E
:10092000041002403010024000127A00001BB70091
:1009300038000020809FD500128000001410024073
:10094000181002401C100240012004490860704742
:1009500001490860086870470030024008300240D2
:100960002848C168090603D5274901602749016065
:1009700070472748016880220A430260704770B5BB
:100980000400B0252D03280000F05AF8042810D1E7
:100990001F4E30680221014331607460306840218D
:1009A00001433160280000F04BF831680222914386
:1009B000316070BDF2B582B0040000200090B02715
:1009C0003F03380000F03CF8042819D1104D286886
:1009D00001210143296002982080380000F030F89E
:1009E0000126F643042808D1A41C00940298000CA8
:1009F00000990880380000F023F829680E402E6026
:100A0000FEBD00000420024023016745AB89EFCD05
:100A10001020024010B5042104200122074B1C685D
:100A2000144001D0012010BD1A68D20601D5022061
:100A300010BD1A68114000D0032010BD0C200240E8
:100A400010B50400FFF7E6FF04E0002C06D0FFF726
:100A5000E1FF641E0128F8D0002C00D1052010BD54
:100A600010B502000023002902D00B8800E05B1CB7
:100A7000164800789BB2834209D215489C00005961
:100A80000468A242F3D1002902D00B8010BD0020DF
:100A900010BD30B503000024002A03D0148801E003
:100AA000641CA4B20948007884420CDA0848A50006
:100AB00040590568AB42F3D14568A942F0D1002AFC
:100AC00002D0148030BD002030BD0000BC02000800
:100AD0007802000801688160C160704780B50160DC
:100AE0004260FFF7F7FF01BD45490068C06880001C
:100AF0000858704770B50C001500414980000E5829
:100B0000002D0BE08021300000F03CFC0028F9D0E3
:100B10002178300000F021FC641C6D1EF2D1802190
:100B2000300000F02FFC0028F9D070BDF4B586B07D
:100B300004000D001F00E868324E81007158002942
:100B400036D100F027FCE868800034502560069814
:100B50006060A7600020E06020616061A061E061EA
:100B60002062A968009100BF27A12A6992008958D4
:100B7000019100BF26A16A6992008958039100BFC4
:100B800026A1AA6992008958029105900C20049030
:100B90002000FFF7A9FF0400694600F07BFBC0219D
:100BA0008903200000F0D6FB0121200000F0C7FBE4
:100BB00007B0F0BD70B504000D001600FFF794FFFC
:100BC000320029002068C068FFF794FF002070BD44
:100BD00080B569460870002201210920FFF759FFFE
:100BE000002809D00749C06880000858002803D0B1
:100BF00001226946FFF7DEFF6846007802BD00006B
:100C00004800002028010020000000000010000023
:100C100000000000000600000004000000000000CA
:100C20000030000000200000F2B586B007003960F7
:100C30000320039000240726012511E003200290E1
:100C40000020059001A944483A68D268009BD25818
:100C500052093240D200805800F070FC641CE4B2AB
:100C600006988068844255D2A000009001213A483D
:100C70003A68D268009BD25852093240D20080189C
:100C80004068FFF72FFE0698C06800994018016879
:100C9000C904C90E01228A4001920168490B314002
:100CA00006D00229CAD014D3042901D0C6D3C9E77B
:100CB000002102910068000C07210140012901D1A7
:100CC0000595BFE7304001D10220BAE70229B9D12A
:100CD000B6E70295002105910168C90C314201D1A6
:100CE000049504E03140012901D1002104910068FC
:100CF000010C3140032905D1C106C90E380000F0AE
:100D00000CF89FE704299DD1C106C90E380000F0F8
:100D100025F897E73D7107B0F0BDE0B50022036804
:100D200001E0521CD2B29868824213D2D868950072
:100D3000455901202E0A1F273740B8401F262E4054
:100D4000B142EED181B204482A06520FD200805837
:100D50008161C046E0BD0000B00D000838B500223A
:100D600004681F2301E0521CD2B2A068824214D250
:100D7000E068950040591F250540A942F3D10022A3
:100D80000121040A2340994089B200BF08A300064C
:100D9000400FC000185800F00BFC31BD80B5FFF7C4
:100DA000BCFF01BD000080B5FFF7D8FF01BD00000A
:100DB0000000004800000200000400480000040099
:100DC0000008004800000800000C00480000100067
:100DD0000000000000000000001400480000400077
:100DE000FA218900484301E000BF00BF0100481E0E
:100DF0000029F9D17047000080B5002118A000F04B
:100E000013F8FEE780B5002118A000F00DF8FEE70A
:100E100080B500211AA000F007F8FEE780B5002198
:100E20001AA000F001F8FEE738B504000D000A48EA
:100E3000017800290ED10121017000BF17A0FFF732
:100E400099FC2A00210000BF19A0FFF793FC03487A
:100E5000FFF748FBFEE700003601002000D8FF1F27
:100E60004E4D495F48616E646C6572004861726402
:100E70004661756C745F48616E646C657200000059
:100E80005356435F48616E646C65720050656E64D2
:100E900053565F48616E646C657200001B5B3331B2
:100EA0006D0D0A5B464154414C5D3A200000000044
:100EB0001B5B30306D426C5F45787048616E646CCE
:100EC00065723A2025732C0D0A6C696E653A2025EF
:100ED000640D0A0070B504000E00464D002028562F
:100EE000002839D1002205211520FFF7D2FD01008D
:100EF00028001830FFF798FE142128001830FFF75B
:100F000052FF3220FFF76CFF142128001830FFF742
:100F100045FF3100200000F061FB00227F2120000E
:100F200000F06AF8FF220221200000F065F8FF229D
:100F30000321200000F060F804221221200000F0BC
:100F40005BF800221321200000F056F86A78112186
:100F5000200000F051F805E0207A002802D120009E
:100F600000F03CFB012020732878401C287070BDE5
:100F7000F8B507001F4E0A20414375182D1D2A8819
:100F8000002A35D0D2B21421380000F035F8288874
:100F90000006000F8207920F03D00421380000F0F2
:100FA0002BF828780207120F03D00521380000F033
:100FB00023F8052428190279002A05D021001731C9
:100FC000C9B2380000F018F8641EF3D1AA781521D0
:100FD000380000F011F8EA781621380000F00CF81B
:100FE00070788022024372701121380000F004F8FA
:100FF000F1BD00000000002010B586B00400684676
:101000000170427001A800BF07A1102200F0B8FBD8
:101010006068008A694608716846049001A920004A
:1010200000F033FB06B010BD00000000000000001F
:10103000020000000000000070B506000800140067
:10104000002B05D01D002178B047641C6D1EFAD11D
:1010500070BDFDB586B00C0009E00123079A2100A0
:101060000698FFF7E9FF04000798401C07900798CF
:101070000078002801D109B0F0BD2528EDD10798EE
:101080004678801C0790252E00D195E0582E69D017
:10109000632E0ED0642E1AD0692E18D06F2E61D018
:1010A000702E68D0732E70D0752E5BD0782E59D0EC
:1010B000DDE708980068089908600168001D089A33
:1010C0001060C9B22000069A90470400CFE7089844
:1010D0000068089908600568001D08990860002DDF
:1010E00004D52D212000069A9047040064266F2E17
:1010F00001D1082106E020213143782901D00A21BD
:1011000000E0102101910B2100912F00642E03D1EA
:10111000002D01D578420700009D6D1E0095380016
:10112000019900F04BF83031C9B23A2902DB3000A6
:101130005138091802A8451929703800019900F0A2
:101140003DF8070002D000980128E5DA20000B21C5
:10115000009A8C1AB9D02978069A90476D1C641EA3
:10116000F9D1B2E708980068089908600568001D81
:1011700008990860BBE70898006808990860056846
:10118000001D089908607826B1E70898006808995A
:1011900008600568001D08990860280000F00AFB37
:1011A00001002000002990D00C002978069A904771
:1011B0006D1C641EF9D188E7252183E70022030A0C
:1011C0008B420BD203098B4219D243088B422ED299
:1011D000411A00D20146524110467047FF220902CF
:1011E0003FD012068B4205D3121209028B4201D363
:1011F0001212090203098B4219D300E0090AC3093C
:101200008B4201D3CB01C01A524183098B4201D3D7
:101210008B01C01A524143098B4201D34B01C01AC2
:10122000524103098B4201D30B01C01A5241C3083A
:101230008B4201D3CB00C01A524183088B4201D3A9
:101240008B00C01A524143088B4201D34B00C01A95
:101250005241884200D3401A5241CFD20146104633
:10126000704708B5C046C04608BD30B40121002211
:101270000368001D002B0BD00468001D0C4202D037
:101280004D466D1E64192260241D1B1FF0D0FAE725
:1012900030BC7047F0B587B004000D002068012114
:1012A00088432060606830490140A8680843606056
:1012B00020682E49014068680843E96801432869AD
:1012C00008432060A0682A49014068690843A0607B
:1012D0006846FFF7A1FA2348844201D1069800E04E
:1012E000029829681922504380263602226832402B
:1012F00001D0490000E08900FFF760FF070064218A
:10130000FFF75CFF0001010964225143791A22684A
:10131000164008D00600C80032306421FFF74EFFA7
:101320004107490F07E00600080132306421FFF74A
:1013300045FF0107090F3143A18107B0F0BD002926
:10134000016803D001220A430260704701229143E1
:101350000160704782680A4B0CE0C905C90D018520
:101360007047000000380140FFCFFFFFF3E9FFFFA7
:10137000FFFCFFFF13408360826811438160704768
:10138000FFFFCFFF02000020D269114000D00120F2
:101390007047FEE7F0B585B003270026012502243B
:1013A000002803D0022840D018D363E0012148046C
:1013B000FFF798FA01218803FFF79EFA0020FFF754
:1013C00019FA01220921C80600F0F8F801220A21C1
:1013D0009020C00500F0F2F878021DE001214804D9
:1013E000FFF780FA01214804FFF790FA4E480068A1
:1013F0004E4901404C48016000684B490860012299
:1014000002219020C00500F0D9F80122032190208C
:10141000C00500F0D3F80C200090029701940396C9
:10142000049569469020C00522E00121C804FFF719
:1014300059FA01218804FFF769FA3B4800683C49E2
:1014400001403948016000683749086001220A21DB
:10145000384800F0B3F801220B21364800F0AEF80E
:10146000B8020090029701940396049569463148AA
:1014700000F064F805B0F0BD10B586B00020FFF7AD
:10148000B2F901218804FFF72DFA01214805FFF781
:101490003DFA294C01220621200000F08FF801229C
:1014A0000721200000F08AF8C0200090022001905F
:1014B000012004900321029103906946200000F06E
:1014C0003DF806B010BD30B585B00020FFF78BF9B0
:1014D00001218804FFF706FA01218805FFF716FAB3
:1014E000154C01220A21200000F068F801220B218E
:1014F000200000F063F8C02000010090022001905D
:10150000012504950320029003956946200000F010
:1015100015F8E802009004956946200000F00EF8E6
:1015200005B030BD0000000030100240FFFFFCFF9E
:10153000FFFFF3FF0008004800040048F2B5002157
:1015400001228A40009B1B68134093422CD14B0020
:1015500003259D40EC43009D6D68012D01D0022DB7
:1015600012D18668264086608668009FBF689F40CB
:10157000374387608688964386808288009EF66817
:10158000B6B28E401643868002682240026002682E
:101590009D4015430560C2681440C460C268009C49
:1015A00024699C401443C460491C1029C8D3F1BD70
:1015B000002A01D0816170470185704710B5CB08C2
:1015C0009B00C0184907C90E036A0F248C40A3432F
:1015D0000362036A8A401A43026210BD70B50400B8
:1015E0006160012565720869000C514E01060AD13F
:1015F0007088401C70803078002811D1200000F0E5
:1016000011F835700CE0C0B2012809D1B088401C37
:10161000B0807078002803D1200000F003F87570C6
:10162000257270BD30B587B0050068680069000C90
:10163000010603D1FFF720FF3E4C05E0C0B20128B0
:1016400002D1FFF740FF3C4C002003900190029034
:1016500004900590069000BF43A1C20089186A68F3
:1016600052690B889A4202D14868009003E0401CFE
:10167000C0B20328EFD36946200000F0A3F801218F
:10168000200000F0CBF807B030BDF2B582B0070003
:10169000CE6878680069000C01060AD1254D0298D1
:1016A00001780289802080017B7A002B009007D18D
:1016B00007E0C0B2012801D11F4DF0E70120FEBDB7
:1016C0000303D2B2280000F0B4F802980089002881
:1016D00007D114220221280000F030F800281DD183
:1016E00012E000240CE014220221280000F026F869
:1016F000002813D1317828008162C046761C641C12
:10170000029800898442EED1787A00280DD0C82250
:101710002021280000F012F8002802D00020C04349
:10172000FEBD20212800C161C0460020FEBD000092
:10173000300100200054004000580040F8B5060079
:101740000F0015000024FEF7CAFEFA208000454372
:101750003900300000F084F8002803D16D1E012DFF
:10176000F6DA01242000F2BD900100000803100009
:101770005E0100000905100064000000130F421014
:1017800070B4103A03D378C9103A78C0FBD253072B
:1017900001D318C918C001D508C908C0D20704D39D
:1017A0000B880380891C801C002A01D50B780370EC
:1017B00070BC7047010000E0491C0A78002AFBD188
:1017C000081A7047026801239A4302600268204B9E
:1017D00013404A681A438B681B02134303600A686C
:1017E0001C4B134003610268012313430360002272
:1017F0008260C2608A690B691343836082688023B8
:101800001B02134383600268CB6813430360426882
:10181000114B134049691943416070470029016821
:1018200003D001220A430260704701229143016004
:10183000704730B54468094D25408905890D294315
:1018400012040A43134303991943416030BD000059
:10185000FFE0CF00FFFFFFF0FF7FFF07009800FCD5
:10186000FFE7020000209269114000D0012070477C
:1018700030B401210268001D002A0FD00368C3188C
:10188000446808300C4202D04D466D1E64191D6834
:1018900025601B1D241D121FECD0F8E730BC7047DB
:1018A00010B5074979441831064C7C44163404E0DD
:1018B000081D0A68891888470100A142F8D110BDA7
:1018C0000800000028000000A3F9FFFFE800000066
:1018D000540000200000000099FFFFFF54000000AA
:1018E0006C00000000000020000000000120C04645
:1018F000002801D0FFF7D4FF0020C046C046FEF705
:10190000DFFC00F000F880B500F002F801BD000037
:101910000746384600F002F8FBE7000020210903E3
:1019200026311820ABBEF9E738B505000C002000C1
:10193000FFF74EF9A04200D00025280032BDC04676
:10194000C046C046C046FFF7D1FF000000130000AC
:10195000090023000000000000003F000009000013
:101960000000000000000000000000000A0000006D
:101970000500000005000000540000080000000001
:1019800094000008000000000102030401020304A7
:1019900006070809003801400044004000480040A4
:00000001FF
